S021000054484F525F696E5F7669766F5F6669726D776172655F746573742E73333762
S31508000000001000204D030008471E0008471E000880
S31508000010471E0008471E0008471E0008471E00081E
S31508000020471E0008471E0008471E0008471E00080E
S31508000030471E0008471E0008471E0008471E0008FE
S31508000040471E0008471E0008471E0008471E0008EE
S31508000050471E0008471E0008471E0008471E0008DE
S31508000060471E0008471E0008471E0008471E0008CE
S31508000070471E0008471E0008471E0008471E0008BE
S31508000080471E0008471E0008471E0008471E0008AE
S31508000090471E0008471E0008471E0008471E00089E
S315080000A0471E0008471E0008471E0008471E00088E
S315080000B0471E0008471E0008471E0008471E00087E
S315080000C0471E0008471E0008471E0008471E00086E
S315080000D0471E0008471E0008471E0008471E00085E
S315080000E0471E0008471E0008471E0008471E00084E
S315080000F0471E0008471E0008471E0008471E00083E
S31508000100471E0008471E0008471E0008471E00082D
S31508000110471E0008471E0008471E0008471E00081D
S31508000120471E0008471E0008471E0008471E00080D
S31508000130471E0008471E0008471E0008471E0008FD
S31508000140471E0008471E0008471E00080348044BC0
S31508000150834202D0034B03B118477047881000202A
S315080001608810002000000000064B0749C91A8910AC
S3150800017048BF0131491003D0044B0BB10148184759
S31508000180704700BF8810002088100020000000007B
S3150800019010B5064C237843B9FFF7D8FF044B13B1C3
S315080001A00448AFF300800123237010BDF01100202E
S315080001B000000000BC26000808B5054B1BB1054920
S315080001C00548AFF30080BDE80840FFF7CDBF00BF84
S315080001D00000000088100020BC260008A3F5803A1D
S315080001E0704700BF174B002B08BF134B9D46FFF700
S315080001F0F5FF00218B460F461348144A121A01F0E0
S315080002004EFF0E4B002B00D098470D4B002B00D00D
S3150800021098470020002104000D000D48002802D050
S315080002200C48AFF3008001F009FA2000290000F01D
S3150800023013F801F041F800BF0000080000000000B4
S31508000240000000000010002088100020F81100208F
S31508000250000000000000000008B501F0A7FE01F04C
S31508000260D5FD044C01F0AFFE01F0D1FD204601F0AA
S31508000270D9F8F7E7E024000810B51E4C00F0E8FDB1
S31508000280236F23F0070343F00203236701F00EFEF2
S31508000290D4F82031002023F0030343F00103C4F807
S315080002A02031D4F8243123F0070343F00103C4F8BE
S315080002B02431D4F8403123F0030343F00103C4F892
S315080002C04031D4F8603123F0030343F00103C4F846
S315080002D06031D4F8403223F0030343F00103C4F835
S315080002E04032D4F8003223F0070343F00103C4F880
S315080002F0003210BD0080005008B50122074B1A7065
S315080003000022074B1A700422064B1A701F22064B4E
S315080003101A7000F09DFF054B186008BD7E1000207E
S31508000320F11100207D1000207C100020A010002074
S315080003300348044A0449121A921001F085BD00BF09
S315080003405827000858270008F811002008B500F0BB
S315080003502FF8FFF7EDFF124B12498B4212D30020FC
S31508000360114B12498B4218D3FFF73CFF186850F817
S315080003702240586840F82240013298688242F5D3F4
S315080003800C33EAE70022F8E71C6844F82200013239
S315080003905C68A242F8D30833E4E70022F8E700BF16
S315080003A0C4260008D0260008D0260008D026000853
S315080003B010B54FF400414FF0FF30114B114A9A60C7
S315080003C0D3F8882042F47002C3F888200E4A916652
S315080003D001F1884101F5005210660C48506602206A
S315080003E0C3F8D000BFF34F8FBFF36F8F08244FF4C5
S315080003F040330748C0F88041D36004600B6110BDE4
S3150800040000ED00E000000008009000507FFF0700A4
S3150800041000E100E0014B1868704700BF0410002097
S31508000420084B1B6F03F00703022B04D0032B05D0E0
S31508000430012B05D0FEE7044B18687047034BFBE712
S315080004400348704700800050041000200C1000205C
S31508000450002D310108B5FFF7E3FF054B1B6FC3F30A
S3150800046003330133B0FBF3F0024B186008BD00BF3D
S3150800047000800050001000200048704700B4C404F3
S31508000480014B1868704700BF0C10002000487047E1
S31508000490002D3101014B1868704700BF0810002075
S315080004A00346054A0549106803448B428CBF4FF042
S315080004B0FF301360704700BF1010002000000120B5
S315080004C008B501213A2000F08BFA01230422032102
S315080004D0002000F025FE002001F015FD0122334B17
S315080004E03349C3F84424334BD3F8FC2012F0807FF9
S315080004F046D1D1F8803023F0030343F00103C1F855
S3150800050080304FF4607000F095FA2A4B00F5D5203C
S31508000510D3F8F02000F2FC4042F00102C3F8F020C4
S31508000520D3F8FC2042F08072C3F8FC20224AA3F5D7
S315080005305D431A60214B0222B0FBF3F0204B0138D1
S315080005401861C3F8F0204FF48072C3F804234FF003
S3150800055060431C4A0020C3F8B02F1B4AC3F8802EFC
S31508000560D3F8002E42F48072C3F8002EFF2283F8D7
S315080005702020D3F8002E22F48072C3F8002E08BD7E
S31508000580D3F8FC2022F08072C3F8FC20D1F8802032
S3150800059022F0030242F00102C1F88020D3F8FC20C1
S315080005A042F08072C3F8FC20ABE700BF00D00350CE
S315080005B00080005000ED00E0FF030040F8590D00F0
S315080005C0000004E055CEACC50900010030B54FF077
S315080005D06043D3F8802ED20715D501240B4D8440ED
S315080005E0D5F8FC2042F08072C5F8FC20D3F8002E1E
S315080005F02243C3F8002E53F82020002AF0D003F82F
S315080006002010002030BD1120FCE700BF00ED00E0FF
S31508000610044BD3F88420D206FBD4D3F88400C0F365
S31508000620811070470040005038B50F4B0546D3F887
S3150800063080300C4603F00303012B09D0022B0FD0A0
S315080006400A4841F2DF1101F012FC0023184602E0C5
S31508000650FFF7E6FE0D2305B1286004B1236038BD17
S31508000660FFF7D8FE0623F6E700800050E4240008CA
S3150800067038B5104B0546D3F820310C4603F0030372
S31508000680022B0BD0032B0DD0012B0FD1FFF7C2FE87
S31508000690052305B1286004B1236038BDFFF7F0FED5
S315080006A00323F6E7FFF7F2FE0223F2E70123002011
S315080006B0EFE700BF00800050F7B50027114B019700
S315080006C0D3F88041064604F00304012C0D4608D0F1
S315080006D0022C12D041F2B1310B4801F0C8FB3C465E
S315080006E004E0394601A8FFF7C3FF0F240EB1019BAA
S315080006F0336005B12C6003B0F0BDFFF7C7FE01906B
S31508000700F4E700BF00800050E424000838B51A4B0F
S315080007100546D3F824010C4600F00700062821D820
S31508000720DFE800F0280410181C0C1400FFF772FE0E
S31508000730052305B1286004B1236038BDFFF76AFEBA
S315080007400623F6E7FFF79CFE0323F2E7FFF798FE7A
S315080007500423EEE7FFF79AFE0223EAE701F07FFBA0
S315080007600723E6E7054840F6A87101F080FB002359
S315080007701846DEE70123DCE700800050E424000881
S3150800078038B5104B0546D3F840310C4603F0030341
S31508000790022B0BD0032B0DD0012B0FD101F061FBDF
S315080007A0092305B1286004B1236038BDFFF772FE3E
S315080007B00823F6E701F058FB0B23F2E70123002094
S315080007C0EFE700BF0080005037B50C460021124BFA
S315080007D00191D3F88432054603F00303022B0ED0A9
S315080007E0032B11D0012B14D101A8FFF741FF0F23CA
S315080007F00DB1019A2A6004B1236003B030BD01A887
S31508000800FFF7BEFF1023F3E7FFF740FE0223019030
S31508000810EEE70123ECE700BF0080005038B5164B21
S315080008200546D3F800020C4600F00700042819D83C
S31508000830DFE800F020030B0F130001F012FB092379
S3150800084005B1286004B1236038BDFFF723FE0823ED
S31508000850F6E701F009FB0B23F2E7FFF7FBFD0E2392
S31508000860800AEDE7054841F26F4101F000FB0023DD
S315080008701846E5E70123E3E700800050E424000872
S3150800088038B5124B0546D3F840320C4603F003033D
S31508000890022B0BD0032B0DD0012B0FD101F0E1FA5F
S315080008A0092305B1286004B1236038BDFFF7F2FDBE
S315080008B00823F6E701F0D8FA0B23F2E7044841F2D9
S315080008C0FA3101F0D4FA00231846EAE7008000500E
S315080008D0E424000838B5104B0546D3F860310C46B9
S315080008E003F00303022B0BD0032B0DD0012B0FD1E2
S315080008F001F0B7FA092305B1286004B1236038BDB1
S31508000900FFF7C8FD0823F6E701F0AEFA0B23F2E776
S3150800091001230020EFE700BF0080005010B5B0F5B6
S31508000920207F2ED009D8B0F5007F24D003D868B12F
S31508000930B0F5C07F0AD000241BE0B0F5607FFAD17D
S31508000940124BD3F88040C4F3011412E00F4B1C6F0E
S31508000950230B13F00E0FC4F303340AD0072C08D068
S315080009600F2C06D0032C04D040F28521084801F04C
S315080009707EFA601C10BD054BD3F89040C4F304649E
S31508000980F7E7024B1C6FC4F38024F2E7008000509F
S31508000990E424000810B54FF400320E4B04469A665C
S315080009A00020FFF7BBFF604341F671320A4C0B4B40
S315080009B0A04294BF00200120D969DA635A6822F45C
S315080009C0401242EA00525A60CA0344BF0022DA6360
S315080009D010BD00BF00900050005A6202000003508C
S315080009E070B5460904460D460ED140F22F310D4822
S315080009F001F03DFA334604F01F047DB103F5805338
S31508000A000122A2401A6070BD012E05D0064B074A86
S31508000A10022E18BF1346EEE7054BECE703F5005325
S31508000A20EEE700BFE42400086880005060820050AA
S31508000A306480005030B585B0002180280446CDE991
S31508000A40001100F00E8100F2C1803F2838D9A0F1CC
S31508000A504D04142C05D940F29441A94801F007FA2F
S31508000A6002E1142CF7D801A353F824F0EB0B000885
S31508000A70570A0008EB0B0008EB0B0008EB0B000805
S31508000A80A30C0008090C0008AD0C0008570A00085A
S31508000A90570A0008570A0008570A0008570A0008A4
S31508000AA0570A0008570A0008F70C0008570A0008F2
S31508000AB0570A0008570A0008EB0B0008EB0B00085A
S31508000AC03F28C8D801A353F820F000BFEB0B000855
S31508000AD0570A0008570A0008570A0008570A000864
S31508000AE0570A0008570A0008570A0008570A000854
S31508000AF0570A0008570A0008570A0008570A000844
S31508000B00570A0008570A0008570A0008570A000833
S31508000B10570A0008570A0008570A0008570A000823
S31508000B20570A0008570A0008570A0008570A000813
S31508000B30570A0008570A0008570A0008570A000803
S31508000B40570A0008570A0008570A0008EB0B00085E
S31508000B50830C0008EB0B0008830C0008A30C0008A4
S31508000B60A30C0008A30C0008A30C0008830C0008BB
S31508000B70830C0008B70C0008090C0008E30C0008F1
S31508000B80590C0008090C0008830C0008830C00089F
S31508000B90830C0008570A0008570A0008570A000875
S31508000BA0570A0008570A0008570A0008570A000893
S31508000BB03B0C0008830C0008830C0008830C000813
S31508000BC0F70C0008ED0C0008830C0008B0F5806FE0
S31508000BD067D024D8B0F5007F49D009D8B0F5807F12
S31508000BE06ED0B0F5C07F7FF436AFFFF733FC3AE03E
S31508000BF0B0F5607F50D03FF62EAFB0F5207F40D0DD
S31508000C00B0F5407F7FF427AFFFF724FC04464FF486
S31508000C102070FFF783FEB4FBF0F464083AE0B0F501
S31508000C20C06F5ED00ED8B0F5A06F3FD0B0F5B06FEC
S31508000C3041D0B0F5906F7FF40EAF00216846FFF7FC
S31508000C4065FD11E0B0F5E06F50D0B0F5F06F52D009
S31508000C50B0F5D06F7FF4FFAE00216846FFF7DEFDE2
S31508000C6002E0FFF7DDFB0090009805B030BDFFF706
S31508000C70D7FB05462046FFF751FEB5FBF0F5009574
S31508000C80F2E7FFF7E7FB04464FF42070FFF746FE4E
S31508000C90B4FBF0F40094E7E701A8FFF7C5FC019D53
S31508000CA0E8E700216846FFF7E3FCDDE70021684630
S31508000CB0FFF78AFDD8E700216846FFF7FDFCD3E772
S31508000CC04FF0E02302911B695B0705D5FFF7C2FBCE
S31508000CD00290029B0093C7E703A902A8FFF750FDFD
S31508000CE0F7E700216846FFF74BFDBDE70021684698
S31508000CF0FFF7C6FDB8E700216846FFF7EBFDB3E747
S31508000D00E424000808B58020FFF794FE034B9842B8
S31508000D109EBF4FF48032024B1A6708BD005A620222
S31508000D2000A0005038B5B0F5207F77D00ED8B0F5C2
S31508000D30007F61D003D890B3B0F5C07F2FD040F2C2
S31508000D401231BDE838403D4801F091B8B0F5607FF2
S31508000D50F5D13B4A4C1ED2F8FC5015F080751EBFE3
S31508000D60D2F8FC3023F08073C2F8FC30032C04D987
S31508000D7040F2F221314801F07AF8324AD2F880304E
S31508000D8023F0300343EA0413C2F8803035B12C4A05
S31508000D90D2F8FC3043F08073C2F8FC3038BD4C1EE4
S31508000DA0012C0AD9102903D8274BCB40DB0704D4DA
S31508000DB040F2C721214801F05AF801F064F801F021
S31508000DC070F84FF48031214B1E4A1967136F23F4CC
S31508000DD0704343EA04331367FFF73CFB0446FFF707
S31508000DE017FCC0F10201204601F055F800F040F862
S31508000DF0BDE83840FFF786BF4C1E1F2C04D940F2C9
S31508000E0006310E4801F033F80E4AD2F8903023F036
S31508000E10F85343EA0463C2F89030BFE74C1E012C2E
S31508000E2004D94FF44371054801F021F8054A136FB8
S31508000E3023F4806343EA84231367AFE7E4240008B6
S31508000E4000ED00E000800050100101000090005005
S31508000E5008B50121022000F02FF801F014F801F07E
S31508000E6020F84FF48032014B1A6708BD00900050F5
S31508000E7008B54FF4C070FFF7DDFDBDE8084004492A
S31508000E80884294BF012102214FF42070FFF74ABF20
S31508000E9080F0FA02024A136CDB07FCD4704700BFE5
S31508000EA000400950034A0179D36E23F030030B43FF
S31508000EB0D366704700400050F8B50446244BD3F873
S31508000EC08420D006FBD4D3F88430C3F381139C4224
S31508000ED03CD0FFF7A5FA012C05460BD11D4B9842CD
S31508000EE004D940F292711C4800F0C1FF012128463E
S31508000EF000F0D1FF00F0EFFF4FF00072174B0746E6
S31508000F005A66204600F0EEFF4FF48063104E621ECC
S31508000F1093403367736E9A0103D4D6F884309B06E0
S31508000F200AD5384600F0DBFF022C0FD12846BDE86B
S31508000F30F840002100F0AFBFD6F884309906E9D50D
S31508000F404FF4F461044800F092FFE3E7F8BD00BFF0
S31508000F5000400050005A62022F2500080060005029
S31508000F6010B50C4608B9FFF75BFA074B21461B7804
S31508000F703BB1064B984204D80120BDE81040FFF764
S31508000F809BBF0220F9E700BFF2110020005A620257
S31508000F9038B54FF00042244B24495A664AF6CD33F9
S31508000FA0D1F89440C1F8903004F0010428BBFFF74B
S31508000FB071FF4B68DB0716D501221D4B5A601D4B86
S31508000FC0CA6BD5070DD4984209D107251CB1174B12
S31508000FD0194AC3F8902000F086FF284638BD01302C
S31508000FE0EEE79842F1D00025F0E70132CB6B13F01B
S31508000FF0080305D08242F8D1E7E700220D48F5E755
S315080010008242E2D020210A4A51630121A2F5805288
S3150800101051600649074A486B800603D49342D4D0E8
S315080010200133F8E79342DDE700900050004009508D
S315080010300060095040420F003254FFFF38B54FF0A8
S315080010400042174B174C5A664AF6CD33D4F89450DB
S31508001050C4F890304378144A5B0043F00103D36325
S31508001060FFF718FF6368827823F0700343EA0213D8
S315080010706360C278437943EA0223E360027983799D
S3150800108043EA022323610078FFF782FFEB0744BF98
S31508001090064BC4F8903000F026FF012038BD00BF8B
S315080010A00090005000400950004000503254FFFFA5
S315080010B038B5032804460D4604D8084B1B5CCB40BC
S315080010C0DB0704D440F22D41054800F0D0FE30235A
S315080010D001225C43034BAA401A5138BD1226000868
S315080010E07A25000840D0035038B5032804460D4633
S315080010F004D8084B1B5CCB40DB0704D440F2FE3116
S31508001100054800F0B4FE302301225C43034BAA4095
S315080011101A5138BD122600087A25000840E0035007
S315080011202DE9F041032804460D461746984604D88B
S315080011301C4B1B5CCB40DB0704D44FF4B0711A4838
S3150800114000F095FE37B129462046B8F1000F20D0A9
S31508001150FFF7AEFF0F21072D04EB440688BFA5F164
S3150800116008034FEA0616114895BFAB009B000436E4
S315080011700C3607FA03F29940304400F0B5FE7FB901
S3150800118029462046B8F1000F06D0BDE8F041FFF722
S315080011908FBFFFF7A9FFDDE7BDE8F041FFF7A4BF62
S315080011A0BDE8F08112260008C625000830C00350A5
S315080011B007B5084B18689A889B7900906846ADF879
S315080011C004208DF80630FFF739FF002003B05DF8DC
S315080011D004FB00BF1626000813B50024064A684615
S315080011E0536F43F00103536700948DF80440FFF7EB
S315080011F059FE204602B010BD0040005010B56FF0F1
S31508001200040350210A480B4C13F0800F03F1010226
S3150800121007D12344432A83F800131346F4D1002048
S3150800122010BD03F00F03043B034419761346EBE79E
S3150800123000ED00E000E100E010B5044600F04BFECA
S31508001240024B1C6000F04BFE002010BDA4100020CD
S3150800125010B500F040FE034B1C6800F040FE204627
S3150800126010BD00BFA410002010B50020144600F0E1
S315080012704BFE022804D018B1C321024800F0F7FD3E
S31508001280204610BD1D260008034B022218680023BD
S315080012908068194600F0D8B82C10002010B5002038
S315080012A000F0E6FD044610B90248FFF7C5FF2046E0
S315080012B010BD00BF1410002008B5064B044613B134
S315080012C00021AFF30080044B1B6803B19847204602
S315080012D000F045FE00000000E0110020002310B5D4
S315080012E004468360818119464366C2810822836168
S315080012F0C0E90033C0E904335C3000F0D0FE0D4B82
S31508001300246263620C4BA3620C4BE3620C4B2363AF
S315080013100C4B9C4206D003F16802944202D0D033AB
S315080013209C4205D104F15800BDE8104000F0BFBE4C
S3150800133010BD00BF192000083B20000873200008D4
S3150800134097200008A8100020024A0349034800F025
S3150800135045BE00BF20100020F122000830100020F2
S3150800136041680C4B994210B5044601D000F0C0FF05
S31508001370A168094B994202D0204600F0B9FFE168FE
S31508001380064B994204D02046BDE8104000F0B0BF95
S3150800139010BD00BFA81000201011002078110020F1
S315080013A010B50B4B04210B4C0B4A20461A60002241
S315080013B0FFF794FF04F1680001220921FFF78EFF69
S315080013C004F1D00002221221BDE81040FFF786BFC3
S315080013D0E0110020A810002049130008014800F079
S315080013E067BE00BFF4110020014800F062BE00BFCE
S315080013F0F411002010B50446FFF7F0FF236A1BB16D
S31508001400BDE81040FFF7F0BF044B2362044B1B688E
S31508001410002BF5D1FFF7C4FFF2E700BF6113000800
S31508001420E01100200FB407B5064904AB086853F865
S31508001430042B8168019300F01DFA03B05DF804EBF4
S3150800144004B070472C1000202DE9F7431D46574B72
S3150800145004460E461F68904627B13B6A13B93846BC
S31508001460FFF7C8FFB8F1020F06D0B8F1010F00F276
S315080014709980002DC0F29680636ED90705D4A3899A
S315080014809A0502D4A06D00F013FE2146384600F0F6
S315080014902FFF616B41B104F14403994202D03846EB
S315080014A000F0F0F8002363630023A3616360A38957
S315080014B01B0603D52169384600F0E4F8A389B8F17C
S315080014C0020F23F44A6323F00303A38160D001AB20
S315080014D06A462146384600F033FFA3891843A0819F
S315080014E02DBB009D284600F017F90646002851D165
S315080014F0DDF80090A9453FD14FF0FF35B4F90C301F
S3150800150043F00202A2810022A26004F1470222608F
S31508001510226101226261626ED60704D4980502D45C
S31508001520A06D00F0C6FD284603B0BDE8F083002E86
S31508001530D8D03B6A13B93846FFF75CFFB8F1010FFC
S31508001540266002BFA38943F00103A381B4F90C30D6
S3150800155013F00802C4E904651ED0D90745BF002266
S315080015606D42A560A26048BFA561626ED20701D42C
S315080015709B0513D50025D6E7484600F0CDF8064664
S315080015800028B9D0A3894D4643F08003A381D0E74C
S315080015900025B3E7A946F5E7A260E6E7A06D00F0E7
S315080015A088FDE7E74FF0FF35BDE700BF2C100020A8
S315080015B038B50023054D044608462B6000F0CDFCDF
S315080015C0431C02D12B6803B1236038BDE411002007
S315080015D038B50446064D0846114600222A601A46C2
S315080015E000F0C5FC431C02D12B6803B1236038BD4B
S315080015F0E411002038B50446064D08461146002277
S315080016002A601A4600F0B5FC431C02D12B6803B1C8
S31508001610236038BDE411002038B50446064D084657
S31508001620114600222A601A46FFF71EFE431C02D105
S315080016302B6803B1236038BDE411002070B50D4D49
S3150800164000260D4C641BA410A64209D10B4D00269A
S315080016500B4C00F025FF641BA410A64205D170BDF3
S3150800166055F8043B01369847EEE755F8043B013632
S315080016709847F2E780100020801000208010002094
S315080016808410002038B50546002941D051F8043C9D
S315080016900C1F002BB8BFE41800F0E0F81D4A1368C9
S315080016A033B9636014602846BDE8384000F0DCB8FA
S315080016B0A34208D9206821188B4201BF19685B68C4
S315080016C009182160EDE71A465B680BB1A342FAD9FF
S315080016D011685018A0420BD12068014450181160B7
S315080016E08342E0D118685B68084453601060DAE703
S315080016F002D90C232B60D6E7206821188B4202BF3B
S3150800170019685B680918636008BF21605460CAE7F6
S3150800171038BD00BFEC110020024B0146186800F0E6
S3150800172025B800BF2C10002070B50F4E0C46054694
S31508001730316811B900F05AFB30602146284600F09E
S3150800174055FB431C03D14FF0FF34204670BDC41C23
S3150800175024F00304A042F8D0211A284600F046FBDC
S315080017600130F2D1EFE700BFE81100202DE9F04182
S31508001770CD1C064625F0030508350C2D38BF0C256B
S31508001780002D01DBA94204D90C2333600020BDE8F3
S31508001790F081314F00F062F83B681C4644BB29468D
S315080017A03046FFF7C1FF431C044650D13C6821462A
S315080017B0002941D1002C44D02368304604EB0308A5
S315080017C000F014FB80453CD1216830466D1A294645
S315080017D0FFF7AAFF013034D023682B4423603B6807
S315080017E0002B36D05A68A24229D100225A600EE050
S315080017F02268521B1DD40B2A16D96119A3422560EB
S3150800180018BF5960636808BF396062514B6030463B
S3150800181000F02AF804F10B00231D20F00700C21A75
S31508001820B5D01B1AA350B2E7A3426268DED13A606C
S31508001830EDE723466468B1E70C464968B8E71346FE
S31508001840CEE70C233046336000F00EF89EE70560BD
S31508001850DDE75B60FFDE00BFEC110020014800F009
S3150800186027BC00BFF3110020014800F022BC00BFCE
S31508001870F31100202DE9F04F0D469DB01446984609
S31508001880064618B1036A0BB9FFF7B4FD6B6ED907A4
S3150800189005D4AB899A0502D4A86D00F009FCAB897A
S315080018A01B0701D52B699BB92946304600F026FA55
S315080018B070B16B6EDC0704D54FF0FF301DB0BDE884
S315080018C0F08FAB899805F7D4A86D00F0F2FBF3E723
S315080018D00023CDF80C804FF00109DFF8B481099395
S315080018E020238DF8293030238DF82A3023469A464E
S315080018F013F8012B0AB1252AF9D1BAEB040B0BD040
S315080019005B4622462946304600F0EBFB013000F0E4
S31508001910A780099A5A4409929AF80030002B00F0D9
S315080019209F8000234FF0FF320AF1010A04930793C0
S315080019308DF853301A93CDE90523544605225448A9
S3150800194014F8011B00F09BFD049AD8B9D10644BFD0
S3150800195020238DF85330130744BF2B238DF85330BB
S315080019609AF800302A2B15D0079A544600204FF0D3
S315080019700A0C214611F8013B303B092B4BD9B0B173
S31508001980079214E0A0EB0803A24609FA03F31343EF
S315080019900493D2E7039B191D1B68002B0391BBBF59
S315080019A05B4242F0020207930793B8BF049223787A
S315080019B02E2B0AD163782A2B32D1039B02341A1DA7
S315080019C01B6843EAE37303920593DFF8D4A0032266
S315080019D02178504600F053FD38B1A0EB0A004022AA
S315080019E0049B013482401343049314F8011B062216
S315080019F028488DF8281000F042FD00283FD0264BD5
S31508001A001BBB039B073323F0070308330393099B88
S31508001A103B4409936AE70CFB02320C460120A8E70F
S31508001A20002301344FF00A0C19460593204610F896
S31508001A30012B303A092A03D9002BC6D00591C4E7F1
S31508001A400CFB012104460123F0E703AB2A4604A94F
S31508001A5030460093114BAFF300800746781CD6D169
S31508001A606B6ED90705D4AB899A0502D4A86D00F028
S31508001A7020FBAB895B063FF51FAF09981EE703AB52
S31508001A802A4604A930460093044B00F00BF8E4E715
S31508001A90872600089126000800000000E3200008B9
S31508001AA08D2600082DE9FF470F7E914680460C4695
S31508001AB0782F9A460C9E01F1430207D8622F0AD85E
S31508001AC0002F00F0DD80582F00F0C38004F1420695
S31508001AD084F842703AE0A7F16303152BF6D801A102
S31508001AE051F823F03D1B0008511B0008CD1A0008C9
S31508001AF0CD1A0008CD1A0008CD1A0008511B000897
S31508001B00CD1A0008CD1A0008CD1A0008CD1A00080B
S31508001B10671C0008DF1B00081F1C0008CD1A0008F8
S31508001B20CD1A0008891C0008CD1A0008DF1B00081A
S31508001B30CD1A0008CD1A0008271C000833681A1D9C
S31508001B401B68326004F1420684F842300123A8E09B
S31508001B5031682368081D30601E0601D50D6803E04C
S31508001B605D06FBD5B1F90050002D616878DA2D20A5
S31508001B700029A16084F843002DDA6D425D480A23E6
S31508001B801646B5FBF3F103FB1157C75D06F8017D51
S31508001B902F460D46BB42F4D9082B0BD12368DF0725
S31508001BA008D5236961689942DEBF302306F8013CEF
S31508001BB006F1FF36921B22614B4603AA2146404690
S31508001BC0CDF800A000F09FFA01306FD14FF0FF303A
S31508001BD004B0BDE8F08723F004032360CDE721684D
S31508001BE03368080653F8045B02D4490648BFADB209
S31508001BF06F2F33603F4814BF0A230823002184F857
S31508001C0043106668002EA660BADB216821F004013D
S31508001C102160002DB4D1002EB2D11646BCE7236848
S31508001C2043F02003236078273348236884F84570F7
S31508001C301F06316851F8045B02D45F0648BFADB28F
S31508001C403160D90744BF43F0200323601DB1102338
S31508001C50D4E72848E9E7236823F020032360F6E75A
S31508001C6024480A23CDE733682568181D6169306062
S31508001C702E061B6801D5196002E06806FBD5198097
S31508001C8000231646236197E7336800211A1D326040
S31508001C901E686268304600F0F2FB08B1801B60607F
S31508001CA063682361002384F8433085E72369324655
S31508001CB049464046D047013088D023689B0714D44C
S31508001CC0E068039B9842B8BF184681E7012332466D
S31508001CD049464046D04701303FF478AF0135E368BE
S31508001CE003995B1AAB42F1DCEAE7002504F1190611
S31508001CF0F5E700BF98260008A926000838B5294B3D
S31508001D0005460C46186818B1036A0BB9FFF772FB4B
S31508001D10B4F90C30190722D4DA0607D409222A6046
S31508001D2043F040034FF0FF30A38133E0580712D544
S31508001D30616B41B104F14403994202D02846FFF78A
S31508001D40A1FC00236363A38923F02403A381002352
S31508001D50636023692360A38943F00803A381236989
S31508001D604BB9A38903F42073B3F5007F03D021464A
S31508001D70284600F00AFBB4F90C3013F001020AD029
S31508001D800022A26062695242A261226942B913F036
S31508001D908000C5D138BD990758BF6269A260F4E7CB
S31508001DA00020F7E72C10002038B50023064D04461E
S31508001DB0084611462B6000F0D3F8431C02D12B6865
S31508001DC003B1236038BD00BFE411002038B50023F5
S31508001DD0054D044608462B6000F0C7F8431C02D19F
S31508001DE02B6803B1236038BDE411002038B5002301
S31508001DF0054D044608462B60FEF752FB431C02D1EC
S31508001E002B6803B1236038BDE41100207047704782
S31508001E1008B5FFF7F3F9FFF7CBF9FEF72DFABDE89A
S31508001E200840FFF7D9B9FEF74BBB08B5FFF72CFA00
S31508001E30BDE80840FFF732BA7047FEF75DBA70474B
S31508001E40704770477047FEE710B53AB1002350F85F
S31508001E50234041F8234001339A42F8D110BD0020AF
S31508001E6070474FF4004070474FF47A707047FEE7AA
S31508001E704FF060420123D2F8001E83400B43002036
S31508001E80C2F8003E704708B5FEF7F6FABDE8084006
S31508001E900021FEF77FBD0029CCBF01210021FEF7F6
S31508001EA079BD02214FF42070FEF73CBF10B5FEF74E
S31508001EB0D1FA0446FEF7ACFBC0F102012046FFF753
S31508001EC0EAFF01210020FFF74BF8FEF7D1FFBDE836
S31508001ED01040FEF717BFEFF3108072B6704700B9CF
S31508001EE062B670477047704770B5054614460E4689
S31508001EF0FFF7F1FF2B685C4034405C402C60BDE87E
S31508001F007040FFF7ECBF704770B50C46154610B920
S31508001F10FFF79EF938B143682BB12A462146BDE83A
S31508001F20704000681847232070BDF7B50D46164661
S31508001F301C4648B103B901AC87685FB123463246EF
S31508001F4029460068B84706E0FFF782F904B901ACEC
S31508001F500028F1D1232003B0F0BD00207047FEE72A
S31508001F604FF4005300204B60704701207047002053
S31508001F70704707B5002001AB0190FFF7D6FF01981F
S31508001F80002808BF4FF0FF3003B05DF804FB38B5F2
S31508001F900C468D18AC4201D1002006E0002014F84A
S31508001FA0011BFEF713FB0028F4D038BD08B5FFF770
S31508001FB02FFFFFF738FFFFF738FFFFF73DFFBDE8B4
S31508001FC00840FFF73ABF08B5FFF739FFFFF738FFB4
S31508001FD0FFF737FFBDE80840FFF734BF2DE9F843A0
S31508001FE00746884614460026D4E90195B9F1010941
S31508001FF005D52468002CF7D13046BDE8F883AB89AF
S31508002000012B07D9B5F90E30013303D029463846D6
S31508002010C04706436835E9E710B50C46B1F90E1016
S31508002020FFF7E8FA0028ABBF636DA3891B1823F4F2
S315080020308053ACBF6365A38110BD2DE9F0411F46EF
S315080020408B8905460C46DB05164605D50223002274
S31508002050B1F90E10FFF7BCFAA3893246B4F90E108F
S31508002060284623F48053A3813B46BDE8F041FFF799
S31508002070D3BA10B50C46B1F90E10FFF7A9FA431CEE
S31508002080A38915BF606523F4805343F48053A38165
S3150800209018BFA38110BDB1F90E10FFF789BA024423
S315080020A00346934200D1704703F8011BF9E77047CE
S315080020B0704770479368013B002B936010B408DAA9
S315080020C09469A34201DB0A2903D15DF8044B00F0A9
S315080020D098B91368581C1060084619705DF8044BC7
S315080020E07047F8B506460F461446D518AC4201D1D6
S315080020F0002007E03A4614F8011B3046FFF7DAFFDE
S31508002100431CF3D1F8BD2DE9F047164698468A6870
S3150800211007460B690C46DDF820909342B8BF134674
S31508002120336091F843200AB1013333602368990676
S3150800213042BF336802333360256815F0060506D1B9
S3150800214004F1190AE36832689B1AAB422BDC94F84F
S3150800215043302268003B18BF0123920630D404F1AD
S31508002160430241463846C847013023D023681A340B
S3150800217054F80A2C03F00603042B0ABF54F80E5C25
S31508002180002533684FF0000608BFED1A54F8123CD4
S3150800219008BF25EAE5759342C4BF9B1AED18B542F8
S315080021A01AD1002008E00123524641463846C8475E
S315080021B0013003D14FF0FF30BDE8F0870135C1E7A4
S315080021C0E1185A1C30200233224481F8430094F85F
S315080021D0451082F84310C2E7012322464146384695
S315080021E0C8470130E6D00136D9E7B1F90C202DE908
S315080021F0F041170705460C4656D44B68002B02DCFF
S315080022000B6C002B3DDDE66A002E3AD0002312F453
S3150800221080522F68216A2B6025D0626DA3895807E2
S3150800222005D56368D21A636B0BB1236CD21A216A7F
S315080022300023E66A2846B047411C24D00023636081
S3150800224023692360A389DA0400D56065616B2F6072
S31508002250B9B104F14403994202D02846FFF712FAAD
S31508002260002363630DE001232846B047461C024657
S31508002270D4D12B68002BD1D01D2B01D0162B2AD1F7
S315080022802F6000202EE02A68B4F90C3042B11D2ACE
S3150800229001D0162A21D10023636023692360D5E77C
S315080022A0626022692260CEE70F69002FE9D09307A2
S315080022B00E680F600CBF4B690023A6EB07088B60FE
S315080022C0B8F1000FDDDD43463A46216A2846A66A7C
S315080022D0B047002808DCB4F90C3043F040034FF04F
S315080022E0FF30A381BDE8F0810744A8EB0008E7E7C3
S315080022F038B50B6905460C4613B90025284638BD7E
S3150800230018B1036A0BB9FFF775F8B4F90C30002B4E
S31508002310F3D0626ED00704D4990502D4A06DFFF7F6
S31508002320C7FE28462146FFF760FF636E0546DA07B3
S31508002330E4D4A3899B05E1D4A06DFFF7BAFEDDE7D7
S3150800234070B50C46B1F90E1096B0154600291E4612
S315080023500CDAA389002113F0800F14BF40234FF431
S315080023608063002031602B6016B070BD6A46FFF7A7
S315080023701BFD0028EDDB019901F47041A1F500531E
S31508002380594259414FF48063EBE78B89F7B59D07AE
S3150800239006460C4607D504F147032360236101234B
S315080023A0636103B0F0BD01AB6A46FFF7C9FF009F42
S315080023B0054630463946FFF7D9F948B9B4F90C301D
S315080023C09A05EED423F0030343F00203A381E2E760
S315080023D0A389206043F08003A381019BC4E9040715
S315080023E05BB1B4F90E103046FFF7F0FC28B1A389AB
S315080023F023F0030343F00103A381A3891D43A581A9
S31508002400CFE7F8B50E461446054618B1036A0BB968
S31508002410FEF7F0FFA369A360A3891A0701D523690C
S3150800242043B921462846FFF769FC18B14FF0FF3734
S315080024303846F8BD2368F6B222693746981A6369A2
S31508002440834205DC21462846FFF752FF0028EDD1D6
S31508002450A368013BA36023685A1C22601E70431CB4
S3150800246062699A4204D0A389DB07E1D50A2EDFD137
S3150800247021462846FFF73CFF0028D9D0D6E7C9B23F
S315080024800346024410B59342184601D1002003E0E2
S31508002490047801338C42F6D110BD0000000000001C
S315080024A0F8B500BFF8BC08BC9E467047F8B500BF33
S315080024B0F8BC08BC9E4670470000000000000000FB
S315080024C000000000000000000000000000000000FE
S315080024D000000000000000000000000000000000EE
S315080024E021210A00433A2F55736572732F78696E56
S315080024F079652F53696D706C69636974795374755E
S3150800250064696F2F53444B732F6765636B6F5F73F3
S31508002510646B2F706C6174666F726D2F656D6C6974
S31508002520622F7372632F656D5F636D752E6300434B
S315080025303A2F55736572732F78696E79652F5369CB
S315080025406D706C696369747953747564696F2F5318
S31508002550444B732F6765636B6F5F73646B2F706C87
S315080025606174666F726D2F656D6C69622F73726325
S315080025702F656D5F656D752E6300633A5C757365CF
S3150800258072735C78696E79655C73696D706C696382
S3150800259069747973747564696F5C73646B735C676B
S315080025A065636B6F5F73646B5C706C6174666F7286
S315080025B06D5C656D6C69625C696E635C656D5F67B1
S315080025C070696F2E6800433A2F55736572732F78BA
S315080025D0696E79652F53696D706C6963697479538F
S315080025E0747564696F2F53444B732F6765636B6FFC
S315080025F05F73646B2F706C6174666F726D2F656D97
S315080026006C69622F7372632F656D5F6770696F2ED1
S3150800261063007F077F0301030401010903433A2F7F
S3150800262055736572732F78696E79652F53696D7066
S315080026306C696369747953747564696F2F53444B75
S31508002640732F6765636B6F5F73646B2F706C617450
S31508002650666F726D2F736572766963652F696F731E
S31508002660747265616D2F7372632F736C5F696F7314
S31508002670747265616D5F72657461726765745F73A4
S315080026807464696F2E6300232D302B2000686C4C10
S31508002690006566674546470030313233343536378C
S315080026A038394142434445460030313233343536B1
S311080026B037383961626364656600000013
S30D080026BC20DBFF7F010000008E
S311080026C4D02600080010002022000000AC
S315080026D0C0EA2101C0EA21010080000000F0490299
S315080026E0F8110020000000008F1F000800000000FD
S315080026F00000000003000000A81000203010002091
S3150800270000000000A81000201011002078110020F9
S3150800271000000000000000000000000000000000AB
S31508002720000000000000000000000000000000009B
S31508002730000000000000000000000000000000008B
S315080027400000000000000000000000001F04010057
S30D08002750B90100089101000817
S7050800034DA2
