S021000054484F525F696E5F7669766F5F6669726D776172655F746573742E73333762
S3150800000000100020FD300008318C0008318C0008F3
S31508000010318C0008318C0008318C0008318C0008BE
S31508000020318C0008318C0008318C0008318C0008AE
S31508000030318C0008318C0008318C0008318C00089E
S31508000040318C0008318C0008318C0008318C00088E
S31508000050318C0008318C0008318C0008318C00087E
S31508000060318C0008318C0008318C0008318C00086E
S31508000070318C0008318C0008318C000815570008AF
S31508000080318C0008318C0008318C0008318C00084E
S31508000090318C0008318C0008318C0008318C00083E
S315080000A0318C0008318C000805360008318C0008B0
S315080000B0318C0008318C00082937000805370008FC
S315080000C0318C0008318C0008318C0008318C00080E
S315080000D0318C0008318C0008318C0008318C0008FE
S315080000E0318C0008318C0008318C0008318C0008EE
S315080000F0318C0008318C0008318C0008318C0008DE
S31508000100318C0008318C0008318C0008318C0008CD
S31508000110318C0008318C0008318C0008318C0008BD
S31508000120318C0008318C0008318C0008318C0008AD
S31508000130318C0008318C0008318C0008318C00089D
S31508000140318C0008318C0008318C00080000000052
S31508000150013800D0FCE770472DE9F04FC76997B022
S315080001608346209E08910C92129355EC104B8DED08
S31508000170000B7FB9102006F0E7FE0246CBF81C00FC
S3150800018020B9A74BEF21A74807F04CFCC0E9017737
S315080001900760C760DBF81C30196859B15A68012333
S315080001A0584693404A608B6006F0BCFFDBF81C306B
S315080001B000221A602B1EB7BF23F00043002301223A
S315080001C00193A8BF3360019F974BB8BF3260BB430A
S315080001D019D142F20F73129A1360C7F3130323431C
S315080001E000F0DB85219B53B9904B21E0904B03939C
S315080001F00833219A1360039817B0BDE8F08F8B4B2C
S3150800020003930333F5E79DED007B0022002351ECB1
S31508000210170B8DED0A7B05F0E7FE804650B10123EA
S31508000220129A1360219B13B1824B219A1360824B59
S315080002300393E0E7C7F30A5614AA15A958469DED95
S315080002400A0B07F0F7F90290002E76D00B9BA6F260
S31508000250FF36CDF84C80C3F3130343F07F53DDE933
S315080002600A0143F4401319460022744B05F09CFA20
S3150800027065A3D3E9002305F04FFC65A3D3E9002362
S3150800028005F094FA04460D46304605F0DBFB62A3FA
S31508000290D3E9002305F040FC02460B4620462946D2
S315080002A005F084FA04460D4607F054FD0022074679
S315080002B000232046294605F0A1FE40B1384605F040
S315080002C0C1FB22462B4605F08FFE00B9013F162FCB
S315080002D052D85B4B03EBC703DDE90A01D3E90023D8
S315080002E005F08CFE002849D0013F00231193149B8A
S315080002F09B1B5A1E4CBFC3F101030023079245BF3F
S315080003000693002306930793002F39DB079B109764
S315080003103B44079300230993089B092B66D8052BB2
S31508000320C5BF043B002401240893089B023B032B0A
S3150800033067D8DFE803F02D3A3859DDE914631E441F
S3150800034006F23243202BC9BFC3F14003C3F1200391
S315080003509F4006F21243D8BF04FA03F006F1FF36AF
S31508000360C4BF24FA03F347EA030005F05BFB012246
S31508000370A1F1F873139276E70123B7E71190B6E770
S31508000380069BDB1B06937B42099300231093C3E766
S3150800039000230D930C9B002B56DC012399461A4625
S315080003A004930C920CE00123F3E700230D930C9BB6
S315080003B0FB1803F1010904934B46012BB8BF01232F
S315080003C0DBF81C000021042202F114059D423FD9E6
S315080003D04160584606F066FE039000283BD1194B4B
S315080003E0024640F2AF11CEE60123DFE701240023DF
S315080003F00D9408934FF0FF33002299460493122375
S31508000400CFE701230D93F5E761436F63A787D23FD3
S31508000410B3C8608B288AC63FFB799F501344D33FE5
S31508000420E3A20008FAA200080000F07FDFA2000895
S31508000430D6A20008B3A20008B2A200080000F83F3E
S31508000440F8A3000853A300080C9B99460493B7E742
S3150800045001315200B8E7DBF81C30B9F10E0F039AE8
S315080004601A606FD8002C6DD0002F36DD07F00F020A
S31508000470A04BF8054FEA271403EBC20393ED007B64
S315080004808DED0E7B17D59C4B04F00F044FF0030837
S31508000490D3E90823DDE90A0105F068FCCDE9000186
S315080004A0954D5CB9DDE90E23DDE9000105F05EFC3A
S315080004B0CDE900012BE04FF00208F1E7E10709D585
S315080004C008F10108DDE90E01D5E9002305F024FB52
S315080004D0CDE90E0164100835E3E700F007817C4298
S315080004E0844B854D4FF0020804F00F02241103EBEC
S315080004F0C203DDE90A01D3E9002305F00DFB002359
S31508000500CDE90001002C40F0E580002BD0D1119BED
S31508000510DDE90045002B00F04C810022774B204690
S31508000520294605F06BFD002800F04381B9F1000F5C
S3150800053000F03F81049B002B00F3E480DDE90A34D8
S31508000540CDE90034159B002B02DB0E2F40F34282C7
S315080005500D9A002A40F06782099C0025DDF818806C
S31508000560B8F1000F0DD0079B002B0ADD4345069A0C
S31508000570A8BF4346D21AA8EB03080692079AD31ACD
S315080005800793099B0BB30D9B002B00F0A682002C4A
S3150800059000F0A18229462246584606F0EDFE029A48
S315080005A001460546584606F03DFE02990646584657
S315080005B006F0B8FD099B1B1B099300F09182099A66
S315080005C03146584606F0D8FE02900121584606F0F4
S315080005D013FE109B0446002B00F084821A4601463F
S315080005E0584606F0C9FE089B0446012B03DC009B0F
S315080005F0002B00F07C820026236904EB830318692C
S3150800060008F052FFC0F120001096079B184410F01E
S315080006101F0000F09182C0F12003042B40F3818271
S31508000620C0F11C00069B034480440693079B0344C1
S315080006300793069B002B05DD1A460299584606F0D5
S31508000640F5FE0290079B002B05DD21461A46584603
S3150800065006F0ECFE0446119B002B00F0768221463C
S31508000660029808F070FF002880F26F8200230A22A1
S315080006700299584606F078FD0D9B7E1E0290002BC7
S3150800068000F05C82002329460A22584606F06CFDD3
S31508000690049B0546002B03DC089B022B00F35E82B5
S315080006A0B8F1000F05DD29464246584606F0BEFE5B
S315080006B00546109B002B00F0D0826968584606F064
S315080006C0F1FC0746002840F07F820D4B024640F2B7
S315080006D0EF2158E5E20706D508F10108D5E9002318
S315080006E005F01AFA0123641008350BE74FF00208E3
S315080006F00DE700BFF8A30008D0A300080000F03FEC
S3150800070053A3000820460022AC4B294605F004FAFC
S315080007107E1E08F10108049CCDE90001404605F05B
S3150800072091F9DDE9002305F0F7F9A54B002205F05C
S315080007303DF8A1F15073CDE90E010F93002C3BD182
S315080007400022A04BDDE9000105F02EF802460B4613
S31508000750CDE90023DDE90E2305F06EFC002840F004
S315080007605781DDE90E2101F10043DDE9000105F0BD
S3150800077045FC00283FF4E2AE002425460C9BDDF834
S315080007800CA0DE434FF000082146584606F0CAFC86
S31508000790002D00F0A980B8F1000F05D0A84503D0B8
S315080007A04146584606F0BEFC2946584606F0BAFCAD
S315080007B09AE03E464C46B1E7834B03EBC40353E944
S315080007C00201039B1C440D9B002B4AD002460B4694
S315080007D000207E4905F0CAFADDE90E2304F0E4FF9D
S315080007E0DDF80CA0CDE90E01DDE9000107F0B2FA4B
S315080007F0054605F027F9024630350B46DDE90001C6
S3150800080004F0D2FF0AF8015B02460B46CDE9000167
S31508000810DDE90E0105F010FC002865D100206C49C1
S31508000820DDE9002304F0C0FF02460B46DDE90E01B0
S3150800083005F002FC002840F00D81A24500F0EA8090
S3150800084000225E4BDDE90E0105F066F900225B4BDE
S31508000850CDE90E01DDE9000105F05EF9CDE90001FB
S31508000860C2E7DDE90E2305F057F9A046DDF80CA02E
S31508000870CDE90E01DDE9000107F06CFA054605F041
S31508000880E1F8024630350B46DDE9000104F08CFF3D
S315080008900AF8015B02460B46A245CDE900234FF054
S315080008A0000223D1494BDDE90E0104F07FFF024621
S315080008B00B46DDE9000105F0BFFB002840F0CA80C1
S315080008C000204249DDE90E2304F06EFF02460B467E
S315080008D0DDE9000105F092FB70B1C24608F1FF3868
S315080008E01AF8013C302BF8D0374655E0334B05F063
S315080008F013F9CDE90001BDE7DDE90A34CDE9003495
S31508000900159B002BFFF628AE0E2F3FF725AE2E4B74
S3150800091003EBC70393ED007B0C9B002B8DED047B4B
S3150800092002DAB9F1000F64D0DDF80CA0DDE9004564
S31508000930DDE904232046294605F018FA07F00AFAE5
S31508000940064605F07FF8DDE9042305F0E5F80246DA
S31508000950204606F130040B46294604F025FF0AF81E
S31508000960014B039C02460B46AAEB0404A14540F042
S31508000970828004F01BFF04460D46DDE9042305F0DA
S315080009805BFB002865D120462946DDE9042305F0EE
S315080009902BFB08B1F3075CD40299584606F0C2FB54
S315080009A0002301378AF80030129B1F60219B002B19
S315080009B03FF421ACC3F800A01DE400BF00002440AA
S315080009C000001C4000001440F8A300080000E03FA7
S315080009D00000F03FA24B03EBC70393ED007B0C9B93
S315080009E0002B8DED047B9FDAB9F1000F9CDC7FF4B8
S315080009F0C3AE00229B4BDDE9040105F08DF8DDE965
S31508000A00002305F00FFB044600287FF4B5AE3E46EA
S31508000A102546B4E0DDE90A34CDE90034159B002B00
S31508000A2001DB0E2FD6DD089A012A36DC139A82B32B
S31508000A3003F23343099CDDF81880069A01215846CB
S31508000A401A440692079A1A44079206F0D5FB0546F9
S31508000A5086E53E4653469A4613F8012D392A06D1AD
S31508000A60039A9A42F7D13022039901360A701A7806
S31508000A7001321A7038E700227B4B05F04DF8002248
S31508000A80002304460D4605F0AFFA00283FF450AFA0
S31508000A9082E7149BC3F13603CCE709F1FF34099BBF
S31508000AA0A34208DBB9F1000FA3EB04040EDBDDF863
S31508000AB018804B46C1E7099B109AE31A0994DDF89A
S31508000AC0188000241A444B461092B6E7069BA3EBFF
S31508000AD009080023B1E7029E71E5099A029970E5B3
S31508000AE0029672E5089B012B17DC009BABB9019BAC
S31508000AF0C3F313039BB9019B23F00046360D360555
S31508000B0036B1069B012601330693079B01330793EB
S31508000B10109B002B7FF470AD1096012075E500261A
S31508000B20F6E73FF486AD1C33069A1A4498440692B3
S31508000B30079A1A4407927CE50346F4E7049B002BC0
S31508000B402BDC089B022B09DC27E0B9F1000F1DDC22
S31508000B50089B022B1ADD3E46CDF81090049B002B0D
S31508000B607FF40CAE21460522584606F0FDFA0146EA
S31508000B700446029808F0E7FC00287FF7FFADDDF889
S31508000B800CA0312301360AF8013BFBE50D9B3E46D6
S31508000B90CDF81090002B7FF483AD039F2146029871
S31508000BA008F0F5FB039B00F13009049A07F8019B4E
S31508000BB0FB1A9A4240F3CB8000230A220299584630
S31508000BC006F0D2FA0290E9E72A6905F10C010C3021
S31508000BD00232920008F0C6FB01223946584606F052
S31508000BE025FC039BA846054603F1010ADDE9032314
S31508000BF013440793009B03F0010309930AF1FF339B
S31508000C0021460298049308F0C2FB4146069000F17B
S31508000C103009029808F097FC2A46214607465846A6
S31508000C2006F070FCC268014602B3584606F07AFA26
S31508000C30002F3ADA01220299584606F0F7FB2146B8
S31508000C40029008F080FC002803DC29D119F0010F76
S31508000C5026D0B9F1390F1DD132E02846C1E700BFC9
S31508000C60F8A3000800001440000024400A900298E7
S31508000C7008F069FC0A990C90584606F053FA0C9A43
S31508000C805ABB089B53B9099B43B9B9F1390F17D019
S31508000C90002F05DD069B03F1310901E0002F2ADA52
S31508000CA0DDF810A00AF8019B6EE5089B3B4304D1CA
S31508000CB0009B03F00103002BBCD0B9F1390F36D1E4
S31508000CC0049F392307F8013BBA46013F1AF8013C4D
S31508000CD0392B5AD001333B7056E5002F06DB089BAB
S31508000CE03B4306D1009B03F0010313B9002AA1DC9C
S31508000CF0D6E7002AE1DC079B57460AF8019C5345CC
S31508000D002ED000230A220299584606F02DFAA84545
S31508000D1002904FF000034FF00A02414658460BD1A5
S31508000D2006F022FA804605460AF1010A66E7DDF86A
S31508000D3010A009F10109B5E706F016FA294680461A
S31508000D4000230A22584606F00FFA0546ECE7049BEC
S31508000D504FF00008002BCCBF1F460127039B1F44FA
S31508000D6001220299584606F061FB2146029008F0D6
S31508000D70EAFB0028A8DC02D119F0010FA4D1BA4673
S31508000D8017F8013D302BFAD0FEE4039BBB429BD1FA
S31508000D903123039A01361370F6E4219B002B7FF466
S31508000DA025AA014BFFF744BAD6A2000800000000A6
S31508000DB051EC110B43422DE9F047034321F0004E55
S31508000DC0634E4EEAD373B34255EC104B3ED863429A
S31508000DD025F0004AA046A94623434AEAD373B342FC
S31508000DE034D85C4B02460B4403433ED08F175AEA6D
S31508000DF0080807F0020747EAD5772FD05EEA02020D
S31508000E0037D0B64544D0B24533D0AAEB0E0ABAF16C
S31508000E10747F4FEA2A5338DA00296ADA3C3368DAEB
S31508000E209FED3D0B012F50D0022F3DD0A7B151ECBD
S31508000E30100B3BA3D3E9002304F0B6FC3AA3D3E98D
S31508000E40002304F0B1FC41EC100B05E022462B46CA
S31508000E5004F0ACFC41EC100BBDE8F087022F0ED075
S31508000E60032FF9D19FED320BF6E7BDE8F04700F006
S31508000E7077B8B9F1000F05DB9FED2F0BECE79FED77
S31508000E802A0BE9E79FED2E0BE6E79FED2B0BC9E74B
S31508000E90F24507F1FF3721D0022F27D82E4B03EB57
S31508000EA0C70393ED000BD7E71DA3D3E9002351EC45
S31508000EB0100B04F079FC02460B461BA1D1E9000190
S31508000EC004F072FC41EC100BC6E710EE901A53ECD6
S31508000ED0102B01F1004343EC102BBDE7022F15D868
S31508000EE01E4B03EBC70393ED000BB5E79FED0A0B0B
S31508000EF0B2E702460B462046294604F037FF41EC86
S31508000F00100B06F009FF00F02BF88BE79FED0E0B90
S31508000F10A2E700BFAFF30080000000000000000059
S31508000F20075C143326A6A13C182D4454FB2109401E
S31508000F30182D4454FB2109C0182D4454FB21F93FB0
S31508000F40182D4454FB21F9BF182D4454FB21E93FC1
S31508000F500000F07F000010C018A6000830A60008A0
S31508000F602DE9F84F55EC104BC34B25F00046AA4621
S31508000F709E4216D9C14B9E4201D80AD14CB122468F
S31508000F802B462046294604F011FC41EC100BBDE81F
S31508000F90F88FBAF1000F40F3BE809FED9B0BBDE8BA
S31508000FA0F88FB74B9E4200F2B980A3F1DE739E42DA
S31508000FB040F2A0804FF0FF3B22462B4620462946AA
S31508000FC004F0AAFD02460B468046894604F0A4FDB5
S31508000FD006460F468EA3D3E9002304F09DFD8EA393
S31508000FE0D3E9002304F0E2FB32463B4604F094FDC5
S31508000FF08BA3D3E9002304F0D9FB32463B4604F021
S315080010008BFD89A3D3E9002304F0D0FB32463B4687
S3150800101004F082FD86A3D3E9002304F0C7FB324619
S315080010203B4604F079FD84A3D3E9002304F0BEFB14
S3150800103042464B4604F070FD80468946304639469E
S315080010407FA3D3E9002304F067FD7FA3D3E9002338
S3150800105004F0AAFB32463B4604F05EFD7CA3D3E9C6
S31508001060002304F0A1FB32463B4604F055FD7AA363
S31508001070D3E9002304F098FB32463B4604F04CFDC6
S3150800108077A3D3E9002304F08FFB32463B4604F0EE
S3150800109043FDBBF1FF3F02460B464046494661D039
S315080010A0784E04F083FB22462B4604F035FD764B3A
S315080010B006EBCB064FEACB0B5B44D3E9002304F0DF
S315080010C073FB22462B4604F06FFB02460B46D6E915
S315080010D0000104F069FBBAF1000F41EC100BBFF6F2
S315080010E056AF10EE901A024601F1004343EC102B5E
S315080010F0BDE8F88F5CA3D3E900232046294604F00F
S3150800110055FB0022614B04F097FF00283FF452AFCD
S3150800111045EC104B3BE79FED560B38E706F0FCFD18
S315080011205B4B9E4255EC104B2CD8A3F550239E42A0
S3150800113055D90022554B2046294604F035FB4FF079
S31508001140010B06460F462046294600224F4B04F05F
S315080011502DFB02460B463046394604F007FE044688
S315080011600D4629E704F022FB22462B4604F0D4FC60
S3150800117002460B462046294604F016FB41EC100BA6
S31508001180BDE8F88F434B9E421ED20022424B2046B2
S31508001190294604F009FB02460B4620462946144612
S315080011A01D4600223C4B4FF0020B04F0B5FC002212
S315080011B0364B04F0FBFA02460B462046294604F055
S315080011C0D5FD04460D46F7E622462B460020334950
S315080011D004F0CCFD4FF0030B04460D46ECE6224620
S315080011E02B462046294604F0E1FA0022274B4FF009
S315080011F0000B04F0D9FA002206460F462046294677
S315080012004FF08043A3E700BF182D4454FB21F93F54
S3150800121011DA22E33AAD903FEB0D76244B7BA93FDA
S31508001220513DD0A0660DB13F6E204CC5CD45B73FA8
S31508001230FF8300922449C23F0D5555555555D53F54
S315080012402F6C6A2C44B4A2BF9AFDDE522DDEAD3F48
S315080012506D9A74AFF2B0B33F711623FEC671BC3FE8
S31508001260C4EB98999999C93F9C7500883CE4377EE8
S31508001270182D4454FB21F9BFFFFF0F440000F07FEF
S31508001280FFFFDB3F68A6000848A600080000F03FFD
S31508001290FFFFF23F008003400000F83F0000F0BF68
S315080012A00348044B834202D0034B03B118477047E7
S315080012B0F4120020F412002000000000064B074933
S315080012C0C91A891048BF0131491003D0044B0BB124
S315080012D001481847704700BFF4120020F412002096
S315080012E00000000010B5064C237843B9FFF7D8FF75
S315080012F0044B13B10448AFF300800123237010BDDB
S31508001300AE3800200000000088A6000808B5054B86
S315080013101BB105490548AFF30080BDE80840FFF753
S31508001320CDBF00BF00000000F412002088A6000808
S31508001330A3F5803A704700BF174B002B08BF134B25
S315080013409D46FFF7F5FF00218B460F461348144AC2
S31508001350121A07F0EEFF0E4B002B00D098470D4BE4
S31508001360002B00D098470020002104000D000D48EE
S31508001370002802D00C48AFF3008005F077FD200066
S31508001380290006F032FD05F041F800BF000008000C
S31508001390000000000000000000100020F4120020E9
S315080013A0BC38002000000000000000002DE9F843CA
S315080013B0002504460C4E0D4FDFF83490A54201D1A6
S315080013C0BDE8F883D7F8008056F8040B08F1010346
S315080013D03B6004F049FB02460B464846414605F089
S315080013E02BFC0135EAE700BF141300200C1300207C
S315080013F08099000830B597B007F0C5FB002401F0C6
S315080014002FF901254FF0011307A8CDE907440B93DF
S31508001410CDE9095507F0AFFA0223CDE90D330423C8
S315080014200CA80F9410938DF8305007F058F81C4B01
S3150800143001A8CDE90234019507F08EF82A464FF047
S31508001440FF31284607F016FB4FF0FF3007F02AFB5E
S315080014502A461449204607F00DFB4FF0FF3007F0E7
S3150800146021FB2C231193072311A8CDE914441394C7
S31508001470129307F047FB0C4B04940C4C05930C4B4A
S31508001480214604A8069301F0F3FC206804F0ECFA60
S3150800149002460B46074805F0CFFB17B030BD00BF24
S315080014A0000001010082000200007A4410130020A7
S315080014B00024744B9299000807B501A800F09AFB1E
S315080014C010214FF4F872019BC3E90112134A14491B
S315080014D01A62144A99625A6240F2FF321A65124A2F
S315080014E012499A61124AD962126812495A6101224E
S315080014F01963596310499A64C3F8B0100F4983F801
S315080015004C20C3F8B410C3F8B8100D491A64D9634F
S3150800151083F8C22003B05DF804FB00BF00401C46F8
S3150800152000007AC4C3F5E83F0024744B00007A44EF
S31508001530101300200080A2440000A040000048428A
S31508001540CDCC4C3E07B5FFF7B7FF4FF400610E4808
S3150800155000F0CEFB0D4806F033FC0021084600F0EB
S3150800156053FB4FF40065084C00F09CF80028FBD0AC
S3150800157000F09EF8204601A9019500F099FD019812
S31508001580FFF714FFF0E700BF14130020A086010040
S3150800159070B586B083B2032B04460D4605D921489B
S315080015A006B0BDE8704005F047BB41B91E4805F0D6
S315080015B043FB284606B0BDE8704006F0F9BB012398
S315080015C004220621022003F0AFFB0A25002301A806
S315080015D0CDE90135CDE9033304F00106059307F09B
S315080015E091FA640808D086B1284607F09FFA0F4892
S315080015F005F022FB06B070BD7EB1082007F096FA0A
S31508001600022007F097FA0A48F2E7022007F08EFA56
S31508001610082007F08FFA0748EAE7284607F08AFA0B
S315080016200548E5E7A1990008C8990008DC9900086B
S31508001630E4990008EC990008F499000808B51346DF
S315080016400A4601460548006802F0C6FA28B1BDE810
S3150800165008402F21024807F0FFBA08BDF8100020FD
S31508001660FC9900081022024BC3F8A020704700BF5F
S3150800167000E003501022024BC3F8A020704700BFB9
S3150800168000D003500422024BC3F8A020704700BFC5
S3150800169000D003500422024BC3F8A020704700BFB5
S315080016A000E00350014B1868704700BF1433002050
S315080016B00022024B01201A60704700BF1433002035
S315080016C037B5052805461FD0144C1549206807F07C
S315080016D04AFC1449206807F046FC07F0A7FA07F009
S315080016E0A6FA114B114A009311491D23206807F0E9
S315080016F03AFC104A1049206807F035FC2A460F497B
S31508001700206807F030FCFEE701220D4B1A60202204
S315080017100C4BC3F8202403B030BD00BFCC330020E7
S315080017200D9B00080C9A00088B9A0008119A00086D
S315080017301A9A0008269A0008319A0008499A000859
S315080017401433002000E0035007B501F0B1FF05206F
S315080017500B4901F0C5FF052201231146CDE90033E7
S315080017600220002303F072FA2022064B0649074896
S31508001770C3F8242403B05DF804EB05F05DBA00BF96
S31508001780C116000800D00350669A00086F9A000830
S31508001790F8B52DED028B00260D4604469FED0C8A02
S315080017A00C4FAE4202D1BDEC028BF8BD208897EDF6
S315080017B0090A44F8040BB96C00F0B2FE97ED167AE4
S315080017C0C0EE077A67EE887A013644ED017AE8E7D3
S315080017D000007A441010002030B5584B93F8C21018
S315080017E093F8C440D3F8A020002972D093ED0A7A62
S315080017F0D3ED0B7AB4EEE77AF1EE10FAC4BF002106
S3150800180083F8C010012C12D0022C26D05CBBDFED69
S315080018104C7A93ED0C7ADFED4B6A37EE677AC7EEB2
S31508001820267AFCEEE77A0121C3ED2F7A19E0996B47
S31508001830B2EB510F17D30221DFED417A93ED0D7A02
S31508001840DFED406A37EE677AC7EE267AFCEEE77A6E
S3150800185083F8C410C3ED2F7A05E0996B914202D83C
S31508001860052183F8C41093F8C1100132C3F8A020EB
S3150800187093ED2B7AD3ED297A93F8C020002953D01B
S315080018801AB1D3ED2A6A77EEE67A37EE677A00223E
S3150800189083F8C120D3F8BC2083ED2B7A910107EE9B
S315080018A0901AF8EE677A77EE877AFCEEE77A17EE03
S315080018B0903A994240F6FF7188BF03F1FF333F2AF9
S315080018C028BF3F228B4228BF0B4643EA02330360F8
S315080018D030BD93F8C010042CC5D801A555F824F0DE
S315080018E00F180008F5180008FD180008191900084F
S315080018F05B180008996BB2EB910F9BE79C6BC4F3DE
S315080019005D049442AFD8B1FA81F10324490983F8FA
S31508001910C44083F8C010A6E7996B01EB4101B2EB0E
S31508001920910FA0D3042187E71AB137EE877A0122EF
S31508001930AEE7D3ED2A6A77EEE67AF6E710100020CE
S3150800194000004843998809422DE9F04F8BB09D4C19
S31508001950D4ED0A6AD4ED0B7A77EEE67A94ED2E6A20
S3150800196037EEA77AC7EE067AFCEEE77A94F8C22035
S3150800197017EE903AC4ED0E7A12B95B00023BA363E8
S31508001980A36BB3F5805F03D98F4805F055F9FEE7D9
S3150800199094F888008D49012837D1A56E0B60A36895
S315080019A0E26F5B1B9B1A0F2B40F30881DFED887AE9
S315080019B0D4ED2D5A85EEA77AB5EEC07A854D083B4B
S315080019C0DB102B60A56FF1EE10FA2A44824D84EDE8
S315080019D0297A2A6002EB8302804BC6EE275A1A60E0
S315080019E04FF0000386EEA77A7D4AC4ED2A5A1360A3
S315080019F0D4BF1A46012284ED2B7A84F8C430C4F881
S31508001A00A030784B84F8C02018700D68002D69D076
S31508001A10704BDFF8CC81D3F800902B464D4528BF94
S31508001A204B460193EB1A0B60D8F80030002B5DD1BA
S31508001A30694B1F684FF0000B3B466A4E019A96F8B1
S31508001A4000A0013A5A4553D84D4507EB820B7FD87B
S31508001A5005A8FFF7C1FE059BBAF1000F23F07F43E7
S31508001A6043F0484306934FF00A030CBF4FF0734206
S31508001A704FF07A420BF10406079326F07F4323F4CE
S31508001A808023134343F480230893574B0422584674
S31508001A9006A9099306F0CFFD0023CDE9063308937E
S31508001AA04FF001430422304606A9099306F0C3FD08
S31508001AB0D8F80030B3FA83F35B09C8F8003094F815
S31508001AC088307BB100234D4584F8883071D80023CF
S31508001AD004224648C4E92472C4F88C3084F8983045
S31508001AE006F0BDFD00200BB0BDE8F08F3B4BA0E72C
S31508001AF01A1D05A8CDE90223FFF76EFE059ABAF16D
S31508001B00000F22F07F4242F0484206924FF00A0246
S31508001B100CBF4FF073414FF07A41029B079223F0B6
S31508001B207F4222F480220A4342F48022039B0892D1
S31508001B302D4A1846099206A9042206F07CFD337838
S31508001B400BF1010BB3FA83F35B093370029B75E75C
S31508001B50D8F800305BBB214B1B6805A80193FFF73B
S31508001B603BFE059ABAF1000F22F07F4242F0484246
S31508001B7006924FF00A0207920CBF4FF073424FF0DD
S31508001B807A42019B584623F07F4323F4802313436C
S31508001B9043F480230893164B042206A9099306F0FA
S31508001BA04AFD3378B3FA83F35B09337080E70A4B4F
S31508001BB0D2E7FFF7C9FE002889D094E76FF007003F
S31508001BC091E700BF101000209D9A000828330020D6
S31508001BD09988093F24330020203300201C33002035
S31508001BE018330020E4120020010000C79C100020D2
S31508001BF0010000A718B1034B0360002070476FF07F
S31508001C00010070471010002000B593B0032847D88C
S31508001C10DFE800F0024D595E0A2006F0A1FF0A2807
S31508001C205DD8304B93F85420002A3DD093F8C42051
S31508001C30052A39D093ED056AD3ED0F7ADFED2A6AC6
S31508001C4066EE275A0320002185EEA67A0122BCEE0D
S31508001C50C77ACDE900010221B7EE005ACDE9021292
S31508001C60049117EE101A93ED2C7AC5EE075A9FEDDC
S31508001C701F7A55EE877A27EE867AC7EE267AFCEE25
S31508001C80E77A17EE903A0139043B68468DF8442006
S31508001C900B920F9109920D930A920E9306F019FD75
S31508001CA0002013B05DF804FB6FF06300F9E70A2023
S31508001CB006F056FF0A2812D8002006F0A9FD0020D3
S31508001CC006F0A6FDECE70122064B83F8C320E7E7FA
S31508001CD000210120FFF798FF00F0B4FDE0E76FF060
S31508001CE00800DEE71010002000007A440000FA43DE
S31508001CF02DE9F04FADB005460A20894606F030FFBB
S31508001D000A2800F2CA8101224FF08073CDE9052323
S31508001D100023B14C05A8079306F01EFC94F854302E
S31508001D201BB12378012B40F00481002D00F0B88107
S31508001D30B9F1000F00F0B481236C0DF13008002BC7
S31508001D4040F05E81636CA3650023E365002649467F
S31508001D50284684F8546000F04BFA012000F068FA2F
S31508001D6031469E4806F04FF99D4B08A80893013B5B
S31508001D7009938DF82960ADF82A608DF82C6006F075
S31508001D8074F994ED0C7ADFED977A032337EE677AC8
S31508001D90DFED956A189340F20113C7EE267AADF87F
S31508001DA06830236CD4ED0A6AB3429FED907AFCEE54
S31508001DB0E77A179342F2342318BF1423199317EEC0
S31508001DC0903AC6EE877AFDEEE77A17EE902A4FF03C
S31508001DD002094FF0140A4FF4807B9BB24046ADF8D7
S31508001DE04C3002EB8313ADF84A30CDE91596CDE9B0
S31508001DF00C66CDE90E66CDE910A61496ADF848B086
S31508001E0006F0C9FA44211BA806F057F821231B93AC
S31508001E10A36C01271D9394F84C301BA81E930A2324
S31508001E20CDF87090CDE91F368DF88C702197ADF8F6
S31508001E30887006F03EFB4FF0014000F0C3F93046CB
S31508001E4000F0F6F904A903A800F0E6F9054600280B
S31508001E5040F01F815146664806F02FF8049BA26899
S31508001E609A4240F2148103222266626860486266DA
S31508001E70039AA366226784F86C7006F0F0FBD4ED2B
S31508001E80066A94ED077A94F84C30C6EE877A1D9365
S31508001E900A2341461BA8CDE91E35CDED227ACDE9A8
S31508001EA01B7700F077FA384600F0C2F9042006F0EE
S31508001EB007FC3946802006F0A6F84FF4C86000F003
S31508001EC081F93946584606F09EF80C9820F04040AD
S31508001ED000F078F929464FF4C07006F094F82846C1
S31508001EE006F0EEFB06F02FFE08A904A800F094F908
S31508001EF00546304600F09CF9002D40F0CA80514650
S31508001F003C4805F0DAFFA16E089AA368881898423B
S31508001F1080F0BD80636E37480B44A367049BC4F802
S31508001F207490C4F88430E26784F8807006F097FBF2
S31508001F3025700021084606F0FDFA00231E93236D3E
S31508001F4001261F9302231BA8CDE91C338DF86C606C
S31508001F5006F0C5FA4FF0FF3006F0A4FD84F8886055
S31508001F60FFF7F2FC0546002840F0938084F86C00E1
S31508001F701F4806F074FB304606F041FB206E06F05B
S31508001F8051FB4FF40041012006F091FD0028F8D0DE
S31508001F9000264FF4004006F085FD164884F8806058
S31508001FA006F05DFB144884F8986006F058FB304646
S31508001FB006F025FB314642F2640000F0DDFA012006
S31508001FC006F01DFBFFF774FB0321304606F047F8C1
S31508001FD0012384F854305CE010100020E0FF39003B
S31508001FE00101010000004843998809429988093F80
S31508001FF070100020841000209C1000200000003A79
S315080020001BA8382105F059FFD4ED077AB5EE007AFA
S31508002010F3EE066A27EE877ACDED1E7AC7EE267AA4
S315080020201FED0A7A67EE877AB0EE087A0023012256
S31508002030A16967EE877A1D910921CDE923232892A4
S315080020408DF89C20226ACDE925131C92226C414604
S315080020501BA8CDE92123CDED1B7A1F938DF880307F
S3150800206000F00AFC98E803000F4B83E803000C987D
S3150800207003F0FAFC06460D980F4603F0F5FC3246C7
S31508002080CDE900013B46094804F0D6FD5EE66FF04F
S31508002090070528462DB0BDE8F08F6FF00805F8E76C
S315080020A06FF00105F5E700BF68100020E89A000800
S315080020B0F8B504460A200E4606F052FD0A2846D808
S315080020C0002006F03BFD0020306006F001FD820589
S315080020D005461CD415F0007722D006F036FA0146DC
S315080020E00546204605F045FF4FF0007006F0DAFC7D
S315080020F0184B93F8C330012B02D1002006F088FB59
S3150800210029462046FFF744FB3560002007E04FF4D8
S31508002110007006F0C7FCFFF717FC0028DAD0F8BDF8
S315080021202B04F2D506F011FA05464FF4004006F0E6
S31508002130B9FC2946204605F01CFF29462046FFF72C
S3150800214027FB394635600120FFF75EFDDDE76FF0B6
S315080021500800E4E71010002030B50A4BC0F38700EA
S31508002160D3E9032400239A4202D16FF0060005E062
S3150800217014F82350854202D100200B6030BD01338C
S31508002180F1E700BF2C33002030B50D4B5A69DC68E7
S315080021905D681444A5420ED91C698008251F1D6177
S315080021A004F8040C54F8040C013261F31F2044F8B7
S315080021B0040C5A6130BD6FF003029A61FAE700BF5A
S315080021C02C33002010B5094BD9685A695C680A4453
S315080021D0944295BF6FF003029A689A6142F821000B
S315080021E082BFDA680132DA6010BD00BF2C330020E6
S315080021F001290DD90022074BC3E9011001F18041DD
S315080022000139C3E9052200EB81001861DA601A700A
S31508002210704700BF2C330020044B08B19A6802604F
S3150800222009B1DA680A609869704700BF2C33002044
S31508002230034B18B100220120DA609A6118707047C2
S315080022402C33002030B587B0C3680446012B0D46F1
S3150800225020D10368022B33D10522234B18681B793A
S3150800226002908DF80C30214B18681B7904908DF874
S3150800227014300DF10703207902A905F0C1FD78B3E2
S3150800228001209DF8073018336B4413F8083C2B706F
S3150800229007B030BD23BB0368022BDDD1144B1A8867
S315080022A09B78ADF808208DF80A30124B1A889B786F
S315080022B0ADF810208DF8123003220DF10703DAE786
S315080022C00D4B062218689B880290ADF80C300B4B14
S315080022D018689B880490ADF814300DF10703CAE717
S315080022E000202870D4E700BFF49A0008FA9A00087C
S315080022F0009B0008049B0008089B00080F9B000829
S3150800230030B587B0C3680446012B0D461CD1036857
S31508002310022B28D140F60733ADF8083040F20A53AD
S315080023200222ADF810300DF10703207902A905F055
S3150800233067FD40B301209DF8073018336B4413F846
S31508002340083C2B7007B030BDEBB90268022AE1D110
S3150800235040F60933ADF8083040F60F23ADF81030D3
S315080023600DF10703E1E7094B062218689B880290DE
S31508002370ADF80C30064B18689B880490ADF81430FD
S315080023800DF10703D1E700202870DBE7169B00084C
S315080023901D9B0008F0B59BB0002484460F465F4D90
S315080023A00DAE0FCD0FC60FCD0FC60FCD0FC655F804
S315080023B0043B0294336003AE95E80F0086E80F00ED
S315080023C03C60644634B3DCF80C300B2B22D8DCF8BE
S315080023D00820022A1ED8DCF8101003291AD8DCF8BF
S315080023E00000042814D8DFE800F003173273490008
S315080023F01422DCF804309CED077A534307EE903A32
S31508002400F8EE677A67EE877AFCEEE77ACDED027A20
S31508002410029B3B601BB0F0BD1421DCF80430DCEDF8
S31508002420076A4B431AA901EB820252F85C2C28333F
S315080024305343143307EE903AB6EE007AF8EE677A0D
S3150800244007EEA67ABCEEC77A8DED027AE0E71AA9FE
S3150800245001EB8303DCF8042053F8343C604602FBA6
S31508002460033301220133CCE9002302A9FFF792FFC7
S3150800247002232360029B0F330293C9E79CF81810C6
S3150800248007A80A910DF10601CDE90723FFF7DAFE41
S31508002490054618B19DF80650013DEDB20DF107014C
S315080024A007A8FFF72DFF20B19DF80730013B2B4405
S315080024B0DDB202232360636820462B44636002A9C9
S315080024C0FFF768FF0423236063685B1B63609FE76D
S315080024D0DCF81430032B09D8DFE803F00F0D0216D9
S315080024E000232360204602A9FFF754FF0323236035
S315080024F0029B1933C0E70123F3E79CF81930002B38
S315080025000CBF04230223ECE701231944CCF800305E
S31508002510DCF804308B40CCF80430E3E7B49B0008C1
S31508002520A0F5004007EE900A0139F8EEE77A03298C
S315080025300CD8DFE801F002071619B7EE087AC7EEDD
S31508002540877A03E0B6EE007A67EE877A67EE807AD6
S315080025509FED077A9FED070A67EE877A27EE800ACE
S315080025607047B5EE007AEFE7B2EE027AE7E700BF0A
S3150800257000000038110E813FF7B5274F04463B7817
S315080025800E46012B26D1B0F5085F04D36FF004037D
S31508002590BB6103B0F0BD01A9FFF7DEFDA50505F097
S315080025A0FE4526F07F431D4345F0004568B9019A6C
S315080025B03B6953F8221066F31F2143F82210284678
S315080025C003B0BDE8F040FFF7FDBD31462046FFF7F2
S315080025D0DBFDF4E7FFF746F8202005F03CFC204633
S315080025E005F01BFCFFF746F8FFF73CF82D2005F031
S315080025F032FC42F21403A4F58054A4B29C4207D8D4
S31508002600304605F01AFC03B0BDE8F040FFF732B8D3
S31508002610B0B205F002FCF6E72C33002037B50F4DB3
S3150800262004462B78012B14D101A9FFF795FD48B173
S31508002630204605F01BFC01462046FFF7A5FD084687
S3150800264003B030BD2B69019A53F82210C1F3172144
S31508002650F5E703B0BDE8304005F008BC2C33002090
S3150800266030B59DB0002470222049684606F07AFEEF
S315080026701F4B6D46C3E90544DC601C70FEF7FAFF84
S31508002680696828880134FFF777FF0E2C05F10805DD
S31508002690F6D140F20440FFF7C1FFA0F5AA43013B7B
S315080026A0012B014606D9B0F5AA4F1CD0114804F0F3
S315080026B0C3FAFEE70123104C1048237004F0BCFA55
S315080026C021780F4A0F4B104800290CBF11461946AE
S315080026D004F0B2FA0123022200210C481DB0BDE81D
S315080026E0304004F0A9BA0023E5E700BF609C000863
S315080026F02C3300202A9B0008AF3800205C9B00087A
S31508002700279B0008249B00086A9B0008879B0008F3
S315080027101FB5074B68460093013B019301230293BB
S3150800272000238DF80C3005F0A0FC05B05DF804FB1D
S3150800273001010100FFB40A2905460B4627D80229DC
S3150800274009D90831C90011431DB342F2F40004B097
S31508002750F0BCFFF711BF6E460F4C04F1080C374664
S3150800276020686168083403C764453E46F7D1206887
S31508002770A1793860A088042AB880B97107D803EB14
S31508002780830310336B44134413F8101CDAE7F8215B
S31508002790D9E742F2F800DAE7D09C0008F5EE400ADD
S315080027A0124B1B78012B0CBF1E221A22F1EE10FACF
S315080027B01AD00123934007EE903AF8EEE77A27EE0F
S315080027C0800AB6EE007AC0EE207A77EE877AFCEEBB
S315080027D0E77A1A2A064817EE903A18BF6FF07F4034
S315080027E0984228BF1846704700207047AF38002027
S315080027F0FFFF0F0010B50446042006F053F9012127
S315080028000F4805F000FC012005F0DAFA0421012042
S3150800281006F04DF950B14FF40250FFF7FFFE04469B
S315080028200021074805F0EFFB204610BD23685A1C17
S31508002830E9D0013B2360002BE5D11C46F0E700BF39
S315080028400001010000B595B00D2101A805F035FB82
S315080028503C2105A805F031FB01A805F006FC05A8F2
S3150800286005F099FD034806F069F906F06CF915B00C
S315080028705DF804FBE5470A002DE9F04F2DED028BC4
S31508002880E9B00446AD4E6C22884630A8AC490BAD7B
S3150800289006F068FD0FCE0FC533682B60002C00F0DC
S315080028A0E48294ED018AB5EE408AF1EE10FA00F062
S315080028B0D982A3695A1E192A00F2D482B8F1000FE8
S315080028C000F0D38294ED037ADFED9E7AB4EEE77AD0
S315080028D0F1EE10FA68AA02EB830318EE100ACCBFD1
S315080028E00126002653F8E07C03F0BEF80022964B3A
S315080028F003F012F9824638468B4603F093F80B46E6
S3150800290002465946504603F031FA03F09FFB9FED05
S315080029108F7A06EE900AC6EE877ADFED8D6A67EE45
S31508002920A67A77EEA77AFCEEE77A17EE905A40F287
S31508002930165301356D089D4228BF1D4607EE105AED
S315080029409FED846AB8EEC77A27EE067A87EE266A7E
S31508002950DFED816A07EE907A78EE266AF8EE677AF6
S3150800296086EE267A27EE277AC7EE276A9FED7B6AD8
S3150800297066EE886AC6EE267AF2EE026AF4EEE67A21
S31508002980F1EE10FAD4ED008A80F2B081F1EE005A29
S31508002990F4EEE57AF1EE10FA80F2AB81F0EE005A29
S315080029A0F4EEE57AF1EE10FA80F2A681F7EE085A0F
S315080029B0F4EEE57AF1EE10FAACBF4FF0010A4FF0EB
S315080029C0000AC6EE077AF4EEE67AF1EE10FA80F21D
S315080029D09681B1EE007AF4EEC77AF1EE10FA80F23B
S315080029E09181B0EE007AF4EEC77AF1EE10FA80F231
S315080029F08C81B7EE087AF4EEC77AF1EE10FAACBF1E
S31508002A004FF001094FF000090BAB03EB890203EB0A
S31508002A108A0392ED007AD3ED007A4FF4005087EEE0
S31508002A20278AFFF7FBFD029043F20C00FFF7F6FD3D
S31508002A30012206210190104606F01CF84FF0FF30DF
S31508002A4006F030F80021464805F0DDFAFFF760FE8B
S31508002A5044211FA805F031FA032301272493636A4A
S31508002A600C222393236A04F1280186F001062AA87A
S31508002A7022932596ADF898708DF89C7006F072FC36
S31508002A801FA805F016FD3C2110A805F016FA2369C3
S31508002A9000261A1E1893E36918BF01221C9340F2F8
S31508002AA00113ADF878300423CDE9102711221A93C3
S31508002AB0A369CDE914261B93237D2A4ABB4214BF7A
S31508002AC04FF4A0734FF4B0731692202210A8ADF8F5
S31508002AD05C201D93CDE91277199605F05CFC7421EC
S31508002AE04BA805F0EAF923690522B3420CBF3B4619
S31508002AF002235F934FF01F0362934FF00B03CDE958
S31508002B006432CDE966324FF0FF03F5EE408A519301
S31508002B1014BF812341234FF4106BCDE94B37F1EEF7
S31508002B2010FA4FF40073CDE94F66CDE94D3B8DF8A9
S31508002B308C61609640F0EC8016E000BFB89D0008F6
S31508002B404C9D00080050C34B000099400080094581
S31508002B5000E0FF440000FA440000C84200803B45FC
S31508002B60E0FF3900000100084FF0FF324BA8099238
S31508002B705E955296ADF84C6105F076FB05F500605A
S31508002B8005F084FB39464FF4994005F03CFA4FF4BA
S31508002B9000734BA8CDE94D3BCDE94B7705F0BAFA62
S31508002BA04FF47A7005F00CF9242214211FA8CDE9F8
S31508002BB01F21CDF884A005F0F8FB322005F000F9B6
S31508002BC009A8FFF717FE03902069CDF88490B04254
S31508002BD00BBF0225032521202220CDE91F051FA8AA
S31508002BE005F0E3FB322005F0EBF809A8FFF702FE33
S31508002BF0054620694FF40073B04214BF8120412076
S31508002C00CDE94B074BA8CDE94D3B05F083FA4FF4C8
S31508002C107A7005F0D5F8242214211FA8CDE91F21C2
S31508002C20CDF884A005F0C1FB322005F0C9F809A843
S31508002C30FFF7E0FD039BCDF88490C01A2369CDE920
S31508002C400506B3420BBF02220322212322231FA813
S31508002C50CDE91F3205F0A9FB322005F0B1F809A825
S31508002C60FFF7C8FD401BCDE90706089B05A95B428F
S31508002C700893069B07A85B42069305F022F994ED94
S31508002C80017AC7EE087A27EE800A67EEA07A636BA8
S31508002C908DED090ACDED0A7A002B40F0D88088ED33
S31508002CA0000AC8ED017A019B13F0020203D1022142
S31508002CB0012005F0DFFE019B13F0040203D1042175
S31508002CC0012005F0D7FE00244FF400500299FFF7C3
S31508002CD053FC4BA8CDE94B44CDE94D4405F01AFA0F
S31508002CE0204669B0BDEC028BBDE8F08F4FF0040AB0
S31508002CF067E64FF0030A64E64FF0020A61E64FF012
S31508002D00040981E64FF003097EE64FF002097BE6E7
S31508002D10D4ED020A94ED000A5B95FFF73FFD022504
S31508002D205A904BA8CDE95C665E965295ADF84C6113
S31508002D3005F09AFA284605F0B5FE39464FF4406084
S31508002D4005F061F9642005F03BF8242314221FA836
S31508002D50CDE91F32CDF884A005F027FB39464FF49C
S31508002D60814005F050F9192005F02AF839464FF444
S31508002D70014005F048F90221012005F098FE0028D7
S31508002D80F9D000214CF2801005F03DF9022005F03B
S31508002D9089FE42F27800FFF741FC0590064642F2AA
S31508002DA07C00FFF73BFC23690690002B0BBF022231
S31508002DB003222123222305461FA8CDE91F32CDF879
S31508002DC0849005F0F2FA01214FF4814005F01BF9D1
S31508002DD0192004F0F5FF01214FF4014005F013F91D
S31508002DE00221012005F063FE0028F9D000214CF2EB
S31508002DF0801005F008F9022005F054FE42F278002A
S31508002E00FFF70CFC0746079042F27C00FFF706FC2A
S31508002E10B30342BF6FEA86366FEA96360596A9036C
S31508002E2042BF6FEA85356FEA95350695BA0342BF04
S31508002E306FEA87376FEA97370797830344BF6FEAC6
S31508002E4080336FEA9333089048BF08930DE709A8C3
S31508002E5005F05AF809A888ED000A05F06DF888ED1E
S31508002E60010A20E76FF001003BE76FF0020038E740
S31508002E702DE9F0412DED028B9EB00E460446002842
S31508002E8000F0BA80002900F0B78090ED017AF7EEDD
S31508002E90007AB4EEE77AF1EE10FA00F1B08004A8F1
S31508002EA005F092FB43F20C00FFF7B8FB012201255F
S31508002EB000274FF400418046104605F0DBFD4FF031
S31508002EC0FF3005F0EFFD01A8CDE90155039705F0A0
S31508002ED043FB4C4B07A80B93236807970893099560
S31508002EE08DF8285005F0BBFB236807A82B440893E8
S31508002EF0454BB6EE008A0B93079505F0B0FB94EDAB
S31508002F00017ADFED427A07EE278A0423BCEEC88AE7
S31508002F10199318EE103A053B159303231A934FF0AD
S31508002F20FF330CA81693CDE90D758DF874700C95C2
S31508002F3005F0CFFB4FF4004005F0B4FD284605F038
S31508002F4067FC4FF40041012005F0B1FD0028F8D0D8
S31508002F5005F0BBFB0746002005F05AFC04220020BA
S31508002F60114605F069FC236807A801330893022374
S31508002F700993274B0B9305F072FB012005F03FFBE5
S31508002F804FF4004005F08EFD012005F041FC4FF49A
S31508002F900041012005F08BFD0028F8D005F095FBCF
S31508002FA04FF400410546002005F081FD002005F09C
S31508002FB02FFC04A805F0D0FA4FF400410120C8F30D
S31508002FC0C03205F057FD4FF4004005F06BFDD4ED17
S31508002FD0027AB8EE488AED1B28EE278A07EE905A41
S31508002FE0F8EE677A88EE277A002086ED007A1EB01A
S31508002FF0BDEC028BBDE8F0816FF00200F7E76FF0D9
S315080030000100F4E7B09B0008AC9B000800000042F2
S31508003010A49B000810B51E4C01F024FA236F23F078
S31508003020070343F00203236705F0F5FED4F82031C1
S31508003030002023F0030343F00103C4F82031D4F839
S31508003040243123F0070343F00103C4F82431D4F8EC
S31508003050403123F0030343F00103C4F84031D4F8A8
S31508003060603123F0030343F00103C4F86031D4F858
S31508003070403223F0030343F00103C4F84032D4F886
S31508003080003223F0070343F00103C4F8003210BDF1
S3150800309000800050024B0349186800F0F7BB00BFD8
S315080030A0F8100020D810002008B50122074B1A7026
S315080030B00022074B1A700422064B1A701F22064B71
S315080030C01A7002F0C5F8054B186008BDE712002013
S315080030D0B0380020E6120020E5120020CC3300208C
S315080030E00348044A0449121A921005F0A2BD00BF0B
S315080030F090A9000890A90008BC38002008B500F07F
S315080031002FF8FFF7EDFF124B12498B4212D300201E
S31508003110114B12498B4218D3FEF70EF9186850F86E
S315080031202240586840F82240013298688242F5D316
S315080031300C33EAE70022F8E71C6844F8220001325B
S315080031405C68A242F8D30833E4E70022F8E700BF38
S3150800315090A600089CA600089CA600089CA6000845
S3150800316010B54FF400414FF0FF30114B114A9A60E9
S31508003170D3F8882042F47002C3F888200E4A916674
S3150800318001F1884101F5005210660C48506602208C
S31508003190C3F8D000BFF34F8FBFF36F8F08244FF4E7
S315080031A040330748C0F88041D36004600B6110BD06
S315080031B000ED00E000000008009000507FFF0700C7
S315080031C000E100E0014B1868704700BF00110020BD
S315080031D0084B1B6F03F00703022B04D0032B05D003
S315080031E0012B05D0FEE7044B18687047034BFBE735
S315080031F00348704700800050001100200811002085
S31508003200002D310108B5FFF7E3FF054B1B6FC3F32C
S3150800321003330133B0FBF3F0024B186008BD00BF5F
S3150800322000800050FC1000200048704700B4C40419
S31508003230014B1868704700BF081100200048704706
S31508003240002D3101014B1868704700BF041100209A
S315080032500346054A0549106803448B428CBF4FF064
S31508003260FF301360704700BF0C11002000000120DA
S3150800327008B501213A2000F0BDFE012304220321EE
S31508003280002001F051FD002005F019FE0122334B04
S315080032903349C3F84424334BD3F8FC2012F0807F1B
S315080032A046D1D1F8803023F0030343F00103C1F877
S315080032B080304FF4607000F0C7FE2A4B00F5D52029
S315080032C0D3F8F02000F2FC4042F00102C3F8F020E7
S315080032D0D3F8FC2042F08072C3F8FC20224AA3F5FA
S315080032E05D431A60214B0222B0FBF3F0204B0138F4
S315080032F01861C3F8F0204FF48072C3F804234FF026
S3150800330060431C4A0020C3F8B02F1B4AC3F8802E1E
S31508003310D3F8002E42F48072C3F8002EFF2283F8F9
S315080033202020D3F8002E22F48072C3F8002E08BDA0
S31508003330D3F8FC2022F08072C3F8FC20D1F8802054
S3150800334022F0030242F00102C1F88020D3F8FC20E3
S3150800335042F08072C3F8FC20ABE700BF00D00350F0
S315080033600080005000ED00E0FF030040F8590D0012
S31508003370000004E055CEACC50900010030B54FF099
S315080033806043D3F8802ED20715D501240B4D84400F
S31508003390D5F8FC2042F08072C5F8FC20D3F8002E40
S315080033A02243C3F8002E53F82020002AF0D003F851
S315080033B02010002030BD1120FCE700BF00ED00E022
S315080033C02DE9F04F85B09A46554B06461B780F46B1
S315080033D01546DDF83C909DF844B0DDF85080002B8A
S315080033E000F09780072A00F296800E9B002B00F0CB
S315080033F09280B9F1000F00F08E80129BB3F5006F32
S3150800340000F38980012803D1109B002B00F08380EC
S31508003410444B03EB05131B7B002B7ED0424C10223A
S315080034200021684605F085FF04EB45141022A7BB6A
S315080034303946204605F07DFF43F210036380BBF151
S31508003440000F03D1E37843F00303E370364A0E9B7B
S3150800345002EB451CCCE90193129B6901581E9DF8A5
S315080034604C30C0F30A0003F003039B0643EA001E30
S3150800347053582E48012E00EA03004EEA0003CDF801
S3150800348000A0535017D0B8F1000F2ED19CF8023087
S3150800349068F304138CF8023027E00021204605F073
S315080034A048FF4FF444736380BBF1000FCED1E37835
S315080034B043F03003C9E713230CF1100ECCF80C3097
S315080034C09CE80F008EE80F006FF00301DCF81C2063
S315080034D0109B61F39F02012FCCF81C20CCF8143006
S315080034E003D1CCF81890CCF8043000270D4A2901EE
S315080034F002EB051342F80180159A28465A60694678
S3150800350022469F605E7301F0A1FC384605B0BDE80F
S31508003510F08F0748FAE70748F8E70748F6E700BFD5
S31508003520B1380020D0340020D03300200F80FFF3BC
S31508003530028000F0018000F0078000F038B5124BD9
S3150800354005461B78DBB1E0B105F081FC0F4A002384
S315080035501146147B54B92B6001251A0101EB03139C
S315080035601D738C5005F079FC204638BD0133082BB5
S3150800357002F11002EDD105F070FC0548F5E70548A3
S31508003580F3E70548F1E700BFB1380020D034002042
S31508003590048000F0028000F0018000F013B5154B9E
S315080035A01868002301908DF8043005F050FC124B82
S315080035B01C7824B105F051FC104802B010BD012258
S315080035C01A7005F04AFC0E4B01A81C731C7783F889
S315080035D02C4083F83C4083F84C4083F85C4083F8E1
S315080035E06C4083F87C4008238DF8073001F0E4FB33
S315080035F02046E2E7CC9D0008B1380020038000F0A1
S31508003600D03400202DE9F041174B1F6D5B6D1F402C
S3150800361000D5FEE701260025144CDFF8588037420E
S3150800362018D02368C8F85060A3B1A16828460131AC
S315080036306268A1609847637B012B0BD150B90C4B8C
S3150800364003EB45131A7B60F341021A731A7F60F382
S3150800365041021A770135082D4FEA460604F110048F
S31508003660DDD1BDE8F08100BF00000450D034002051
S31508003670D03300200020045070B5012504460B4EB7
S3150800368004B970BD94FAA4F0B0FA80F005FA00F314
S3150800369006EB001224EA03045368002BF0D0117BD2
S315080036A011B191689847EBE79847E9E7503500204C
S315080036B008B51E2000F00AFF28B14FF08042074BDC
S315080036C0C3F880211A601F2000F000FF28B14FF0D0
S315080036D00042024BC3F880211A6008BD00E100E0F1
S315080036E038B505460C4605F0B2FB0022044B03EB41
S315080036F005135C601A73BDE8384005F0AEBB00BF21
S3150800370050350020074BD3F82404D3F8202403F5BA
S315080037100053104000F0553020F05020C3F8200424
S31508003720FFF7AABF00C00350074BD3F82404D3F809
S31508003730202403F50053104000F0AA3020F0A02002
S31508003740C3F82004FFF798BF00C0035038B51446E5
S3150800375005F07DFB0023A36484F84C302364237FA3
S315080037600546012B03D104F1600001F063FE636B8B
S315080037701BB100212046E26B9847284605F06DFBF1
S31508003780A36D002B03DCBB21034805F065FAA36D86
S315080037900120013BA36538BDD09D00082DE9F047FF
S315080037A086B01E46002380F854300E9B04464363B9
S315080037B090F85C3088469146C663002B37D14FF4A3
S315080037C0406305686B614369092B03D905F12C032E
S315080037D0443506E00BBF05F1200305F1240338350F
S315080037E03C3567694FF0010A082F94BF0027012767
S315080037F0A26D0132A265124A0494CDE902720196BD
S31508003800CDF800A04A46216BA06A05F04BFA0023C2
S31508003810CDE90167CDE90333CDF800A043462A4632
S31508003820E16A606A05F024FA06B0BDE8F087012B64
S31508003830FAD1006805F0BFFA256805F13C03C7E729
S315080038404D37000838B50546B0B1B9B1B2B1B2F5D1
S31508003850006F13DC05F0FBFA95F84C3003F0FF0413
S315080038601BB105F0FAFA064838BD012385F84C3035
S3150800387005F0F3FA2046F7E70248F5E70248F3E7CA
S31508003880032000F0012000F0022000F02DE9F041AD
S315080038908EB0BB4BD1F80080054698450C4606AF5E
S315080038A040F0B580BC46B74E05970FCEACE80F0082
S315080038B096E80F0010368CE80F000FCE0DF1040CB9
S315080038C0ACE80F00002D00F08281842200212846F2
S315080038D005F02FFD0023AB652368434503D0AA48AE
S315080038E00EB0BDE8F08154222B6001232A652746D5
S315080038F04FF48812A54885F85C302E1DC5E90B02E1
S315080039000FCF0FC697E80F0086E80F00637E012BDE
S3150800391008BF8DF81D30A37E33B1012B6FD0022B63
S3150800392002D0032BDBD10623227E8DF81230012A22
S31508003930E36866D1964A93428CBF04230523059A09
S31508003940537700238DF81130924B01213A200393C7
S3150800395000F050FB0121286D00F04CFB2369DA1FAB
S31508003960092ABCD8063B8DF81030237E2BB9E37E96
S31508003970B3FA83F35B098DF81C300121284605F05C
S31508003980B0F90028ACD1237A227942EA0342824B65
S31508003990C3F8A424617A627942EA0142C3F89C24F6
S315080039A0A17AA27942EA0142C3F8A024E27E62BB68
S315080039B0E17AE27942EA0142C3F890241D2220689E
S315080039C0C3F88C2401A901F005F805F040FA734BF9
S315080039D01A78002A40F0F08001221A7005F03DFAA4
S315080039E001F0EEFCFFF7DAFD002105F12400FFF7F0
S315080039F0A5FD0146002800F0E280694870E7042327
S31508003A0092E700228DF834209FE71C22D7E73E462E
S31508003A10DFF8A0C1BCE80F000FC69CE8070086E8DF
S31508003A200700002D00F0D3800026842200212846B6
S31508003A3005F07FFC22685B49AE658A420AD05A4B7C
S31508003A409A427FF44CAF4FF0290C4FF4A02101267F
S31508003A50564804E04FF0280C4FF4802154480023C0
S31508003A60A64685F85C30C5F850C005F1040CC5E9D2
S31508003A700B012A60BEE80F00ACE80F009EE80F00B5
S31508003A808CE80F00637E012B08BF8DF82630A37ED5
S31508003A9043B1012B60D0022B61D0032B7FF41FAFFB
S31508003AA04FF44073ADF82830237E0121012B03BF64
S31508003AB000238DF825304FF4E133E3683A20089364
S31508003AC000F098FA0121286D00F094FA23691A1F6C
S31508003AD00C2A3FF604AF033B394620688DF824309C
S31508003AE001F000FBA36923F47F0323F47F4323B982
S31508003AF02A68936843F480339360237A2779607938
S31508003B0047EA0347637AA17940EA0340A37A224A3F
S31508003B1094F81BC041EA034173011A44BCF1000F33
S31508003B2020D11D2603F1A04303F57033C2F834668D
S31508003B30C2F84C76C3F84406C3F84816E17AE37926
S31508003B4043EA0143C2F838360121284605F0C9F888
S31508003B5000287FF4C5AE38E74FF40073A2E74FF4A8
S31508003B6080739FE71C2403F1A04303F57033C2F862
S31508003B703446C2F84C76C3F84406C3F84816E3E759
S31508003B800000045A249E0008022000F001001100DB
S31508003B903F4B4C0040420F0000C00350B238002093
S31508003BA0092000F000C0055000000650020005007C
S31508003BB002000400589E000805F04FF912E705F1C7
S31508003BC02800FFF7BBFC00283FF48AAE15E701483A
S31508003BD086E600BF012000F0F7B51E46037F0446BF
S31508003BE0012B0F46154612D03246FFF72BFE60B959
S31508003BF07DB1094B2A463946204600933346FFF7DE
S31508003C00CDFD204605F0E2F8A06C03B0F0BD0348F0
S31508003C10FBE70348F9E700BFD98C0008082000F045
S31508003C20022000F0044BD3F88420D206FBD4D3F844
S31508003C308400C0F3811070470040005038B50F4B20
S31508003C400546D3F880300C4603F00303012B09D050
S31508003C50022B0FD00A4841F2DF1104F0FDFF0023C2
S31508003C60184602E0FFF7B4FA0D2305B1286004B13F
S31508003C70236038BDFFF7A6FA0623F6E70080005052
S31508003C80749E000838B5104B0546D3F820310C460B
S31508003C9003F00303022B0BD0032B0DD0012B0FD1FE
S31508003CA0FFF790FA052305B1286004B1236038BDF3
S31508003CB0FFF7BEFA0323F6E7FFF7C0FA0223F2E797
S31508003CC001230020EFE700BF00800050F7B500276A
S31508003CD0114B0197D3F88041064604F00304012CE2
S31508003CE00D4608D0022C12D041F2B1310B4804F02F
S31508003CF0B3FF3C4604E0394601A8FFF7C3FF0F248B
S31508003D000EB1019B336005B12C6003B0F0BDFFF71F
S31508003D1095FA0190F4E700BF00800050749E0008F1
S31508003D2038B51A4B0546D3F824010C4600F00700AF
S31508003D30062821D8DFE800F0280410181C0C140007
S31508003D40FFF740FA052305B1286004B1236038BDA2
S31508003D50FFF738FA0623F6E7FFF76AFA0323F2E7CE
S31508003D60FFF766FA0423EEE7FFF768FA0223EAE7A5
S31508003D7004F06AFF0723E6E7054840F6A87104F051
S31508003D806BFF00231846DEE70123DCE700800050BE
S31508003D90749E000838B5104B0546D3F840310C46DA
S31508003DA003F00303022B0BD0032B0DD0012B0FD1ED
S31508003DB004F04CFF092305B1286004B1236038BD1F
S31508003DC0FFF740FA0823F6E704F043FF0B23F2E770
S31508003DD001230020EFE700BF0080005037B50C46EE
S31508003DE00021124B0191D3F88432054603F00303F0
S31508003DF0022B0ED0032B11D0012B14D101A8FFF7EB
S31508003E0041FF0F230DB1019A2A6004B1236003B064
S31508003E1030BD01A8FFF7BEFF1023F3E7FFF70EFA40
S31508003E2002230190EEE70123ECE700BF0080005073
S31508003E3038B5164B0546D3F800020C4600F00700C5
S31508003E40042819D8DFE800F020030B0F130004F04C
S31508003E50FDFE092305B1286004B1236038BDFFF7CC
S31508003E60F1F90823F6E704F0F4FE0B23F2E7FFF76F
S31508003E70C9F90E23800AEDE7054841F26F4104F0BF
S31508003E80EBFE00231846E5E70123E3E70080005030
S31508003E90749E000838B5124B0546D3F840320C46D6
S31508003EA003F00303022B0BD0032B0DD0012B0FD1EC
S31508003EB004F0CCFE092305B1286004B1236038BD9F
S31508003EC0FFF7C0F90823F6E704F0C3FE0B23F2E771
S31508003ED0044841F2FA3104F0BFFE00231846EAE727
S31508003EE000800050749E000838B5104B0546D3F87C
S31508003EF060310C4603F00303022B0BD0032B0DD0C5
S31508003F00012B0FD104F0A2FE092305B1286004B1E4
S31508003F10236038BDFFF796F90823F6E704F099FE03
S31508003F200B23F2E701230020EFE700BF00800050D3
S31508003F3010B5B0F5207F2ED009D8B0F5007F24D073
S31508003F4003D868B1B0F5C07F0AD000241BE0B0F5ED
S31508003F50607FFAD1124BD3F88040C4F3011412E003
S31508003F600F4B1C6F230B13F00E0FC4F303340AD048
S31508003F70072C08D00F2C06D0032C04D040F285213C
S31508003F80084804F069FE601C10BD054BD3F8904044
S31508003F90C4F30464F7E7024B1C6FC4F38024F2E70A
S31508003FA000800050749E000810B54FF400320E4B86
S31508003FB004469A660020FFF7BBFF604341F671325C
S31508003FC00A4C0B4BA04294BF00200120D969DA6342
S31508003FD05A6822F4401242EA00525A60CA0344BFA1
S31508003FE00022DA6310BD00BF00900050005A62023A
S31508003FF00000035070B5460904460D460ED140F23E
S315080040002F310D4804F028FE334604F01F047DB115
S3150800401003F580530122A2401A6070BD012E05D017
S31508004020064B074A022E18BF1346EEE7054BECE788
S3150800403003F50053EEE700BF749E00086880005041
S31508004040608200506480005030B585B00021802819
S315080040500446CDE9001100F00E8100F2C1803F2828
S3150800406038D9A0F14D04142C05D940F29441A94839
S3150800407004F0F2FD02E1142CF7D801A353F824F05A
S31508004080FF4100086B400008FF410008FF41000897
S31508004090FF410008B74200081D420008C142000857
S315080040A06B4000086B4000086B4000086B40000836
S315080040B06B4000086B4000086B4000080B43000883
S315080040C06B4000086B4000086B400008FF41000881
S315080040D0FF4100083F28C8D801A353F820F000BFC5
S315080040E0FF4100086B4000086B4000086B40000861
S315080040F06B4000086B4000086B4000086B400008E6
S315080041006B4000086B4000086B4000086B400008D5
S315080041106B4000086B4000086B4000086B400008C5
S315080041206B4000086B4000086B4000086B400008B5
S315080041306B4000086B4000086B4000086B400008A5
S315080041406B4000086B4000086B4000086B40000895
S315080041506B4000086B4000086B4000086B40000885
S31508004160FF41000897420008FF41000897420008EF
S31508004170B7420008B7420008B7420008B74200082D
S315080041809742000897420008CB4200081D420008E3
S31508004190F74200086D4200081D42000897420008D1
S315080041A097420008974200086B4000086B400008D9
S315080041B06B4000086B4000086B4000086B40000825
S315080041C06B4000084F4200089742000897420008D3
S315080041D0974200080B43000801430008974200086D
S315080041E0B0F5806F67D024D8B0F5007F49D009D8DC
S315080041F0B0F5807F6ED0B0F5C07F7FF436AFFFF79D
S3150800420001F83AE0B0F5607F50D03FF62EAFB0F532
S31508004210207F40D0B0F5407F7FF427AFFEF7F2FF4E
S3150800422004464FF42070FFF783FEB4FBF0F46408ED
S315080042303AE0B0F5C06F5ED00ED8B0F5A06F3FD0AB
S31508004240B0F5B06F41D0B0F5906F7FF40EAF002196
S315080042506846FFF765FD11E0B0F5E06F50D0B0F5A0
S31508004260F06F52D0B0F5D06F7FF4FFAE00216846EC
S31508004270FFF7DEFD02E0FEF7ABFF0090009805B001
S3150800428030BDFEF7A5FF05462046FFF751FEB5FBF4
S31508004290F0F50095F2E7FEF7B5FF04464FF42070F7
S315080042A0FFF746FEB4FBF0F40094E7E701A8FFF732
S315080042B0C5FC019DE8E700216846FFF7E3FCDDE75A
S315080042C000216846FFF78AFDD8E700216846FFF710
S315080042D0FDFCD3E74FF0E02302911B695B0705D588
S315080042E0FEF790FF0290029B0093C7E703A902A876
S315080042F0FFF750FDF7E700216846FFF74BFDBDE7DE
S3150800430000216846FFF7C6FDB8E700216846FFF7B3
S31508004310EBFDB3E7749E000808B58020FFF794FE0E
S31508004320034B98429EBF4FF48032024B1A6708BD72
S31508004330005A620200A0005038B5B0F5207F77D049
S315080043400ED8B0F5007F61D003D890B3B0F5C07F22
S315080043502FD040F21231BDE838403D4804F07CBC0D
S31508004360B0F5607FF5D13B4A4C1ED2F8FC5015F0EB
S3150800437080751EBFD2F8FC3023F08073C2F8FC307B
S31508004380032C04D940F2F221314804F065FC324A84
S31508004390D2F8803023F0300343EA0413C2F88030A1
S315080043A035B12C4AD2F8FC3043F08073C2F8FC30A1
S315080043B038BD4C1E012C0AD9102903D8274BCB40EF
S315080043C0DB0704D440F2C721214804F045FC04F079
S315080043D00FFD04F01BFD4FF48031214B1E4A19676F
S315080043E0136F23F4704343EA04331367FEF70AFF97
S315080043F00446FFF717FCC0F10201204604F000FD51
S3150800440000F040F8BDE83840FFF786BF4C1E1F2C69
S3150800441004D940F206310E4804F01EFC0E4AD2F8C2
S31508004420903023F0F85343EA0463C2F89030BFE7AC
S315080044304C1E012C04D94FF44371054804F00CFCBA
S31508004440054A136F23F4806343EA84231367AFE7AF
S31508004450749E000800ED00E0008000501001010085
S315080044600090005008B50121022000F091F804F0F0
S31508004470BFFC04F0CBFC4FF48032014B1A6708BD31
S315080044800090005008B54FF4C070FFF7DDFDBDE899
S3150800449008400449884294BF012102214FF4207044
S315080044A0FFF74ABF80F0FA020028ABBF00F1604070
S315080044B0054B00F5614000F00F00ACBF90F8000313
S315080044C0185C0009704700BF14ED00E010B5C3B2D0
S315080044D0422B044604D94FF44D71074804F0BCFB3F
S315080044E0064B620953F8220004F01F04E040C0435B
S315080044F000F0010010BD00BFBF9E000800E100E00B
S3150800450010B500F10C03DBB24E2B044604D940F279
S31508004510C221144804F0A0FBEFF31083DB0702D591
S315080045200122104610BD2046FFF7D0FF024600289C
S31508004530F6D12046FFF7B8FF0146EFF3118313B112
S31508004540B0EB131FECD2084B5B68C3F30803002BD0
S31508004550E7D0103B58B2FFF7A7FF88428CBF00226E
S315080045600122DEE7BF9E000800ED00E0024A136C58
S31508004570DB07FCD4704700BF00400950034A0179A5
S31508004580D36E23F030030B43D366704700400050C8
S31508004590F8B50446244BD3F88420D006FBD4D3F8C8
S315080045A08430C3F381139C423CD0FEF711FE012CE4
S315080045B005460BD11D4B984204D940F292711C480E
S315080045C004F04AFB0121284604F01AFC04F038FCE2
S315080045D04FF00072174B07465A66204604F040FC17
S315080045E04FF48063104E621E93403367736E9A01D0
S315080045F003D4D6F884309B060AD5384604F024FC42
S31508004600022C0FD12846BDE8F840002104F0F8BB7B
S31508004610D6F884309906E9D54FF4F461044804F0D5
S315080046201BFBE3E7F8BD00BF00400050005A6202DA
S315080046300B9F00080060005010B50C4608B9FEF73D
S31508004640C7FD074B21461B783BB1064B984204D859
S315080046500120BDE81040FFF79BBF0220F9E700BF25
S31508004660B3380020005A620238B54FF00042244B96
S3150800467024495A664AF6CD33D1F89440C1F89030A9
S3150800468004F0010428BBFFF771FF4B68DB0716D55A
S3150800469001221D4B5A601D4BCA6BD5070DD4984293
S315080046A009D107251CB1174B194AC3F8902004F005
S315080046B0D8FB284638BD0130EEE79842F1D00025F0
S315080046C0F0E70132CB6B13F0080305D08242F8D12C
S315080046D0E7E700220D48F5E78242E2D020210A4AA0
S315080046E051630121A2F5805251600649074A486B79
S315080046F0800603D49342D4D00133F8E79342DDE72A
S3150800470000900050004009500060095040420F00D8
S315080047103254FFFF38B54FF00042174B174C5A6614
S315080047204AF6CD33D4F89450C4F890304378144AF6
S315080047305B0043F00103D363FFF718FF63688278D1
S3150800474023F0700343EA02136360C278437943EAAD
S315080047500223E3600279837943EA0223236100781E
S31508004760FFF782FFEB0744BF064BC4F8903004F00E
S3150800477078FB012038BD00BF00900050004009506A
S31508004780004000503254FFFF10B504F06FFB2023A1
S3150800479041F2020203610023C360836042614FF461
S315080047A0A02207498361426200F50052C361036291
S315080047B08362C36243630365D164036310BD00BFAC
S315080047C0FF3F0D0338B5154B044698420D4604D0F5
S315080047D04FF4B371124804F03FFA25B92046BDE8F4
S315080047E0384004F043BB012204F580535A6040F672
S315080047F0FF71204605F00F0204F034FBA26378210E
S3150800480004F030FB05F001036A0748BF43F00203D2
S31508004810A26C02F003029A42FAD138BD0000045A8B
S31508004820569F0008F8B505460C46164622B94FF4B9
S315080048300971654804F010FA644B9D4202D184B9A7
S3150800484054240AE040F227215F4804F005FA44B9E7
S3150800485040F276315C4804F0FFF92046FFF7F4FB96
S315080048600446AB68D90741D5B44204D240F2312197
S31508004870554804F0F1F9B4FBF6F46F68013CFF2CD7
S3150800488007F0010704D940F239214F4804F0E4F94A
S3150800489024062FB32821284604F0E4FAAB6C9A07BD
S315080048A018D1AB6CDB0717D4AE6C16F0020615D11F
S315080048B040F24621444804F0CFF9284604F0D6FAD7
S315080048C02B69314623F07F4323432B61BDE8F8402B
S315080048D0FFF778BF0526F0E70926EEE70626ECE798
S315080048E02B6923F07F4323432B61F8BD6B68012BAB
S315080048F004D040F25921344804F0AEF9AB6803F00D
S31508004900E003402B42D009D893B1202B1AD040F2AD
S315080049109B21BDE8F8402C4804F09EB9602B42D094
S31508004920802BF4D106EB4603A34247D801230DE0BA
S31508004930B6EB141F04D940F28121234804F08CF900
S31508004940102303E0B6EBD40F1AD808237343640187
S31508004950B4FBF3F41E4F203CB7EBC40F4FEAC40672
S3150800496004D240F2A621184804F076F928463E40BB
S31508004970012104F077FA2E63BDE8F84004F072BA14
S3150800498040F28621104804F067F9DEE70623B4FBF7
S31508004990F3F3B34201D30623D8E740F28B210A4842
S315080049A004F05AF9F7E7B6EB940F01D80423CDE7DC
S315080049B04FF42471044804F04FF9F7E740F29521C3
S315080049C0014804F049F9B1E7569F00080000045A67
S315080049D0F8FF7F00F8B5704B044698420E4603D0A0
S315080049E0DF216E4804F038F91EB9E1216B4804F05E
S315080049F033F9727BB3687AB1694A934203D9E321E2
S31508004A00664804F029F93369C3B1DB7BB3B1E62103
S31508004A10624804F021F911E0624A934203D9E92178
S31508004A205E4804F019F9336943B11A7F32B1B168A7
S31508004A305D4A5B7F914275D9042B75D863683569E1
S31508004A4023B140F6FF71204604F00CFA2046FFF722
S31508004A509BFE2269737BB17B22F087020B431343CB
S31508004A6043F080032361002D60D02369297F23F05A
S31508004A70F80343EAC1132978EA7B0B43297943EA09
S31508004A804113697A43EA011343EA82132361E06812
S31508004A90D5E9053720F0F0403B4320F47020034366
S31508004AA0287B697B43EA802343EAC133E360A36832
S31508004AB0F07B23F00303034343F00103A3606B88F1
S31508004AC0A06803F4C0430343A360A368687943EA74
S31508004AD08023A360AB79EF79606A1B013F0203F07C
S31508004AE0700307F4E06720F4772020F4EE603B4378
S31508004AF00343287A000300F4E0400343687F000478
S31508004B0000F47020034363626369307B23F00F036C
S31508004B10034363616B89A36169BBAAB11E4B9C42BF
S31508004B2012D132E0042B89D8F02171E7A368F27B11
S31508004B3023F00303134343F00103A3606369327B45
S31508004B4023F00F0313436361D6E901122046FFF7EA
S31508004B5069FE05212046FFF735FE2821204604F088
S31508004B6081F93378A36304F07DF9A36CDB4313F46E
S31508004B70405FFAD1F8BD084B9C42E5D1AB7B0B49A7
S31508004B8003F00F034B66002ADED02B7C074A03F09E
S31508004B900F031366D8E700BF0000045A569F0008A3
S31508004BA0002D3101809698003F4B4C000090035031
S31508004BB070B51F2904460D46164603D991210648A5
S31508004BC004F04AF82EB104F580540123AB40236063
S31508004BD070BD04F50054F8E7A49F000838B503280B
S31508004BE004460D4604D8084B1B5CCB40DB0704D4AF
S31508004BF040F22D41054804F02FF8302301225C438A
S31508004C00034BAA401A5138BD87A00008EF9F000839
S31508004C1040D0035038B5032804460D4604D8084B3F
S31508004C201B5CCB40DB0704D440F2FE31054804F098
S31508004C3013F8302301225C43034BAA401A5138BDAE
S31508004C4087A00008EF9F000840E003502DE9F84FC1
S31508004C50032807460E46144698469DF828A09DF850
S31508004C602C9004D8264B1B5CCB40DB0703D4BF2112
S31508004C70244803F0F1FF86EA0403032B03D9C12174
S31508004C80204803F0E9FF072C4FF0030506F003065A
S31508004C9025D84FEA840B05FA0BF529461A4807FA70
S31508004CA00BF204F0FDF82946184806FA0BF204F050
S31508004CB0F7F8424621461648FFF77AFF524621463C
S31508004CC01448FFF775FF0123134AA340C2F820349E
S31508004CD021464A46BDE8F84F1048FFF769BFA4F1D8
S31508004CE0080B4FEA8B0B05FA0BF529460C4807FA11
S31508004CF00BF204F0D5F829460A4806FA0BF2D6E76D
S31508004D0087A000083BA0000800C4035008C403504D
S31508004D1010C4035014C4035000E0035024C40350C5
S31508004D2004C403500CC403502DE9F041032804467B
S31508004D300D461746984604D81C4B1B5CCB40DB0730
S31508004D4004D44FF4B0711A4803F086FF37B12946E8
S31508004D502046B8F1000F20D0FFF740FF0F21072D9E
S31508004D6004EB440688BFA5F108034FEA0616114866
S31508004D7095BFAB009B0004360C3607FA03F2994040
S31508004D80304404F08DF87FB929462046B8F1000F63
S31508004D9006D0BDE8F041FFF721BFFFF73BFFDDE78F
S31508004DA0BDE8F041FFF736BFBDE8F08187A00008EF
S31508004DB03BA0000830C0035010B5044618B991212D
S31508004DC01F4803F049FF23781B0613F0604F03D0F2
S31508004DD092211B4803F040FFE3780F2B03D9952156
S31508004DE0174803F039FF01212020FFF703F90121B5
S31508004DF02120FFF7FFF80122124B5A60227812068B
S31508004E009A606178A27842EA01429A61FF229A6220
S31508004E1000229A631A644FF000425A654FF0FF3237
S31508004E204FF0806103F500531A65074AC2F88011EE
S31508004E30E3781B01DBB282F81A33116010BD00BF9C
S31508004E408BA000080000045000E100E02DE9F041C5
S31508004E500126C3B2072805460C46904606FA03F60D
S31508004E6003DDDE21344803F0F7FE1CB9DF213248A2
S31508004E7003F0F2FE236823F47C1323F00F031BB11F
S31508004E80E2212D4803F0E8FEA37A1B0413F47C0FF5
S31508004E9003D0E721284803F0DFFEE37A1B0513F069
S31508004EA07E6F03D0E921244803F0D6FE237B5B05F9
S31508004EB013F0FE5F03D0EB211F4803F0CDFE1F4B16
S31508004EC01F4F1E65AB00226803F1A04303F5882334
S31508004ED05A60302202FB0575637B2B66E37AA27A59
S31508004EE01B0543EA0243227B43EA4253EB6528F05B
S31508004EF003032B6703F0ABFF7B6D33437B65237A94
S31508004F0013B13B6C33433B64637A13B1BB6B3343D6
S31508004F10BB632279A37943EA0243084A936161791C
S31508004F20E37943EA014307498B61054B56639E645F
S31508004F30BDE8F04103F091BF8BA0000800200450A3
S31508004F40000004500010045038B5022805460C46E7
S31508004F5003D94C210C4803F07FFEE3786278217868
S31508004F605B0143EA820322790B4343EA02130C22CC
S31508004F706A4302F1B0421363012902BFA278034BC8
S31508004F8043F8252038BD00BFD7A00008EC800350A1
S31508004F9008B54FF0B0435A686AB958B15B680BB1A7
S31508004FA003F08EFF01210D4B596003F089FF4FF086
S31508004FB0B043D96008BD5B680BB103F081FF0028D8
S31508004FC0F0D103F07DFF4FF0B0430222DA6003F020
S31508004FD077FF0122024B5A60ECE700BF0010005829
S31508004FE00020005810B54FF0B0414B680BB103F0E4
S31508004FF067FF01220B4BC4785A608378934043EAD3
S31508005000840344782343047943EA0413447943EA3E
S31508005010C4038B60044B5A600378C3F10203CB6068
S3150800502010BD00BF002000580010005870B5064695
S315080050300C46154622B940F28E210C4803F00CFEA8
S3150800504024B94FF42070FEF7FFFF04466D00013CBB
S31508005050B4FBF5F4064B250213EA042304D040F208
S31508005060B321024803F0F8FDF56170BD23A10008DD
S31508005070070080FF10B5174B0446984208D003F581
S315080050808043984204D040F24241134803F0E4FDBD
S31508005090012204F580535A6040F6AA6341F20502DC
S315080050A0636100230D49A360E365E26004F50052DD
S315080050B02361E361E36491640649A3658C4203D1E5
S315080050C023650023636502E005498C42F8D0012375
S315080050D0536010BD00C0055023A10008FFFF010062
S315080050E00000065038B52F4B044698420D4608D0A6
S315080050F003F58043984204D040F269312A4803F008
S31508005100ABFD2046FFF7B6FF012204F580535A602F
S315080051102B8AA26843F001031343AA7B43EA82233E
S31508005120A360A3682A7D43EA4273A360AB7C5BB1A4
S315080051301C4AEB7C94422DD1A2F51032C2F890316C
S31508005140E36D43F08003E3652B7B2046D5E9011226
S3150800515043F48053E360FFF769FF6B7B0BB11023C1
S3150800516063616B7D1BB1A36843F48033A360AB7D99
S315080051701BB1A36843F40043A360EB7D2A7E1B079B
S31508005180120503F0E04302F4E0021343A3652B780B
S31508005190636138BD054A944204BFA2F52032C2F8BD
S315080051A0AC31CDE700C0055023A100080000065029
S315080051B007B5084B18689A889B7900906846ADF839
S315080051C004208DF80630FFF7A5FA002003B05DF835
S315080051D004FB00BF70A1000813B50024064A684600
S315080051E0536F43F00103536700948DF80440FFF7AB
S315080051F0C5F9204602B010BD0040005010B56FF04A
S31508005200040350210A480B4C13F0800F03F10102E6
S3150800521007D12344432A83F800131346F4D1002008
S3150800522010BD03F00F03043B034419761346EBE75E
S3150800523000ED00E000E100E010B5044603F000FED2
S31508005240024B1C6003F000FE002010BD5037002002
S3150800525010B503F0F5FD034B1C6803F0F5FD204679
S3150800526010BD00BF5037002010B50020144603F0CB
S315080052702FFE022804D018B1C321024803F0ECFC23
S31508005280204610BD77A10008034B022218680023A8
S315080052908068194601F0E2BC2811002010B50020EC
S315080052A003F0DBFC044610B90248FFF7C5FF2046A9
S315080052B010BD00BF1011002030B50E4C41612368A7
S315080052C08BB9206083600DE0891A9A681D46416192
S315080052D06AB113465A698A42F6D935B1A860521A94
S315080052E083605A6130BD0025F4E72060F7E79860CF
S315080052F08260F7E75C37002038B503F071FE0025B9
S31508005300084B094C1A682368C31A2AB123B1516994
S31508005310994203D3C91A5161206038BD55615B1A99
S315080053209268F2E75C3700205837002038B5134DED
S315080053302B685B6993B1124A022014681C4403F077
S3150800534056FE204600F094F900230E492A680B7091
S31508005350D088800709D501230B7038BD022003F0D9
S3150800536046FE022000F0CEF9EEE79268002AF4D055
S3150800537050690344012BEBD9EFE700BF5C370020E7
S3150800538058370020B538002000220C490B687BB13D
S3150800539083420AD183687AB1936083681BB15A69DC
S315080053A041690A445A61002070471A469B68EEE72D
S315080053B00028EFD0022070470B60EEE75C3700202C
S315080053C070B503F044FD144E05463478FCB9134B0A
S315080053D01C60134B1C60134B1C8000F005F9012060
S315080053E003F005FE03F00FFE0F4B0246186020B9C6
S315080053F0284603F032FD232070BD234640F2E731EC
S315080054000A4800F073FE0A4B1860012333702846D9
S3150800541003F023FD0020EFE7B63800205C370020B4
S3150800542058370020AC3800206037002018FCFFFFF2
S315080054305437002070B5044640B303F001FD144EFE
S315080054400546FFF759FF3068A04209D02046FFF706
S315080054509BFF0446B0B1284603F0F6FC204670BD13
S31508005460FFF792FF04460028F5D133683BB90220BE
S3150800547000F030F9284603F0E7FC0024EEE7FFF7D2
S3150800548055FFF7E73368002BF4D1F0E72224E5E768
S315080054905C3700202DE9F843C20704460BD54E4A6F
S315080054A0138801339BB21380FFF726FF4B4B1B680B
S315080054B00BB1FFF73BFFA30740F18B8003F0C7FC56
S315080054C04FF0000805464646FFF716FF434F3C686F
S315080054D00CB163698BB10022414B012E1A7003D1BE
S315080054E018F0020F18BF1E70002C6ED0FFF71EFFB3
S315080054F02846BDE8F84303F0B0BC23465A693AB9D2
