:020000040800F2
:10000000001000209D2F0008858A0008858A0008BE
:10001000858A0008858A0008858A0008858A000884
:10002000858A0008858A0008858A0008858A000874
:10003000858A0008858A0008858A0008858A000864
:10004000858A0008858A0008858A0008858A000854
:10005000858A0008858A0008858A0008858A000844
:10006000858A0008858A0008858A0008858A000834
:10007000858A0008858A0008858A0008B555000829
:10008000858A0008858A0008858A0008858A000814
:10009000858A0008858A0008858A0008858A000804
:1000A000858A0008858A0008A5340008858A00082A
:1000B000858A0008858A0008C9350008A53500082A
:1000C000858A0008858A0008858A0008858A0008D4
:1000D000858A0008858A0008858A0008858A0008C4
:1000E000858A0008858A0008858A0008858A0008B4
:1000F000858A0008858A0008858A0008858A0008A4
:10010000858A0008858A0008858A0008858A000893
:10011000858A0008858A0008858A0008858A000883
:10012000858A0008858A0008858A0008858A000873
:10013000858A0008858A0008858A0008858A000863
:10014000858A0008858A0008858A0008000000006A
:10015000013800D0FCE770472DE9F04FC76997B030
:100160008346209E08910C92129355EC104B8DED16
:10017000000B7FB9102006F02DFE0246CBF81C00C4
:1001800020B9A74BEF21A74807F092FBC0E9017700
:100190000760C760DBF81C30196859B15A68012341
:1001A000584693404A608B6006F002FFDBF81C3033
:1001B00000221A602B1EB7BF23F000430023012248
:1001C0000193A8BF3360019F974BB8BF3260BB4318
:1001D00019D142F20F73129A1360C7F3130323432A
:1001E00000F0DB85219B53B9904B21E0904B0393AA
:1001F0000833219A1360039817B0BDE8F08F8B4B3A
:1002000003930333F5E79DED007B0022002351ECBF
:10021000170B8DED0A7B05F037FE804650B10123A8
:10022000129A1360219B13B1824B219A1360824B67
:100230000393E0E7C7F30A5614AA15A958469DEDA3
:100240000A0B07F03DF90290002E76D00B9BA6F228
:10025000FF36CDF84C80C3F3130343F07F53DDE941
:100260000A0143F4401319460022744B05F0ECF9DF
:1002700065A3D3E9002305F09FFB65A3D3E9002321
:1002800005F0E4F904460D46304605F02BFB62A369
:10029000D3E9002305F090FB02460B462046294691
:1002A00005F0D4F904460D4607F09AFC00220746F3
:1002B00000232046294605F0F1FD40B1384605F0FF
:1002C00011FB22462B4605F0DFFD00B9013F162F3A
:1002D00052D85B4B03EBC703DDE90A01D3E90023E6
:1002E00005F0DCFD002849D0013F00231193149B49
:1002F0009B1B5A1E4CBFC3F101030023079245BF4D
:100300000693002306930793002F39DB079B109772
:100310003B44079300230993089B092B66D8052BC0
:10032000C5BF043B002401240893089B023B032B18
:1003300067D8DFE803F02D3A3859DDE914631E442D
:1003400006F23243202BC9BFC3F14003C3F120039F
:100350009F4006F21243D8BF04FA03F006F1FF36BD
:10036000C4BF24FA03F347EA030005F0ABFA012205
:10037000A1F1F873139276E70123B7E71190B6E77E
:10038000069BDB1B06937B42099300231093C3E774
:1003900000230D930C9B002B56DC012399461A4633
:1003A00004930C920CE00123F3E700230D930C9BC4
:1003B000FB1803F1010904934B46012BB8BF01233D
:1003C000DBF81C000021042202F114059D423FD9F4
:1003D0004160584606F0ACFD039000283BD1194B14
:1003E000024640F2AF11CEE60123DFE701240023ED
:1003F0000D9408934FF0FF33002299460493122383
:10040000CFE701230D93F5E761436F63A787D23FE1
:10041000B3C8608B288AC63FFB799F501344D33FF3
:10042000A79F0008BE9F00080000F07FA39F000860
:100430009A9F0008779F0008769F00080000F83F09
:10044000B8A0000817A000080C9B99460493B7E7D2
:1004500001315200B8E7DBF81C30B9F10E0F039AF6
:100460001A606FD8002C6DD0002F36DD07F00F0218
:10047000A04BF8054FEA271403EBC20393ED007B72
:100480008DED0E7B17D59C4B04F00F044FF0030845
:10049000D3E90823DDE90A0105F0B8FBCDE9000145
:1004A000954D5CB9DDE90E23DDE9000105F0AEFBF9
:1004B000CDE900012BE04FF00208F1E7E10709D593
:1004C00008F10108DDE90E01D5E9002305F074FA11
:1004D000CDE90E0164100835E3E700F007817C42A6
:1004E000844B854D4FF0020804F00F02241103EBFA
:1004F000C203DDE90A01D3E9002305F05DFA002318
:10050000CDE90001002C40F0E580002BD0D1119BFB
:10051000DDE90045002B00F04C810022774B20469E
:10052000294605F0BBFC002800F04381B9F1000F1B
:1005300000F03F81049B002B00F3E480DDE90A34E6
:10054000CDE90034159B002B02DB0E2F40F34282D5
:100550000D9A002A40F06782099C0025DDF818807A
:10056000B8F1000F0DD0079B002B0ADD4345069A1A
:10057000A8BF4346D21AA8EB03080692079AD31ADB
:100580000793099B0BB30D9B002B00F0A682002C58
:1005900000F0A18229462246584606F033FE029A10
:1005A00001460546584606F083FD02990646584620
:1005B00006F0FEFC099B1B1B099300F09182099A2F
:1005C0003146584606F01EFE02900121584606F0BC
:1005D00059FD109B0446002B00F084821A46014608
:1005E000584606F00FFE089B0446012B03DC009BD7
:1005F000002B00F07C820026236904EB830318693A
:1006000008F04DFEC0F120001096079B184410F032
:100610001F0000F09182C0F12003042B40F381827F
:10062000C0F11C00069B034480440693079B0344CF
:100630000793069B002B05DD1A460299584606F0E3
:100640003BFE0290079B002B05DD21461A465846CB
:1006500006F032FE0446119B002B00F07682214604
:10066000029808F06BFE002880F26F8200230A22B5
:100670000299584606F0BEFC0D9B7E1E0290002B90
:1006800000F05C82002329460A22584606F0B2FC9C
:10069000049B0546002B03DC089B022B00F35E82C3
:1006A000B8F1000F05DD29464246584606F004FE23
:1006B0000546109B002B00F0D0826968584606F072
:1006C00037FC0746002840F07F820D4B024640F27F
:1006D000EF2158E5E20706D508F10108D5E9002326
:1006E00005F06AF90123641008350BE74FF00208A2
:1006F0000DE700BFB8A0000890A000080000F03F80
:1007000017A0000820460022AC4B294605F054F9FA
:100710007E1E08F10108049CCDE90001404605F069
:10072000E1F8DDE9002305F047F9A54B002204F0CC
:100730008DFFA1F15073CDE90E010F93002C3BD139
:100740000022A04BDDE9000104F07EFF02460B46CB
:10075000CDE90023DDE90E2305F0BEFB002840F0C3
:100760005781DDE90E2101F10043DDE9000105F0CB
:1007700095FB00283FF4E2AE002425460C9BDDF8F3
:100780000CA0DE434FF000082146584606F010FC4E
:10079000002D00F0A980B8F1000F05D0A84503D0C6
:1007A0004146584606F004FC2946584606F000FC2F
:1007B0009AE03E464C46B1E7834B03EBC40353E952
:1007C0000201039B1C440D9B002B4AD002460B46A2
:1007D00000207E4905F01AFADDE90E2304F034FF0B
:1007E000DDF80CA0CDE90E01DDE9000107F0F8F914
:1007F000054605F077F8024630350B46DDE9000185
:1008000004F022FF0AF8015B02460B46CDE9000125
:10081000DDE90E0105F060FB002865D100206C4980
:10082000DDE9002304F010FF02460B46DDE90E016E
:1008300005F052FB002840F00D81A24500F0EA804F
:1008400000225E4BDDE90E0105F0B6F800225B4B9D
:10085000CDE90E01DDE9000105F0AEF8CDE90001BA
:10086000C2E7DDE90E2305F0A7F8A046DDF80CA0ED
:10087000CDE90E01DDE9000107F0B2F9054605F00A
:1008800031F8024630350B46DDE9000104F0DCFEAC
:100890000AF8015B02460B46A245CDE900234FF062
:1008A000000223D1494BDDE90E0104F0CFFE0246E0
:1008B0000B46DDE9000105F00FFB002840F0CA807F
:1008C00000204249DDE90E2304F0BEFE02460B463D
:1008D000DDE9000105F0E2FA70B1C24608F1FF3827
:1008E0001AF8013C302BF8D0374655E0334B05F071
:1008F00063F8CDE90001BDE7DDE90A34CDE9003454
:10090000159B002BFFF628AE0E2F3FF725AE2E4B82
:1009100003EBC70393ED007B0C9B002B8DED047B59
:1009200002DAB9F1000F64D0DDF80CA0DDE9004572
:10093000DDE904232046294605F068F907F050F95F
:10094000064604F0CFFFDDE9042305F035F8024642
:10095000204606F130040B46294604F075FE0AF8DD
:10096000014B039C02460B46AAEB0404A14540F050
:10097000828004F06BFE04460D46DDE9042305F099
:10098000ABFA002865D120462946DDE9042305F0AD
:100990007BFA08B1F3075CD40299584606F008FBCD
:1009A000002301378AF80030129B1F60219B002B27
:1009B0003FF421ACC3F800A01DE400BF00002440B8
:1009C00000001C4000001440B8A000080000E03FF8
:1009D0000000F03FA24B03EBC70393ED007B0C9BA1
:1009E000002B8DED047B9FDAB9F1000F9CDC7FF4C6
:1009F000C3AE00229B4BDDE9040104F0DDFFDDE91D
:100A0000002305F05FFA044600287FF4B5AE3E46A9
:100A10002546B4E0DDE90A34CDE90034159B002B0E
:100A200001DB0E2FD6DD089A012A36DC139A82B339
:100A300003F23343099CDDF81880069A01215846D9
:100A40001A440692079A1A44079206F01BFB0546C1
:100A500086E53E4653469A4613F8012D392A06D1BB
:100A6000039A9A42F7D13022039901360A701A7814
:100A700001321A7038E700227B4B04F09DFF002200
:100A8000002304460D4605F0FFF900283FF450AF5F
:100A900082E7149BC3F13603CCE709F1FF34099BCD
:100AA000A34208DBB9F1000FA3EB04040EDBDDF871
:100AB00018804B46C1E7099B109AE31A0994DDF8A8
:100AC000188000241A444B461092B6E7069BA3EB0D
:100AD00009080023B1E7029E71E5099A029970E5C1
:100AE000029672E5089B012B17DC009BABB9019BBA
:100AF000C3F313039BB9019B23F00046360D360563
:100B000036B1069B012601330693079B01330793F9
:100B1000109B002B7FF470AD1096012075E5002628
:100B2000F6E73FF486AD1C33069A1A4498440692C1
:100B3000079A1A4407927CE50346F4E7049B002BCE
:100B40002BDC089B022B09DC27E0B9F1000F1DDC30
:100B5000089B022B1ADD3E46CDF81090049B002B1B
:100B60007FF40CAE21460522584606F043FA0146B2
:100B70000446029808F0E2FB00287FF7FFADDDF89D
:100B80000CA0312301360AF8013BFBE50D9B3E46E4
:100B9000CDF81090002B7FF483AD039F214602987F
:100BA00008F0F0FA039B00F13009049A07F8019B62
:100BB000FB1A9A4240F3CB8000230A22029958463E
:100BC00006F018FA0290E9E72A6905F10C010C30E9
:100BD0000232920008F0C1FA01223946584606F066
:100BE0006BFB039BA846054603F1010ADDE90323DD
:100BF00013440793009B03F0010309930AF1FF33A9
:100C000021460298049308F0BDFA4146069000F18F
:100C10003009029808F092FB2A46214607465846BA
:100C200006F0B6FBC268014602B3584606F0C0F9AA
:100C3000002F3ADA01220299584606F03DFB214680
:100C4000029008F07BFB002803DC29D119F0010F8A
:100C500026D0B9F1390F1DD132E02846C1E700BFD7
:100C6000B8A0000800001440000024400A90029838
:100C700008F064FB0A990C90584606F099F90C9A12
:100C80005ABB089B53B9099B43B9B9F1390F17D027
:100C9000002F05DD069B03F1310901E0002F2ADA60
:100CA000DDF810A00AF8019B6EE5089B3B4304D1D8
:100CB000009B03F00103002BBCD0B9F1390F36D1F2
:100CC000049F392307F8013BBA46013F1AF8013C5B
:100CD000392B5AD001333B7056E5002F06DB089BB9
:100CE0003B4306D1009B03F0010313B9002AA1DCAA
:100CF000D6E7002AE1DC079B57460AF8019C5345DA
:100D00002ED000230A220299584606F073F9A8450E
:100D100002904FF000034FF00A02414658460BD1B3
:100D200006F068F9804605460AF1010A66E7DDF833
:100D300010A009F10109B5E706F05CF929468046E3
:100D400000230A22584606F055F90546ECE7049BB5
:100D50004FF00008002BCCBF1F460127039B1F4408
:100D600001220299584606F0A7FA2146029008F09F
:100D7000E5FA0028A8DC02D119F0010FA4D1BA4687
:100D800017F8013D302BFAD0FEE4039BBB429BD108
:100D90003123039A01361370F6E4219B002B7FF474
:100DA00025AA014BFFF744BA9A9F000800000000F3
:100DB00051EC110B43422DE9F047034321F0004E63
:100DC000634E4EEAD373B34255EC104B3ED86342A8
:100DD00025F0004AA046A94623434AEAD373B3420A
:100DE00034D85C4B02460B4403433ED08F175AEA7B
:100DF000080807F0020747EAD5772FD05EEA02021B
:100E000037D0B64544D0B24533D0AAEB0E0ABAF17A
:100E1000747F4FEA2A5338DA00296ADA3C3368DAF9
:100E20009FED3D0B012F50D0022F3DD0A7B151ECCB
:100E3000100B3BA3D3E9002304F006FC3AA3D3E94B
:100E4000002304F001FC41EC100B05E022462B4688
:100E500004F0FCFB41EC100BBDE8F087022F0ED034
:100E6000032FF9D19FED320BF6E7BDE8F04700F014
:100E700077B8B9F1000F05DB9FED2F0BECE79FED85
:100E80002A0BE9E79FED2E0BE6E79FED2B0BC9E759
:100E9000F24507F1FF3721D0022F27D82E4B03EB65
:100EA000C70393ED000BD7E71DA3D3E9002351EC53
:100EB000100B04F0C9FB02460B461BA1D1E900014F
:100EC00004F0C2FB41EC100BC6E710EE901A53EC95
:100ED000102B01F1004343EC102BBDE7022F15D876
:100EE0001E4B03EBC70393ED000BB5E79FED0A0B19
:100EF000B2E702460B462046294604F087FE41EC45
:100F0000100B06F04FFE00F02BF88BE79FED0E0B59
:100F1000A2E700BFAFF30080000000000000000067
:100F2000075C143326A6A13C182D4454FB2109402C
:100F3000182D4454FB2109C0182D4454FB21F93FBE
:100F4000182D4454FB21F9BF182D4454FB21E93FCF
:100F50000000F07F000010C0D8A20008F0A2000836
:100F60002DE9F84F55EC104BC34B25F00046AA462F
:100F70009E4216D9C14B9E4201D80AD14CB122469D
:100F80002B462046294604F061FB41EC100BBDE8DE
:100F9000F88FBAF1000F40F3BE809FED9B0BBDE8C8
:100FA000F88FB74B9E4200F2B980A3F1DE739E42E8
:100FB00040F2A0804FF0FF3B22462B4620462946B8
:100FC00004F0FAFC02460B468046894604F0F4FC25
:100FD00006460F468EA3D3E9002304F0EDFC8EA352
:100FE000D3E9002304F032FB32463B4604F0E4FC34
:100FF0008BA3D3E9002304F029FB32463B4604F0DF
:10100000DBFC89A3D3E9002304F020FB32463B46F6
:1010100004F0D2FC86A3D3E9002304F017FB324688
:101020003B4604F0C9FC84A3D3E9002304F00EFB83
:1010300042464B4604F0C0FC80468946304639465D
:101040007FA3D3E9002304F0B7FC7FA3D3E90023F7
:1010500004F0FAFA32463B4604F0AEFC7CA3D3E936
:10106000002304F0F1FA32463B4604F0A5FC7AA3D3
:10107000D3E9002304F0E8FA32463B4604F09CFC36
:1010800077A3D3E9002304F0DFFA32463B4604F0AD
:1010900093FCBBF1FF3F02460B464046494661D0F8
:1010A000784E04F0D3FA22462B4604F085FC764BAA
:1010B00006EBCB064FEACB0B5B44D3E9002304F0ED
:1010C000C3FA22462B4604F0BFFA02460B46D6E985
:1010D000000104F0B9FABAF1000F41EC100BBFF6B1
:1010E00056AF10EE901A024601F1004343EC102B6C
:1010F000BDE8F88F5CA3D3E900232046294604F01D
:10110000A5FA0022614B04F0E7FE00283FF452AF3D
:1011100045EC104B3BE79FED560B38E706F042FDE0
:101120005B4B9E4255EC104B2CD8A3F550239E42AE
:1011300055D90022554B2046294604F085FA4FF038
:10114000010B06460F462046294600224F4B04F06D
:101150007DFA02460B463046394604F057FD0446F8
:101160000D4629E704F072FA22462B4604F024FCCF
:1011700002460B462046294604F066FA41EC100B65
:10118000BDE8F88F434B9E421ED20022424B2046C0
:10119000294604F059FA02460B46204629461446D1
:1011A0001D4600223C4B4FF0020B04F005FC0022D0
:1011B000364B04F04BFA02460B462046294604F013
:1011C00025FD04460D46F7E622462B46002033490E
:1011D00004F01CFD4FF0030B04460D46ECE62246DE
:1011E0002B462046294604F031FA0022274B4FF0C7
:1011F000000B04F029FA002206460F462046294635
:101200004FF08043A3E700BF182D4454FB21F93F62
:1012100011DA22E33AAD903FEB0D76244B7BA93FE8
:10122000513DD0A0660DB13F6E204CC5CD45B73FB6
:10123000FF8300922449C23F0D5555555555D53F62
:101240002F6C6A2C44B4A2BF9AFDDE522DDEAD3F56
:101250006D9A74AFF2B0B33F711623FEC671BC3FF6
:10126000C4EB98999999C93F9C7500883CE4377EF6
:10127000182D4454FB21F9BFFFFF0F440000F07FFD
:10128000FFFFDB3F28A3000808A300080000F03F91
:10129000FFFFF23F008003400000F83F0000F0BF76
:1012A0000348044B834202D0034B03B118477047F5
:1012B000EC120020EC12002000000000064B074951
:1012C000C91A891048BF0131491003D0044B0BB132
:1012D00001481847704700BFEC120020EC120020B4
:1012E0000000000010B5064C237843B9FFF7D8FF83
:1012F000044B13B10448AFF300800123237010BDE9
:10130000A63800200000000048A3000808B5054BDF
:101310001BB105490548AFF30080BDE80840FFF761
:10132000CDBF00BF00000000EC12002048A3000861
:10133000A3F5803A704700BF174B002B08BF134B33
:101340009D46FFF7F5FF00218B460F461348144AD0
:10135000121A07F0E9FE0E4B002B00D098470D4BF8
:10136000002B00D098470020002104000D000D48FC
:10137000002802D00C48AFF3008005F0BDFC20002F
:10138000290006F06CFC04F091FF00BF000008008B
:10139000000000000000000000100020EC120020FF
:1013A000B438002000000000000000002DE9F843E0
:1013B000002504460C4E0D4FDFF83490A54201D1B4
:1013C000BDE8F883D7F8008056F8040B08F1010354
:1013D0003B6004F099FA02460B464846414605F048
:1013E0007BFB0135EAE700BF0C130020041300204B
:1013F0006097000830B597B007F0F7FA002401F0C5
:101400007FF801254FF0011307A8CDE907440B939E
:10141000CDE9095507F0E9F90223CDE90D3304239D
:101420000CA80F9410938DF8305006F092FF1C4BCF
:1014300001A8CDE90234019506F0C8FF2A464FF015
:10144000FF31284607F050FA4FF0FF3007F064FAFA
:101450002A461449204607F047FA4FF0FF3007F0BC
:101460005BFA2C231193072311A8CDE9144413949C
:10147000129307F081FA0C4B04940C4C05930C4B1F
:10148000214604A8069301F043FC206804F03CFACE
:1014900002460B46074805F01FFB17B030BD00BFE2
:1014A000000001010082000200007A4408130020BD
:1014B0000024744B7297000807B501A800F0F2FAF7
:1014C00010214FF47C72019BC820C3E90112104A1D
:1014D00000211A620F4A5A624FF4F072DA650E4A1E
:1014E0009A610E4A12685A610D4ADA620D4A1A630D
:1014F0000D4A5A639A634FF47A62C3E90F020B4AAA
:101500005A640122C3E912215A6503B05DF804FB55
:1015100000401C460080E3440024744B0813002064
:101520000000C8C30000FA430080A2446666E63F9C
:1015300083B5FFF7C1FF4FF40061174800F030FB9F
:101540000021084600F0B8FA4FF40067124E01A8D7
:1015500000F0A8FA00F058F848B100F05BF86946CE
:101560003046009700F0E2FC0098FFF71FFF019B58
:1015700093F82850012DEAD10024084806F05EFBBC
:10158000019B284683F8284006F073FF2146204639
:1015900000F092FADBE700BF0C130020400D0300BF
:1015A00008B513460A4601460548006802F064FA89
:1015B00028B1BDE808402F21024807F077BA08BDDE
:1015C000F0100020819700081022024BC3F8A020E1
:1015D000704700BF00E003501022024BC3F8A02068
:1015E000704700BF00D003500422024BC3F8A02074
:1015F000704700BF00D003500422024BC3F8A02064
:10160000704700BF00E00350014B1868704700BFEF
:101610000C3300200022024B01201A60704700BFEB
:101620000C3300200123034A1360034AC2F820341C
:10163000704700BF0C33002000E0035013B501F0E9
:1016400087FF00200A4901F09BFF012400230521A8
:101650001A460220CDE9004403F048FA054B06493A
:101660000648C3F8244402B0BDE8104005F034BA7F
:101670002516000800D00350919700089A9700089B
:10168000F8B52DED028B00260D4604469FED0D8A20
:101690000D4FAE4202D1BDEC028BF8BD208897ED14
:1016A000090A44F8040B796D00F08AFE97ED197A67
:1016B000B1EE400AC0EE077A67EE887A013644ED53
:1016C000017AE6E700007A441010002030B54D4B57
:1016D00093F8BF5093F8BE4093F8BC10D3F8AC20F9
:1016E000002D5CD0012C12D0042C26D05CBBDFED89
:1016F000467A93ED0D7ADFED456A37EE677AC7EEED
:10170000267AFCEEE77A0121C3ED2E7A19E0D96B37
:10171000B2EB510F17D3042193ED0E7A83F8BE106C
:10172000DFED397ADFED396A37EE677AC7EE267A70
:10173000FCEEE77AC3ED2E7A05E0D96B914202D830
:10174000052183F8BE100132C3F8AC2093F8BC2009
:1017500093ED2D7AD3ED2C7A002A4FD037EE277AED
:10176000D3F8B82083ED2D7A910107EE901AF8EEA8
:10177000677A77EE877AFCEEE77A17EE903A99422D
:1017800040F6FF7188BF03F1FF333F2A28BF3F2295
:101790008B4228BF0B4643EA0233036030BD042C62
:1017A000D1D801A555F824F0EF160008BD170008A0
:1017B000C9170008E51700083B170008D96BB2EB02
:1017C000910FC0D30221A7E7DC6BC4F35D04944200
:1017D000B9D8B1FA81F10324490983F8BE4083F8EE
:1017E000BC10B0E7D96B01EB4101B2EB910FAAD36A
:1017F000042193ED0D7A83F8BE1091E737EE677AF6
:10180000AEE700BF1010002000004843998809424D
:101810002DE9F04F8BB0984C984894F89450012DD6
:1018200049D1A368666FD4F888209B1BE16B9B1A93
:101830000F2B016040F31C8194ED0B6AD4ED0C6A10
:1018400007EE901A8E4E083BDB103360D4F88460AC
:1018500076EEC66A32448B4EF8EE677A326002EB5F
:101860008302894B86EEA77A1A600022874BDFED50
:10187000886A1A6094F8BF30002B00F08E80C7EEA3
:10188000267AF5EEC07AF1EE10FAD8BFF1EE677A5B
:10189000C4ED2C7AC6EE267A4FF00003D8BF00259F
:1018A0000122C4ED2D7A84F8BE30C4F8AC30794BF7
:1018B00084F8BC501A700568002D6AD0704BDFF8B0
:1018C000CC81D3F800902B464D4528BF4B46019361
:1018D000EB1A0360D8F80030002B61D1694B1F6808
:1018E0004FF0000B3B466B4E019A96F800A0013A70
:1018F0005A4557D84D4507EB820B00F2838005A867
:10190000FFF7E4FE059BBAF1000F23F07F4343F09D
:10191000484306934FF00A030CBF4FF073424FF059
:101920007A420BF10406079326F07F4323F48023C9
:10193000134343F480230893574B0422584606A9C7
:10194000099306F0B2FD0023CDE9063308934FF06A
:1019500001430422304606A9099306F0A6FDD8F8F3
:101960000030B3FA83F35B09C8F8003094F8943080
:101970007BB100234D4584F8943074D800230422B1
:101980004648C4E92772C4F8983084F8A43006F0B9
:10199000A0FD00200BB0BDE8F08F37EE077A6EE7B0
:1019A000394B9CE71A1D05A8CDE90223FFF78EFEEF
:1019B000059ABAF1000F22F07F4242F048420692A7
:1019C0004FF00A020CBF4FF073414FF07A41029B77
:1019D000079223F07F4222F480220A4342F48022BD
:1019E000039B08922C4A1846099206A9042206F085
:1019F0005CFD33780BF1010BB3FA83F35B093370B1
:101A0000029B71E7D8F800305BBB1F4B1B6805A831
:101A10000193FFF75BFE059ABAF1000F22F07F42B7
:101A200042F0484206924FF00A0207920CBF4FF074
:101A300073424FF07A42019B584623F07F4323F4D0
:101A40008023134343F480230893154B042206A9F3
:101A5000099306F02AFD3378B3FA83F35B093370F8
:101A60007DE7084BD2E7FFF7D3FE002886D091E749
:101A70006FF007008EE700BF101000202033002019
:101A80001C330020183300201433002010330020B2
:101A90009988093FDC120020010000C7A81000202F
:101AA000010000A718B1034B0360002070476FF0DE
:101AB000010070471010002000B593B0032848D8EB
:101AC000DFE800F0024E5A5F0A2006F07BFF0A288A
:101AD0005ED8314A92F86030002B3ED092F8BE308A
:101AE000052B3AD092ED057A92ED116ADFED2B6A63
:101AF00067EE065A03200023C5EEA67A0121FCEE0C
:101B0000E77ACDE900030223CDE90231049317EE11
:101B1000903A063B0F93D2E90F23B3FBF2F307EEA3
:101B2000903AF8EE677A77EEC67A67EE877A87EEB4
:101B3000A67AFCEEC77A17EE903A8DF8441004218D
:101B4000063B68460B9109910D930A910E9306F09E
:101B5000FAFC002013B05DF804FB6FF06300F9E7B6
:101B60000A2006F02FFF0A2812D8002006F08AFD6E
:101B7000002006F087FDECE70122074B83F8BD202B
:101B8000E7E700210120FFF797FF00F0ABFDE0E75A
:101B90006FF00800DEE700BF1010002000007A445C
:101BA0002DE9F04FABB004460A200E4606F00AFFBE
:101BB0000A2800F2A38102224FF08073CDE90323AB
:101BC0000023DFF864A303A8059306F0FFFB9AF84F
:101BD000602022B19AF80020012A40F0FA80002CFF
:101BE00000F08F81002E00F08C81DAF848200AAFD7
:101BF000002A40F04281DAF85020CAF8642000221E
:101C0000CAF868200025314620468AF8605000F066
:101C10003FFA012000F05CFA2946BB4806F02DF996
:101C2000BA4A06A80692013A07928DF82150ADF8FB
:101C300022508DF8245006F052F940F20112ADF80E
:101C40006020DAF84C204FF002081492DAF84820AD
:101C50004FF0030BAA42159214BF34224FF40D72B9
:101C60004FF014091792AA4A38461092CDE90A5546
:101C7000CDE90C55CDE90E951295CDF858B0CDF8BB
:101C80004C80ADF8445006F0C0FA442119A806F083
:101C90004EF821220A2301261992DAF8542019A8B5
:101CA0001B929AF85820CDE91D351C92CDF868801A
:101CB0008DF884601F96ADF8806006F034FB4FF01D
:101CC000014000F0CFF9284600F002FA02A901A86D
:101CD00000F0F2F90446002840F00C8149468D4896
:101CE00006F025F8029ADAF80810914240F20081D5
:101CF000DAF804108748CAF870100199CAF87420FD
:101D0000CAF87C10CAF86CB08AF8786006F0E1FB7B
:101D1000DAED066A9AED077A0A23C6EE877A9AF810
:101D20005820394619A8CDE91C34CDED207A1B92F4
:101D3000CDE9196600F07EFA304600F0C9F90420BA
:101D400006F0F8FB3146802006F097F84FF47A60F1
:101D500000F088F931464FF4807006F08EF80A984A
:101D600020F0404000F07EF921464FF4C07006F0AC
:101D700084F8204606F0DEFB06F017FE06A902A84E
:101D800000F09AF90446284600F0A2F9002C40F031
:101D9000B1804946604805F0CAFFDAF87400069938
:101DA000DAF808204518954280F0A280DAF8702011
:101DB000CAF880800244CAF88420029A5648CAF8B9
:101DC0009020CAF888108AF88C6006F082FB8AF8A6
:101DD00000400021084606F0E7FA00221C92DAF8DB
:101DE0005C2001251D92022219A8CDE91A258DF843
:101DF000645006F0AEFA4FF0FF3006F08DFD8AF821
:101E00009450FFF705FD0446002873D18AF8780046
:101E1000404806F05EFB284606F02BFBDAF86C0023
:101E200006F03AFB4FF40041012006F07AFD00284D
:101E3000F8D000254FF4004006F06EFD36488AF8D1
:101E40008C5006F046FB35488AF8A45006F041FB5A
:101E5000284606F00EFB294642F2640000F0DCFA48
:101E6000012006F006FBFFF7D5FB0321284606F00C
:101E700030F801228AF860203CE0382119A805F0EA
:101E800056FFDAED077AB5EE007AF3EE066A27EE32
:101E9000877ACDED1C7AC7EE267A9FED217A67EE20
:101EA000877AB0EE087A00220121DAF8180067EE8E
:101EB000877A1B900920CDE9211226918DF8941084
:101EC000DAF82010CDE923021A91DAF8481019A89F
:101ED000CDE91F1239461D928DF87820CDED197A83
:101EE00000F01AFC97E803000E4A82E8030089E636
:101EF0006FF0070420462BB0BDE8F08F6FF00804A8
:101F0000F8E76FF00104F5E7E0FF39000101010097
:101F1000000100087C10002090100020A810002074
:101F20000000003A7410002010100020F8B504469C
:101F30000A200E4606F046FD0A2856D8002006F074
:101F40002FFD0020306006F0FDFC8205054609D516
:101F50004FF4007006F0E0FCFFF75AFC08BB244881
:101F600006F01EFD15F000771CD006F028FA014699
:101F70000546204605F037FF4FF0007006F0CCFC18
:101F80001C4B93F8BD30012B02D1002006F07AFBE8
:101F9000174806F005FD29462046FFF771FB35601E
:101FA0000020F8BD2B04FBD506F009FA05464FF4D6
:101FB000004006F0B1FC2946204605F014FF2946F2
:101FC0002046FFF75DFB394635600120FFF774FDC1
:101FD0000122084B83F8282083F8BE7083F89420F0
:101FE00083F8BC20FFF714FCDAE76FF00800D8E7AD
:101FF000E5470A001010002030B50A4BC0F38700F7
:10200000D3E9032400239A4202D16FF0060005E0D1
:1020100014F82350854202D100200B6030BD0133FB
:10202000F1E700BF2433002030B50D4B5A69DC685E
:102030005D681444A5420ED91C698008251F1D61E6
:1020400004F8040C54F8040C013261F31F2044F826
:10205000040C5A6130BD6FF003029A61FAE700BFC9
:102060002433002010B5094BD9685A695C680A44CA
:10207000944295BF6FF003029A689A6142F821007A
:1020800082BFDA680132DA6010BD00BF243300205D
:1020900001290DD90022074BC3E9011001F180414C
:1020A0000139C3E9052200EB81001861DA601A707A
:1020B000704700BF24330020044B08B19A680260C7
:1020C00009B1DA680A609869704700BF24330020BC
:1020D000034B18B100220120DA609A611870704732
:1020E0002433002030B587B0C3680446012B0D4669
:1020F00020D10368022B33D10522234B18681B79AA
:1021000002908DF80C30214B18681B7904908DF8E3
:1021100014300DF10703207902A905F0ABFD78B367
:1021200001209DF8073018336B4413F8083C2B70DE
:1021300007B030BD23BB0368022BDDD1144B1A88D6
:102140009B78ADF808208DF80A30124B1A889B78DE
:10215000ADF810208DF8123003220DF10703DAE7F5
:102160000D4B062218689B880290ADF80C300B4B83
:1021700018689B880490ADF814300DF10703CAE786
:1021800000202870D4E700BFB6970008BC9700086D
:10219000C2970008C6970008CA970008D1970008A0
:1021A00030B587B0C3680446012B0D461CD10368C7
:1021B000022B28D140F60733ADF8083040F20A531D
:1021C0000222ADF810300DF10703207902A905F0C5
:1021D00051FD40B301209DF8073018336B4413F8CC
:1021E000083C2B7007B030BDEBB90268022AE1D180
:1021F00040F60933ADF8083040F60F23ADF8103043
:102200000DF10703E1E7094B062218689B8802904D
:10221000ADF80C30064B18689B880490ADF814306C
:102220000DF10703D1E700202870DBE7D8970008FD
:10223000DF970008F0B59BB0002484460F465F4D41
:102240000DAE0FCD0FC60FCD0FC60FCD0FC655F873
:10225000043B0294336003AE95E80F0086E80F005C
:102260003C60644634B3DCF80C300B2B22D8DCF82D
:102270000820022A1ED8DCF8101003291AD8DCF82E
:102280000000042814D8DFE800F003173273490077
:102290001422DCF804309CED077A534307EE903AA1
:1022A000F8EE677A67EE877AFCEEE77ACDED027A90
:1022B000029B3B601BB0F0BD1421DCF80430DCED68
:1022C000076A4B431AA901EB820252F85C2C2833AF
:1022D0005343143307EE903AB6EE007AF8EE677A7D
:1022E00007EEA67ABCEEC77A8DED027AE0E71AA96E
:1022F00001EB8303DCF8042053F8343C604602FB16
:10230000033301220133CCE9002302A9FFF792FF36
:1023100002232360029B0F330293C9E79CF8181035
:1023200007A80A910DF10601CDE90723FFF7DAFEB0
:10233000054618B19DF80650013DEDB20DF10701BB
:1023400007A8FFF72DFF20B19DF80730013B2B4474
:10235000DDB202232360636820462B44636002A938
:10236000FFF768FF0423236063685B1B63609FE7DC
:10237000DCF81430032B09D8DFE803F00F0D021648
:1023800000232360204602A9FFF754FF03232360A4
:10239000029B1933C0E70123F3E79CF81930002BA7
:1023A0000CBF04230223ECE701231944CCF80030CE
:1023B000DCF804308B40CCF80430E3E77898000870
:1023C000A0F5004007EE900A0139F8EEE77A0329FC
:1023D0000CD8DFE801F002071619B7EE087AC7EE4D
:1023E000877A03E0B6EE007A67EE877A67EE807A46
:1023F0009FED077A9FED070A67EE877A27EE800A3E
:102400007047B5EE007AEFE7B2EE027AE7E700BF79
:1024100000000038110E813FF7B5274F04463B7886
:102420000E46012B26D1B0F5085F04D36FF00403EC
:10243000BB6103B0F0BD01A9FFF7DEFDA50505F006
:10244000FE4526F07F431D4345F0004568B9019ADB
:102450003B6953F8221066F31F2143F822102846E7
:1024600003B0BDE8F040FFF7FDBD31462046FFF761
:10247000DBFDF4E7FFF7A8F8202005F026FC204656
:1024800005F005FCFFF7A8F8FFF79EF82D2005F0F2
:102490001CFC42F21403A4F58054A4B29C4207D859
:1024A000304605F004FC03B0BDE8F040FFF794B8F7
:1024B000B0B205F0ECFBF6E72433002037B50F4D42
:1024C00004462B78012B14D101A9FFF795FD48B1E3
:1024D000204605F005FC01462046FFF7A5FD08460D
:1024E00003B030BD2B69019A53F82210C1F31721B4
:1024F000F5E703B0BDE8304005F0F2BB243300201F
:1025000030B59DB0002470222049684606F025FEB3
:102510001F4B6D46C3E90544DC601C70FFF75CF897
:10252000696828880134FFF777FF0E2C05F108054C
:10253000F6D140F20440FFF7C1FFA0F5AA43013BEA
:10254000012B014606D9B0F5AA4F1CD0114804F062
:10255000C3FAFEE70123104C1048237004F0BCFAC4
:1025600021780F4A0F4B104800290CBF114619461D
:1025700004F0B2FA0123022200210C481DB0BDE88C
:10258000304004F0A9BA0023E5E700BF2499000811
:1025900024330020EC970008A73800201E9800087C
:1025A000E9970008E69700082C9800084998000869
:1025B0001FB5074B68460093013B0193012302932B
:1025C00000238DF80C3005F08AFC05B05DF804FBA3
:1025D00001010100FFB40A2905460B4627D802294C
:1025E00009D90831C90011431DB342F2F40004B007
:1025F000F0BCFFF711BF6E460F4C04F1080C3746D4
:1026000020686168083403C764453E46F7D12068F6
:10261000A1793860A088042AB880B97107D803EB83
:10262000830310336B44134413F8101CDAE7F821CA
:10263000D9E742F2F800DAE794990008F5EE400A8B
:10264000124B1B78012B0CBF1E221A22F1EE10FA3E
:102650001AD00123934007EE903AF8EEE77A27EE7E
:10266000800AB6EE007AC0EE207A77EE877AFCEE2A
:10267000E77A1A2A064817EE903A18BF6FF07F40A3
:10268000984228BF1846704700207047A73800209E
:10269000FFFF0F0010B50446042006F03DF90121AC
:1026A0000F4805F0EAFB012005F0C8FA04210120DB
:1026B00006F037F950B14FF40250FFF7FFFE044621
:1026C0000021074805F0D9FB204610BD23685A1C9D
:1026D000E9D0013B2360002BE5D11C46F0E700BFA9
:1026E0000001010000B595B00D2101A805F01FFB08
:1026F0003C2105A805F01BFB01A805F0F0FB05A88F
:1027000005F083FD034806F04BF906F04EF915B0CD
:102710005DF804FBE5470A002DE9F04F2DED028B33
:10272000E9B00446AD4E6C22884630A8AC490BADEA
:1027300006F013FD0FCE0FC533682B60002C00F0A0
:10274000E48294ED018AB5EE408AF1EE10FA00F0D1
:10275000D982A3695A1E192A00F2D482B8F1000F57
:1027600000F0D38294ED037ADFED9E7AB4EEE77A3F
:10277000F1EE10FA68AA02EB830318EE100ACCBF40
:102780000126002653F8E07C03F0BEF80022964BA9
:1027900003F012F9824638468B4603F093F80B4655
:1027A00002465946504603F031FA03F09FFB9FED75
:1027B0008F7A06EE900AC6EE877ADFED8D6A67EEB5
:1027C000A67A77EEA77AFCEEE77A17EE905A40F2F7
:1027D000165301356D089D4228BF1D4607EE105A5D
:1027E0009FED846AB8EEC77A27EE067A87EE266AEE
:1027F000DFED816A07EE907A78EE266AF8EE677A66
:1028000086EE267A27EE277AC7EE276A9FED7B6A47
:1028100066EE886AC6EE267AF2EE026AF4EEE67A90
:10282000F1EE10FAD4ED008A80F2B081F1EE005A98
:10283000F4EEE57AF1EE10FA80F2AB81F0EE005A98
:10284000F4EEE57AF1EE10FA80F2A681F7EE085A7E
:10285000F4EEE57AF1EE10FAACBF4FF0010A4FF05A
:10286000000AC6EE077AF4EEE67AF1EE10FA80F28C
:102870009681B1EE007AF4EEC77AF1EE10FA80F2AA
:102880009181B0EE007AF4EEC77AF1EE10FA80F2A0
:102890008C81B7EE087AF4EEC77AF1EE10FAACBF8D
:1028A0004FF001094FF000090BAB03EB890203EB7A
:1028B0008A0392ED007AD3ED007A4FF4005087EE50
:1028C000278AFFF7FBFD029043F20C00FFF7F6FDAD
:1028D000012206210190104606F006F84FF0FF3065
:1028E00006F01AF80021464805F0C7FAFFF760FE27
:1028F00044211FA805F01BFA032301272493636AD0
:102900000C222393236A04F1280186F001062AA8E9
:1029100022932596ADF898708DF89C7006F01DFCFA
:102920001FA805F000FD3C2110A805F000FA23695E
:1029300000261A1E1893E36918BF01221C9340F267
:102940000113ADF878300423CDE9102711221A9332
:10295000A369CDE914261B93237D2A4ABB4214BFE9
:102960004FF4A0734FF4B0731692202210A8ADF864
:102970005C201D93CDE91277199605F046FC742171
:102980004BA805F0D4F923690522B3420CBF3B469E
:1029900002235F934FF01F0362934FF00B03CDE9C7
:1029A0006432CDE966324FF0FF03F5EE408A519371
:1029B00014BF812341234FF4106BCDE94B37F1EE67
:1029C00010FA4FF40073CDE94F66CDE94D3B8DF819
:1029D0008C61609640F0EC8016E000BF7C9A0008A5
:1029E000109A00080050C34B000099400080094530
:1029F00000E0FF440000FA440000C84200803B456C
:102A0000E0FF3900000100084FF0FF324BA80992A7
:102A10005E955296ADF84C6105F060FB05F50060DF
:102A200005F06EFB39464FF4994005F026FA4FF455
:102A300000734BA8CDE94D3BCDE94B7705F0A4FAE7
:102A40004FF47A7005F0FAF8242214211FA8CDE97A
:102A50001F21CDF884A005F0E2FB322005F0EEF84E
:102A600009A8FFF717FE03902069CDF88490B042C3
:102A70000BBF0225032521202220CDE91F051FA819
:102A800005F0CDFB322005F0D9F809A8FFF702FECA
:102A9000054620694FF40073B04214BF81204120E5
:102AA000CDE94B074BA8CDE94D3B05F06DFA4FF44E
:102AB0007A7005F0C3F8242214211FA8CDE91F2144
:102AC000CDF884A005F0ABFB322005F0B7F809A8DB
:102AD000FFF7E0FD039BCDF88490C01A2369CDE990
:102AE0000506B3420BBF02220322212322231FA883
:102AF000CDE91F3205F093FB322005F09FF809A8BD
:102B0000FFF7C8FD401BCDE90706089B05A95B42FE
:102B10000893069B07A85B42069305F00CF994ED19
:102B2000017AC7EE087A27EE800A67EEA07A636B17
:102B30008DED090ACDED0A7A002B40F0D88088EDA2
:102B4000000AC8ED017A019B13F0020203D10221B1
:102B5000012005F0C9FE019B13F0040203D10421FA
:102B6000012005F0C1FE00244FF400500299FFF748
:102B700053FC4BA8CDE94B44CDE94D4405F004FA94
:102B8000204669B0BDEC028BBDE8F08F4FF0040A1F
:102B900067E64FF0030A64E64FF0020A61E64FF081
:102BA000040981E64FF003097EE64FF002097BE657
:102BB000D4ED020A94ED000A5B95FFF73FFD022574
:102BC0005A904BA8CDE95C665E965295ADF84C6183
:102BD00005F084FA284605F09FFE39464FF4406020
:102BE00005F04BF9642005F029F8242314221FA8CE
:102BF000CDE91F32CDF884A005F011FB39464FF422
:102C0000814005F03AF9192005F018F839464FF4DB
:102C1000014005F032F90221012005F082FE002872
:102C2000F9D000214CF2801005F027F9022005F0C0
:102C300073FE42F27800FFF741FC0590064642F22F
:102C40007C00FFF73BFC23690690002B0BBF0222A0
:102C500003222123222305461FA8CDE91F32CDF8E8
:102C6000849005F0DCFA01214FF4814005F005F96C
:102C7000192004F0E3FF01214FF4014005F0FDF8B5
:102C80000221012005F04DFE0028F9D000214CF270
:102C9000801005F0F2F8022005F03EFE42F27800C6
:102CA000FFF70CFC0746079042F27C00FFF706FC9A
:102CB000B30342BF6FEA86366FEA96360596A903DC
:102CC00042BF6FEA85356FEA95350695BA0342BF74
:102CD0006FEA87376FEA97370797830344BF6FEA36
:102CE00080336FEA9333089048BF08930DE709A833
:102CF00005F044F809A888ED000A05F057F888EDBA
:102D0000010A20E76FF001003BE76FF0020038E7AF
:102D10002DE9F0412DED028B9EB00E4604460028B1
:102D200000F0BA80002900F0B78090ED017AF7EE4C
:102D3000007AB4EEE77AF1EE10FA00F1B08004A860
:102D400005F07CFB43F20C00FFF7B8FB01220125E4
:102D500000274FF400418046104605F0C5FD4FF0B6
:102D6000FF3005F0D9FD01A8CDE90155039705F025
:102D70002DFB4C4B07A80B932368079708930995E5
:102D80008DF8285005F0A5FB236807A82B4408936D
:102D9000454BB6EE008A0B93079505F09AFB94ED30
:102DA000017ADFED427A07EE278A0423BCEEC88A57
:102DB000199318EE103A053B159303231A934FF01D
:102DC000FF330CA81693CDE90D758DF874700C9532
:102DD00005F0B9FB4FF4004005F09EFD284605F0D4
:102DE00051FC4FF40041012005F09BFD0028F8D074
:102DF00005F0A5FB0746002005F044FC0422002056
:102E0000114605F053FC236807A8013308930223F9
:102E10000993274B0B9305F05CFB012005F029FB80
:102E20004FF4004005F078FD012005F02BFC4FF435
:102E30000041012005F075FD0028F8D005F07FFB6A
:102E40004FF400410546002005F06BFD002005F021
:102E500019FC04A805F0BAFA4FF400410120C8F3A8
:102E6000C03205F041FD4FF4004005F055FDD4EDB2
:102E7000027AB8EE488AED1B28EE278A07EE905AB0
:102E8000F8EE677A88EE277A002086ED007A1EB089
:102E9000BDEC028BBDE8F0816FF00200F7E76FF048
:102EA0000100F4E7749800087098000800000042E0
:102EB0006898000810B51E4C01F024FA236F23F027
:102EC000070343F00203236705F0CFFED4F8203157
:102ED000002023F0030343F00103C4F82031D4F8A9
:102EE000243123F0070343F00103C4F82431D4F85C
:102EF000403123F0030343F00103C4F84031D4F818
:102F0000603123F0030343F00103C4F86031D4F8C7
:102F1000403223F0030343F00103C4F84032D4F8F5
:102F2000003223F0070343F00103C4F8003210BD60
:102F300000800050024B0349186800F0F7BB00BF47
:102F4000F0100020D010002008B50122074B1A70A5
:102F50000022074B1A700422064B1A701F22064BE0
:102F60001A7002F0C5F8054B186008BDDF1200208A
:102F7000A8380020DE120020DD120020C43300201B
:102F80000348044A0449121A921005F07CBD00BFA0
:102F900048A6000848A60008B438002008B500F08C
:102FA0002FF8FFF7EDFF124B12498B4212D300208E
:102FB000114B12498B4218D3FEF7BEF9186850F82E
:102FC0002240586840F82240013298688242F5D386
:102FD0000C33EAE70022F8E71C6844F822000132CB
:102FE0005C68A242F8D30833E4E70022F8E700BFA8
:102FF00050A300085CA300085CA300085CA30008C1
:1030000010B54FF400414FF0FF30114B114A9A6058
:10301000D3F8882042F47002C3F888200E4A9166E3
:1030200001F1884101F5005210660C4850660220FB
:10303000C3F8D000BFF34F8FBFF36F8F08244FF456
:1030400040330748C0F88041D36004600B6110BD75
:1030500000ED00E000000008009000507FFF070036
:1030600000E100E0014B1868704700BFF810002035
:10307000084B1B6F03F00703022B04D0032B05D072
:10308000012B05D0FEE7044B18687047034BFBE7A4
:103090000348704700800050F81000200011002005
:1030A000002D310108B5FFF7E3FF054B1B6FC3F39C
:1030B00003330133B0FBF3F0024B186008BD00BFCF
:1030C00000800050F41000200048704700B4C40491
:1030D000014B1868704700BF00110020004870477E
:1030E000002D3101014B1868704700BFFC10002013
:1030F0000346054A0549106803448B428CBF4FF0D4
:10310000FF301360704700BF041100200000012051
:1031100008B501213A2000F0BDFE0123042203215D
:10312000002001F051FD002005F0F3FD0122334B9A
:103130003349C3F84424334BD3F8FC2012F0807F8A
:1031400046D1D1F8803023F0030343F00103C1F8E6
:1031500080304FF4607000F0C7FE2A4B00F5D52098
:10316000D3F8F02000F2FC4042F00102C3F8F02056
:10317000D3F8FC2042F08072C3F8FC20224AA3F569
:103180005D431A60214B0222B0FBF3F0204B013863
:103190001861C3F8F0204FF48072C3F804234FF095
:1031A00060431C4A0020C3F8B02F1B4AC3F8802E8E
:1031B000D3F8002E42F48072C3F8002EFF2283F869
:1031C0002020D3F8002E22F48072C3F8002E08BD10
:1031D000D3F8FC2022F08072C3F8FC20D1F88020C4
:1031E00022F0030242F00102C1F88020D3F8FC2053
:1031F00042F08072C3F8FC20ABE700BF00D0035060
:103200000080005000ED00E0FF030040F8590D0081
:10321000000004E055CEACC50900010030B54FF008
:103220006043D3F8802ED20715D501240B4D84407E
:10323000D5F8FC2042F08072C5F8FC20D3F8002EAF
:103240002243C3F8002E53F82020002AF0D003F8C0
:103250002010002030BD1120FCE700BF00ED00E091
:103260002DE9F04F85B09A46554B06461B780F4620
:103270001546DDF83C909DF844B0DDF85080002BF9
:1032800000F09780072A00F296800E9B002B00F03A
:103290009280B9F1000F00F08E80129BB3F5006FA1
:1032A00000F38980012803D1109B002B00F083805C
:1032B000444B03EB05131B7B002B7ED0424C1022AA
:1032C0000021684605F030FF04EB45141022A7BB2F
:1032D0003946204605F028FF43F210036380BBF116
:1032E000000F03D1E37843F00303E370364A0E9BEB
:1032F00002EB451CCCE90193129B6901581E9DF815
:103300004C30C0F30A0003F003039B0643EA001E9F
:1033100053582E48012E00EA03004EEA0003CDF870
:1033200000A0535017D0B8F1000F2ED19CF80230F6
:1033300068F304138CF8023027E00021204605F0E2
:10334000F3FE4FF444736380BBF1000FCED1E378FA
:1033500043F03003C9E713230CF1100ECCF80C3006
:103360009CE80F008EE80F006FF00301DCF81C20D2
:10337000109B61F39F02012FCCF81C20CCF8143075
:1033800003D1CCF81890CCF8043000270D4A29015D
:1033900002EB051342F80180159A28465A606946E7
:1033A00022469F605E7301F0A1FC384605B0BDE87F
:1033B000F08F0748FAE70748F8E70748F6E700BF45
:1033C000A9380020C8340020C83300200F80FFF344
:1033D000028000F0018000F0078000F038B5124B49
:1033E00005461B78DBB1E0B105F05BFC0F4A00231A
:1033F0001146147B54B92B6001251A0101EB03130C
:103400001D738C5005F053FC204638BD0133082B4A
:1034100002F11002EDD105F04AFC0548F5E7054838
:10342000F3E70548F1E700BFA9380020C8340020C1
:10343000048000F0028000F0018000F013B5154B0D
:103440001868002301908DF8043005F02AFC124B17
:103450001C7824B105F02BFC104802B010BD0122ED
:103460001A7005F024FC0E4B01A81C731C7783F81E
:103470002C4083F83C4083F84C4083F85C4083F850
:103480006C4083F87C4008238DF8073001F0E4FBA2
:103490002046E2E7909A0008A9380020038000F057
:1034A000C83400202DE9F041174B1F6D5B6D1F40A4
:1034B00000D5FEE701260025144CDFF8588037427E
:1034C00018D02368C8F85060A3B1A168284601311C
:1034D0006268A1609847637B012B0BD150B90C4BFC
:1034E00003EB45131A7B60F341021A731A7F60F3F2
:1034F00041021A770135082D4FEA460604F11004FF
:10350000DDD1BDE8F08100BF00000450C8340020C8
:10351000C83300200020045070B5012504460B4E2E
:1035200004B970BD94FAA4F0B0FA80F005FA00F383
:1035300006EB001224EA03045368002BF0D0117B41
:1035400011B191689847EBE79847E9E748350020C3
:1035500008B51E2000F00AFF28B14FF08042074B4B
:10356000C3F880211A601F2000F000FF28B14FF03F
:103570000042024BC3F880211A6008BD00E100E060
:1035800038B505460C4605F08CFB0022044B03EBD6
:1035900005135C601A73BDE8384005F088BB00BFB6
:1035A00048350020074BD3F82404D3F8202403F532
:1035B0000053104000F0553020F05020C3F8200494
:1035C000FFF7AABF00C00350074BD3F82404D3F879
:1035D000202403F50053104000F0AA3020F0A02072
:1035E000C3F82004FFF798BF00C0035038B5144655
:1035F00005F057FB0023A36484F84C302364237F39
:103600000546012B03D104F1600001F063FE636BFA
:103610001BB100212046E26B9847284605F047FB86
:10362000A36D002B03DCBB21034805F03FFAA36D1B
:103630000120013BA36538BD949A00082DE9F047AD
:1036400086B01E46002380F854300E9B0446436328
:1036500090F85C3088469146C663002B37D14FF412
:10366000406305686B614369092B03D905F12C039D
:10367000443506E00BBF05F1200305F1240338357E
:103680003C3567694FF0010A082F94BF00270127D6
:10369000A26D0132A265124A0494CDE9027201962C
:1036A000CDF800A04A46216BA06A05F025FA002358
:1036B000CDE90167CDE90333CDF800A043462A46A2
:1036C000E16A606A05F0FEF906B0BDE8F087012BFB
:1036D000FAD1006805F099FA256805F13C03C7E7BF
:1036E000ED35000838B50546B0B1B9B1B2B1B2F5A3
:1036F000006F13DC05F0D5FA95F84C3003F0FF04A9
:103700001BB105F0D4FA064838BD012385F84C30CA
:1037100005F0CDFA2046F7E70248F5E70248F3E75F
:10372000032000F0012000F0022000F02DE9F0411C
:103730008EB0BB4BD1F80080054698450C4606AFCD
:1037400040F0B580BC46B74E05970FCEACE80F00F1
:1037500096E80F0010368CE80F000FCE0DF1040C28
:10376000ACE80F00002D00F0828184220021284661
:1037700005F0DAFC0023AB652368434503D0AA4873
:103780000EB0BDE8F08154222B6001232A65274644
:103790004FF48812A54885F85C302E1DC5E90B0250
:1037A0000FCF0FC697E80F0086E80F00637E012B4E
:1037B00008BF8DF81D30A37E33B1012B6FD0022BD3
:1037C00002D0032BDBD10623227E8DF81230012A92
:1037D000E36866D1964A93428CBF04230523059A79
:1037E000537700238DF81130924B01213A20039337
:1037F00000F050FB0121286D00F04CFB2369DA1F1B
:10380000092ABCD8063B8DF81030237E2BB9E37E05
:10381000B3FA83F35B098DF81C300121284605F0CB
:103820008AF90028ACD1237A227942EA0342824BFA
:10383000C3F8A424617A627942EA0142C3F89C2465
:10384000A17AA27942EA0142C3F8A024E27E62BBD7
:10385000E17AE27942EA0142C3F890241D2220680D
:10386000C3F88C2401A901F005F805F01AFA734B8E
:103870001A78002A40F0F08001221A7005F017FA39
:1038800001F0EEFCFFF7DAFD002105F12400FFF75F
:10389000A5FD0146002800F0E280694870E7042396
:1038A00092E700228DF834209FE71C22D7E73E469E
:1038B000DFF8A0C1BCE80F000FC69CE8070086E84F
:1038C0000700002D00F0D380002684220021284626
:1038D00005F02AFC22685B49AE658A420AD05A4B41
:1038E0009A427FF44CAF4FF0290C4FF4A0210126EF
:1038F000564804E04FF0280C4FF480215448002330
:10390000A64685F85C30C5F850C005F1040CC5E941
:103910000B012A60BEE80F00ACE80F009EE80F0024
:103920008CE80F00637E012B08BF8DF82630A37E44
:1039300043B1012B60D0022B61D0032B7FF41FAF6A
:103940004FF44073ADF82830237E0121012B03BFD3
:1039500000238DF825304FF4E133E3683A200893D3
:1039600000F098FA0121286D00F094FA23691A1FDB
:103970000C2A3FF604AF033B394620688DF824300B
:1039800001F000FBA36923F47F0323F47F4323B9F1
:103990002A68936843F480339360237A27796079A7
:1039A00047EA0347637AA17940EA0340A37A224AAF
:1039B00094F81BC041EA034173011A44BCF1000FA3
:1039C00020D11D2603F1A04303F57033C2F83466FD
:1039D000C2F84C76C3F84406C3F84816E17AE37996
:1039E00043EA0143C2F838360121284605F0A3F81E
:1039F00000287FF4C5AE38E74FF40073A2E74FF418
:103A000080739FE71C2403F1A04303F57033C2F8D1
:103A10003446C2F84C76C3F84406C3F84816E3E7C8
:103A20000000045AE89A0008022000F0010011008A
:103A30003F4B4C0040420F0000C00350AA3800200A
:103A4000092000F000C005500000065002000500EB
:103A5000020004001C9B000805F029F912E705F19B
:103A60002800FFF7BBFC00283FF48AAE15E70148A9
:103A700086E600BF012000F0F7B51E46037F04462E
:103A8000012B0F46154612D03246FFF72BFE60B9C8
:103A90007DB1094B2A463946204600933346FFF74D
:103AA000CDFD204605F0BCF8A06C03B0F0BD034886
:103AB000FBE70348F9E700BF2D8B0008082000F062
:103AC000022000F0044BD3F88420D206FBD4D3F8B4
:103AD0008400C0F3811070470040005038B50F4B90
:103AE0000546D3F880300C4603F00303012B09D0C0
:103AF000022B0FD00A4841F2DF1104F0D7FF002358
:103B0000184602E0FFF7B4FA0D2305B1286004B1AE
:103B1000236038BDFFF7A6FA0623F6E700800050C1
:103B2000389B000838B5104B0546D3F820310C46B9
:103B300003F00303022B0BD0032B0DD0012B0FD16D
:103B4000FFF790FA052305B1286004B1236038BD62
:103B5000FFF7BEFA0323F6E7FFF7C0FA0223F2E706
:103B600001230020EFE700BF00800050F7B50027D9
:103B7000114B0197D3F88041064604F00304012C51
:103B80000D4608D0022C12D041F2B1310B4804F09E
:103B90008DFF3C4604E0394601A8FFF7C3FF0F2420
:103BA0000EB1019B336005B12C6003B0F0BDFFF78F
:103BB00095FA0190F4E700BF00800050389B0008A0
:103BC00038B51A4B0546D3F824010C4600F007001F
:103BD000062821D8DFE800F0280410181C0C140077
:103BE000FFF740FA052305B1286004B1236038BD12
:103BF000FFF738FA0623F6E7FFF76AFA0323F2E73E
:103C0000FFF766FA0423EEE7FFF768FA0223EAE714
:103C100004F044FF0723E6E7054840F6A87104F0E6
:103C200045FF00231846DEE70123DCE70080005053
:103C3000389B000838B5104B0546D3F840310C4688
:103C400003F00303022B0BD0032B0DD0012B0FD15C
:103C500004F026FF092305B1286004B1236038BDB4
:103C6000FFF740FA0823F6E704F01DFF0B23F2E705
:103C700001230020EFE700BF0080005037B50C465D
:103C80000021124B0191D3F88432054603F003035F
:103C9000022B0ED0032B11D0012B14D101A8FFF75A
:103CA00041FF0F230DB1019A2A6004B1236003B0D4
:103CB00030BD01A8FFF7BEFF1023F3E7FFF70EFAB0
:103CC00002230190EEE70123ECE700BF00800050E3
:103CD00038B5164B0546D3F800020C4600F0070035
:103CE000042819D8DFE800F020030B0F130004F0BC
:103CF000D7FE092305B1286004B1236038BDFFF762
:103D0000F1F90823F6E704F0CEFE0B23F2E7FFF704
:103D1000C9F90E23800AEDE7054841F26F4104F02E
:103D2000C5FE00231846E5E70123E3E700800050C5
:103D3000389B000838B5124B0546D3F840320C4684
:103D400003F00303022B0BD0032B0DD0012B0FD15B
:103D500004F0A6FE092305B1286004B1236038BD34
:103D6000FFF7C0F90823F6E704F09DFE0B23F2E706
:103D7000044841F2FA3104F099FE00231846EAE7BC
:103D800000800050389B000838B5104B0546D3F82A
:103D900060310C4603F00303022B0BD0032B0DD034
:103DA000012B0FD104F07CFE092305B1286004B17A
:103DB000236038BDFFF796F90823F6E704F073FE99
:103DC0000B23F2E701230020EFE700BF0080005043
:103DD00010B5B0F5207F2ED009D8B0F5007F24D0E3
:103DE00003D868B1B0F5C07F0AD000241BE0B0F55D
:103DF000607FFAD1124BD3F88040C4F3011412E073
:103E00000F4B1C6F230B13F00E0FC4F303340AD0B7
:103E1000072C08D00F2C06D0032C04D040F28521AB
:103E2000084804F043FE601C10BD054BD3F89040D9
:103E3000C4F30464F7E7024B1C6FC4F38024F2E779
:103E400000800050389B000810B54FF400320E4B34
:103E500004469A660020FFF7BBFF604341F67132CB
:103E60000A4C0B4BA04294BF00200120D969DA63B1
:103E70005A6822F4401242EA00525A60CA0344BF10
:103E80000022DA6310BD00BF00900050005A6202A9
:103E90000000035070B5460904460D460ED140F2AD
:103EA0002F310D4804F002FE334604F01F047DB1AB
:103EB00003F580530122A2401A6070BD012E05D087
:103EC000064B074A022E18BF1346EEE7054BECE7F8
:103ED00003F50053EEE700BF389B000868800050F0
:103EE000608200506480005030B585B00021802889
:103EF0000446CDE9001100F00E8100F2C1803F2898
:103F000038D9A0F14D04142C05D940F29441A948A8
:103F100004F0CCFD02E1142CF7D801A353F824F0EF
:103F20009F4000080B3F00089F4000089F4000088A
:103F30009F40000857410008BD400008614100084B
:103F40000B3F00080B3F00080B3F00080B3F000829
:103F50000B3F00080B3F00080B3F0008AB41000877
:103F60000B3F00080B3F00080B3F00089F40000874
:103F70009F4000083F28C8D801A353F820F000BF95
:103F80009F4000080B3F00080B3F00080B3F000854
:103F90000B3F00080B3F00080B3F00080B3F0008D9
:103FA0000B3F00080B3F00080B3F00080B3F0008C9
:103FB0000B3F00080B3F00080B3F00080B3F0008B9
:103FC0000B3F00080B3F00080B3F00080B3F0008A9
:103FD0000B3F00080B3F00080B3F00080B3F000899
:103FE0000B3F00080B3F00080B3F00080B3F000889
:103FF0000B3F00080B3F00080B3F00080B3F000879
:104000009F400008374100089F40000837410008E2
:104010005741000857410008574100085741000820
:1040200037410008374100086B410008BD400008D7
:10403000974100080D410008BD40000837410008C5
:1040400037410008374100080B3F00080B3F0008CC
:104050000B3F00080B3F00080B3F00080B3F000818
:104060000B3F0008EF4000083741000837410008C7
:1040700037410008AB410008A14100083741000862
:10408000B0F5806F67D024D8B0F5007F49D009D84B
:10409000B0F5807F6ED0B0F5C07F7FF436AFFFF70C
:1040A00001F83AE0B0F5607F50D03FF62EAFB0F5A2
:1040B000207F40D0B0F5407F7FF427AFFEF7F2FFBE
:1040C00004464FF42070FFF783FEB4FBF0F464085D
:1040D0003AE0B0F5C06F5ED00ED8B0F5A06F3FD01B
:1040E000B0F5B06F41D0B0F5906F7FF40EAF002106
:1040F0006846FFF765FD11E0B0F5E06F50D0B0F510
:10410000F06F52D0B0F5D06F7FF4FFAE002168465B
:10411000FFF7DEFD02E0FEF7ABFF0090009805B070
:1041200030BDFEF7A5FF05462046FFF751FEB5FB63
:10413000F0F50095F2E7FEF7B5FF04464FF4207066
:10414000FFF746FEB4FBF0F40094E7E701A8FFF7A1
:10415000C5FC019DE8E700216846FFF7E3FCDDE7C9
:1041600000216846FFF78AFDD8E700216846FFF77F
:10417000FDFCD3E74FF0E02302911B695B0705D5F7
:10418000FEF790FF0290029B0093C7E703A902A8E5
:10419000FFF750FDF7E700216846FFF74BFDBDE74D
:1041A00000216846FFF7C6FDB8E700216846FFF723
:1041B000EBFDB3E7389B000808B58020FFF794FEBD
:1041C000034B98429EBF4FF48032024B1A6708BDE2
:1041D000005A620200A0005038B5B0F5207F77D0B9
:1041E0000ED8B0F5007F61D003D890B3B0F5C07F92
:1041F0002FD040F21231BDE838403D4804F056BCA3
:10420000B0F5607FF5D13B4A4C1ED2F8FC5015F05A
:1042100080751EBFD2F8FC3023F08073C2F8FC30EA
:10422000032C04D940F2F221314804F03FFC324A19
:10423000D2F8803023F0300343EA0413C2F8803010
:1042400035B12C4AD2F8FC3043F08073C2F8FC3010
:1042500038BD4C1E012C0AD9102903D8274BCB405E
:10426000DB0704D440F2C721214804F01FFC04F00E
:10427000E9FC04F0F5FC4FF48031214B1E4A19672C
:10428000136F23F4704343EA04331367FEF70AFF06
:104290000446FFF717FCC0F10201204604F0DAFCE7
:1042A00000F040F8BDE83840FFF786BF4C1E1F2CD9
:1042B00004D940F206310E4804F0F8FB0E4AD2F859
:1042C000903023F0F85343EA0463C2F89030BFE71C
:1042D0004C1E012C04D94FF44371054804F0E6FB51
:1042E000054A136F23F4806343EA84231367AFE71F
:1042F000389B000800ED00E0008000501001010034
:104300000090005008B50121022000F091F804F05F
:1043100099FC04F0A5FC4FF48032014B1A6708BDEC
:104320000090005008B54FF4C070FFF7DDFDBDE808
:1043300008400449884294BF012102214FF42070B3
:10434000FFF74ABF80F0FA020028ABBF00F16040DF
:10435000054B00F5614000F00F00ACBF90F8000382
:10436000185C0009704700BF14ED00E010B5C3B23F
:10437000422B044604D94FF44D71074804F096FBD4
:10438000064B620953F8220004F01F04E040C043CA
:1043900000F0010010BD00BF839B000800E100E0B9
:1043A00010B500F10C03DBB24E2B044604D940F2E9
:1043B000C221144804F07AFBEFF31083DB0702D527
:1043C0000122104610BD2046FFF7D0FF024600280C
:1043D000F6D12046FFF7B8FF0146EFF3118313B182
:1043E000B0EB131FECD2084B5B68C3F30803002B40
:1043F000E7D0103B58B2FFF7A7FF88428CBF0022DE
:104400000122DEE7839B000800ED00E0024A136C06
:10441000DB07FCD4704700BF00400950034A017914
:10442000D36E23F030030B43D36670470040005037
:10443000F8B50446244BD3F88420D006FBD4D3F837
:104440008430C3F381139C423CD0FEF711FE012C53
:1044500005460BD11D4B984204D940F292711C487D
:1044600004F024FB0121284604F0F4FB04F012FCC4
:104470004FF00072174B07465A66204604F01AFCAC
:104480004FF48063104E621E93403367736E9A013F
:1044900003D4D6F884309B060AD5384604F0FEFBD8
:1044A000022C0FD12846BDE8F840002104F0D2BB11
:1044B000D6F884309906E9D54FF4F461044804F045
:1044C000F5FAE3E7F8BD00BF00400050005A620271
:1044D000CF9B00080060005010B50C4608B9FEF7ED
:1044E000C7FD074B21461B783BB1064B984204D8C9
:1044F0000120BDE81040FFF79BBF0220F9E700BF95
:10450000AB380020005A620238B54FF00042244B0D
:1045100024495A664AF6CD33D1F89440C1F8903018
:1045200004F0010428BBFFF771FF4B68DB0716D5C9
:1045300001221D4B5A601D4BCA6BD5070DD4984202
:1045400009D107251CB1174B194AC3F8902004F074
:10455000B2FB284638BD0130EEE79842F1D0002585
:10456000F0E70132CB6B13F0080305D08242F8D19B
:10457000E7E700220D48F5E78242E2D020210A4A0F
:1045800051630121A2F5805251600649074A486BE8
:10459000800603D49342D4D00133F8E79342DDE799
:1045A00000900050004009500060095040420F0048
:1045B0003254FFFF38B54FF00042174B174C5A6684
:1045C0004AF6CD33D4F89450C4F890304378144A66
:1045D0005B0043F00103D363FFF718FF6368827841
:1045E00023F0700343EA02136360C278437943EA1D
:1045F0000223E3600279837943EA0223236100788E
:10460000FFF782FFEB0744BF064BC4F8903004F07D
:1046100052FB012038BD00BF0090005000400950FF
:10462000004000503254FFFF10B504F049FB202336
:1046300041F2020203610023C360836042614FF4D0
:10464000A02207498361426200F50052C361036200
:104650008362C36243630365D164036310BD00BF1B
:10466000FF3F0D0338B5154B044698420D4604D064
:104670004FF4B371124804F019FA25B92046BDE889
:10468000384004F01DBB012204F580535A6040F607
:10469000FF71204605F00F0204F00EFBA2637821A3
:1046A00004F00AFB05F001036A0748BF43F0020368
:1046B000A26C02F003029A42FAD138BD0000045AFB
:1046C0001A9C0008F8B505460C46164622B94FF468
:1046D0000971654804F0EAF9644B9D4202D184B93E
:1046E00054240AE040F227215F4804F0DFF944B97E
:1046F00040F276315C4804F0D9F92046FFF7F4FB2C
:104700000446AB68D90741D5B44204D240F2312106
:10471000554804F0CBF9B4FBF6F46F68013CFF2C6C
:1047200007F0010704D940F239214F4804F0BEF9DF
:1047300024062FB32821284604F0BEFAAB6C9A0752
:1047400018D1AB6CDB0717D4AE6C16F0020615D18E
:1047500040F24621444804F0A9F9284604F0B0FA92
:104760002B69314623F07F4323432B61BDE8F8409A
:10477000FFF778BF0526F0E70926EEE70626ECE707
:104780002B6923F07F4323432B61F8BD6B68012B1A
:1047900004D040F25921344804F088F9AB6803F0A2
:1047A000E003402B42D009D893B1202B1AD040F21D
:1047B0009B21BDE8F8402C4804F078B9602B42D02A
:1047C000802BF4D106EB4603A34247D801230DE02A
:1047D000B6EB141F04D940F28121234804F066F996
:1047E000102303E0B6EBD40F1AD8082373436401F7
:1047F000B4FBF3F41E4F203CB7EBC40F4FEAC406E2
:1048000004D240F2A621184804F050F928463E4050
:10481000012104F051FA2E63BDE8F84004F04CBACF
:1048200040F28621104804F041F9DEE70623B4FB8C
:10483000F3F3B34201D30623D8E740F28B210A48B1
:1048400004F034F9F7E7B6EB940F01D80423CDE771
:104850004FF42471044804F029F9F7E740F2952158
:10486000014804F023F9B1E71A9C00080000045A3B
:10487000F8FF7F00F8B5704B044698420E4603D00F
:10488000DF216E4804F012F91EB9E1216B4804F0F3
:104890000DF9727BB3687AB1694A934203D9E32177
:1048A000664804F003F93369C3B1DB7BB3B1E62199
:1048B000624804F0FBF811E0624A934203D9E9210F
:1048C0005E4804F0F3F8336943B11A7F32B1B1683E
:1048D0005D4A5B7F914275D9042B75D86368356951
:1048E00023B140F6FF71204604F0E6F92046FFF7B9
:1048F0009BFE2269737BB17B22F087020B4313433B
:1049000043F080032361002D60D02369297F23F0C9
:10491000F80343EAC1132978EA7B0B43297943EA78
:104920004113697A43EA011343EA82132361E06881
:10493000D5E9053720F0F0403B4320F470200343D5
:10494000287B697B43EA802343EAC133E360A368A1
:10495000F07B23F00303034343F00103A3606B8860
:10496000A06803F4C0430343A360A368687943EAE3
:104970008023A360AB79EF79606A1B013F0203F0EB
:10498000700307F4E06720F4772020F4EE603B43E7
:104990000343287A000300F4E0400343687F0004E7
:1049A00000F47020034363626369307B23F00F03DC
:1049B000034363616B89A36169BBAAB11E4B9C422F
:1049C00012D132E0042B89D8F02171E7A368F27B81
:1049D00023F00303134343F00103A3606369327BB5
:1049E00023F00F0313436361D6E901122046FFF75A
:1049F00069FE05212046FFF735FE2821204604F0F8
:104A00005BF93378A36304F057F9A36CDB4313F429
:104A1000405FFAD1F8BD084B9C42E5D1AB7B0B4916
:104A200003F00F034B66002ADED02B7C074A03F00D
:104A30000F031366D8E700BF0000045A1A9C000851
:104A4000002D3101809698003F4B4C0000900350A0
:104A500070B51F2904460D46164603D99121064814
:104A600004F024F82EB104F580540123AB402360F8
:104A700070BD04F50054F8E7689C000838B50328B9
:104A800004460D4604D8084B1B5CCB40DB0704D41E
:104A900040F22D41054804F009F8302301225C431F
:104AA000034BAA401A5138BD4B9D0008B39C000827
:104AB00040D0035038B5032804460D4604D8084BAF
:104AC0001B5CCB40DB0704D440F2FE31054803F009
:104AD000EDFF302301225C43034BAA401A5138BD3D
:104AE0004B9D0008B39C000840E003502DE9F84FAF
:104AF000032807460E46144698469DF828A09DF8C0
:104B00002C9004D8264B1B5CCB40DB0703D4BF2181
:104B1000244803F0CBFF86EA0403032B03D9C12109
:104B2000204803F0C3FF072C4FF0030506F00306EF
:104B300025D84FEA840B05FA0BF529461A4807FADF
:104B40000BF204F0D7F82946184806FA0BF204F0E5
:104B5000D1F8424621461648FFF77AFF52462146D1
:104B60001448FFF775FF0123134AA340C2F820340D
:104B700021464A46BDE8F84F1048FFF769BFA4F147
:104B8000080B4FEA8B0B05FA0BF529460C4807FA80
:104B90000BF204F0AFF829460A4806FA0BF2D6E702
:104BA0004B9D0008FF9C000800C4035008C403503C
:104BB00010C4035014C4035000E0035024C4035035
:104BC00004C403500CC403502DE9F04103280446EB
:104BD0000D461746984604D81C4B1B5CCB40DB07A0
:104BE00004D44FF4B0711A4803F060FF37B129467E
:104BF0002046B8F1000F20D0FFF740FF0F21072D0E
:104C000004EB440688BFA5F108034FEA06161148D5
:104C100095BFAB009B0004360C3607FA03F29940AF
:104C2000304404F067F87FB929462046B8F1000FF8
:104C300006D0BDE8F041FFF721BFFFF73BFFDDE7FE
:104C4000BDE8F041FFF736BFBDE8F0814B9D00089D
:104C5000FF9C000830C0035010B5044618B99121DC
:104C60001F4803F023FF23781B0613F0604F03D087
:104C700092211B4803F01AFFE3780F2B03D99521EB
:104C8000174803F013FF01212020FFF703F901214A
:104C90002120FFF7FFF80122124B5A6022781206FA
:104CA0009A606178A27842EA01429A61FF229A6290
:104CB00000229A631A644FF000425A654FF0FF32A7
:104CC0004FF0806103F500531A65074AC2F880115E
:104CD000E3781B01DBB282F81A33116010BD00BF0C
:104CE0004F9D00080000045000E100E02DE9F04174
:104CF0000126C3B2072805460C46904606FA03F67D
:104D000003DDDE21344803F0D1FE1CB9DF21324837
:104D100003F0CCFE236823F47C1323F00F031BB1B4
:104D2000E2212D4803F0C2FEA37A1B0413F47C0F8A
:104D300003D0E721284803F0B9FEE37A1B0513F0FE
:104D40007E6F03D0E921244803F0B0FE237B5B058E
:104D500013F0FE5F03D0EB211F4803F0A7FE1F4BAB
:104D60001F4F1E65AB00226803F1A04303F58823A3
:104D70005A60302202FB0575637B2B66E37AA27AC8
:104D80001B0543EA0243227B43EA4253EB6528F0CA
:104D900003032B6703F085FF7B6D33437B65237A29
:104DA00013B13B6C33433B64637A13B1BB6B334346
:104DB000BB632279A37943EA0243084A936161798C
:104DC000E37943EA014307498B61054B56639E64CF
:104DD000BDE8F04103F06BBF4F9D00080020045078
:104DE000000004500010045038B5022805460C4657
:104DF00003D94C210C4803F059FEE37862782178FE
:104E00005B0143EA820322790B4343EA02130C223B
:104E10006A4302F1B0421363012902BFA278034B37
:104E200043F8252038BD00BF9B9D0008EC8003504F
:104E300008B54FF0B0435A686AB958B15B680BB116
:104E400003F068FF01210D4B596003F063FF4FF041
:104E5000B043D96008BD5B680BB103F05BFF00286D
:104E6000F0D103F057FF4FF0B0430222DA6003F0B5
:104E700051FF0122024B5A60ECE700BF00100058BE
:104E80000020005810B54FF0B0414B680BB103F053
:104E900041FF01220B4BC4785A608378934043EA68
:104EA000840344782343047943EA0413447943EAAE
:104EB000C4038B60044B5A600378C3F10203CB60D8
:104EC00010BD00BF002000580010005870B5064605
:104ED0000C46154622B940F28E210C4803F0E6FD3F
:104EE00024B94FF42070FEF7FFFF04466D00013C2B
:104EF000B4FBF5F4064B250213EA042304D040F278
:104F0000B321024803F0D2FDF56170BDE79D0008B2
:104F1000070080FF10B5174B0446984208D003F5F0
:104F20008043984204D040F24241134803F0BEFD52
:104F3000012204F580535A6040F6AA6341F205024B
:104F4000636100230D49A360E365E26004F500524C
:104F50002361E361E36491640649A3658C4203D154
:104F600023650023636502E005498C42F8D00123E4
:104F7000536010BD00C00550E79D0008FFFF010011
:104F80000000065038B52F4B044698420D4608D015
:104F900003F58043984204D040F269312A4803F077
:104FA00085FD2046FFF7B6FF012204F580535A60C5
:104FB0002B8AA26843F001031343AA7B43EA8223AE
:104FC000A360A3682A7D43EA4273A360AB7C5BB114
:104FD0001C4AEB7C94422DD1A2F51032C2F89031DC
:104FE000E36D43F08003E3652B7B2046D5E9011296
:104FF00043F48053E360FFF769FF6B7B0BB1102331
:1050000063616B7D1BB1A36843F48033A360AB7D08
:105010001BB1A36843F40043A360EB7D2A7E1B070A
:10502000120503F0E04302F4E0021343A3652B787A
:10503000636138BD054A944204BFA2F52032C2F82C
:10504000AC31CDE700C00550E79D000800000650D8
:1050500007B5084B18689A889B7900906846ADF8A8
:1050600004208DF80630FFF7A5FA002003B05DF8A4
:1050700004FB00BF349E000813B50024064A6846AE
:10508000536F43F00103536700948DF80440FFF71A
:10509000C5F9204602B010BD0040005010B56FF0B9
:1050A000040350210A480B4C13F0800F03F1010256
:1050B00007D12344432A83F800131346F4D1002078
:1050C00010BD03F00F03043B034419761346EBE7CE
:1050D00000ED00E000E100E010B5044603F0DAFD69
:1050E000024B1C6003F0DAFD002010BD48370020A1
:1050F00010B503F0CFFD034B1C6803F0CFFD204635
:1051000010BD00BF4837002010B50020144603F042
:1051100009FE022804D018B1C321024803F0C6FCDE
:10512000204610BD3B9E0008034B02221868002356
:105130008068194601F0E2BC2011002010B5002063
:1051400003F0B5FC044610B90248FFF7C5FF20463E
:1051500010BD00BF0811002030B50E4C416123681E
:105160008BB9206083600DE0891A9A681D46416101
:105170006AB113465A698A42F6D935B1A860521A03
:1051800083605A6130BD0025F4E72060F7E798603E
:105190008260F7E75437002038B503F01CFE002585
:1051A000084B094C1A682368C31A2AB123B1516904
:1051B000994203D3C91A5161206038BD55615B1A09
:1051C0009268F2E7543700205037002038B5134D6D
:1051D0002B685B6993B1124A022014681C4403F0E7
:1051E00001FE204600F094F900230E492A680B7056
:1051F000D088800709D501230B7038BD022003F049
:10520000F1FD022000F0CEF9EEE79268002AF4D01A
:1052100050690344012BEBD9EFE700BF543700205E
:1052200050370020AD38002000220C490B687BB1BC
:1052300083420AD183687AB1936083681BB15A694B
:1052400041690A445A61002070471A469B68EEE79C
:105250000028EFD0022070470B60EEE754370020A3
:1052600070B503F01EFD144E05463478FCB9134B9F
:105270001C60134B1C60134B1C8000F005F90120CF
:1052800003F0B0FD03F0BAFD0F4B0246186020B9E1
:10529000284603F00CFD232070BD234640F2E73181
:1052A0000A4800F073FE0A4B186001233370284649
:1052B00003F0FDFC0020EFE7AE380020543700205B
:1052C00050370020A43800205837002018FCFFFF7A
:1052D0004C37002070B5044640B303F0DBFC144E9D
:1052E0000546FFF759FF3068A04209D02046FFF776
:1052F0009BFF0446B0B1284603F0D0FC204670BDA9
:10530000FFF792FF04460028F5D133683BB902202D
:1053100000F030F9284603F0C1FC0024EEE7FFF767
:1053200055FFF7E73368002BF4D1F0E72224E5E7D7
:10533000543700202DE9F843C20704460BD54E4AE6
:10534000138801339BB21380FFF726FF4B4B1B687A
:105350000BB1FFF73BFFA30740F18B8003F0A1FCEB
:105360004FF0000805464646FFF716FF434F3C68DE
:105370000CB163698BB10022414B012E1A7003D12D
:1053800018F0020F18BF1E70002C6ED0FFF71EFF22
:105390002846BDE8F84303F08ABC23465A693AB967
:1053A0001A792179914288BF1C469B68002BF5D160
:1053B000284603F07CFC2569DDB103F00CFDA269F1
:1053C000A0EB02084FEAE873A84573F1000311DB74
:1053D00023691344A361E368B4F80680013613B16E
:1053E00020462168984703F05CFC0546FFF7D4FE91
:1053F000BDE7A84603F055FC81462046FFF714FFA1
:10540000484603F054FC2369002BE4D0B5EB0805B3
:105410004FEAE87363EB4303012D73F1000304DAF1
:1054200040F22B51174803F041FBA38B33B1E28BC1
:1054300013449BB2B3F57A7F0FD2E38303F031FCC0
:10544000804629462046FFF787FEA3692269404629
:105450001344A36103F02BFCBDE7A3F57A73E38348
:10546000A369013D013BA361E8E7022000F082F857
:105470008EE7BDE8F88300BFA43800205437002031
:10548000AC380020A59E00081FB500241D4B01214B
:1054900018689A880290D3F806009B7A00903E2004
:1054A000ADF80C208DF80430FEF7F4FC8DF80840C0
:1054B00003F08FFC8DF80C0002A8FFF7E3FC6946AF
:1054C00001208DF80040FFF78FFC4FF0B04240F212
:1054D000FF31936923F47F7323F0030393610A4B35
:1054E0005961936A13F00803FBD113620120FFF79F
:1054F0009FFC4FF40042054BC3F880211A6004B0B2
:1055000010BD00BF049F00080020005800E100E02B
:1055100010B5044603F0BEFB4FF0B042936A190782
:10552000FCD4136A116C5269520604D4CA1A032AB5
:1055300001D88B420ED1E21A022A98BFDC1CB4F1CA
:10554000FF3F38BF013C4FF0B0431C649A6942F002
:1055500040029A6103F0A2FB054A13783BB14FF079
:10556000B041CB6B43F00203CB630023137010BD3B
:10557000E0120020820700F001030AD50121084A49
:1055800043F0400311704FF0B041CA6B22F00302A8
:10559000CA634FF0B0418A6922EA03038B61704706
:1055A000E0120020830742BF4022014B5A6170473E
:1055B0000010005810B503F074FB4FF0B0430446E0
:1055C0005B695A06074A03F0010003F0510348BF24
:1055D00040F002005361FFF7ADFE2046BDE81040E9
:1055E00003F065BB0020005810B50446FDF75AFDD6
:1055F0004FF47A729042B0FBF2F105D23621BDE849
:1056000010400C4803F052BA0B4BB3FBF1F30B49BB
:10561000884201D93C21F2E702FB04F0B0FBF3F031
:10562000022806D9BDE810400323B0FBF3F0FAF7D7
:105630008FBD10BD0F9F000840420F00E7CD9A3B81
:1056400081F0004102E000BF83F0004330B54FEA33
:1056500041044FEA430594EA050F08BF90EA020FA0
:105660001FBF54EA000C55EA020C7FEA645C7FEA33
:10567000655C00F0E2804FEA5454D4EB5555B8BF56
:105680006D420CDD2C4480EA020281EA030382EAC7
:10569000000083EA010180EA020281EA0303362D59
:1056A00088BF30BD11F0004F4FEA01314FF4801C2C
:1056B0004CEA113102D0404261EB410113F0004F3E
:1056C0004FEA03334CEA133302D0524263EB4303F5
:1056D00094EA050F00F0A780A4F10104D5F1200E93
:1056E0000DDB02FA0EFC22FA05F2801841F10001EE
:1056F00003FA0EF2801843FA05F359410EE0A5F1C2
:1057000020050EF1200E012A03FA0EFC28BF4CF0F2
:10571000020C43FA05F3C01851EBE37101F00045A8
:1057200007D54FF0000EDCF1000C7EEB00006EEBB5
:105730000101B1F5801F1BD3B1F5001F0CD349083F
:105740005FEA30004FEA3C0C04F101044FEA445296
:1057500012F5800F80F09A80BCF1004F08BF5FEA1D
:10576000500C50F1000041EB045141EA050130BDFD
:105770005FEA4C0C404141EB0101013C28BFB1F50F
:10578000801FE9D291F0000F04BF01460020B1FA5A
:1057900081F308BF2033A3F10B03B3F120020CDA2D
:1057A0000C3208DD02F1140CC2F10C0201FA0CF00B
:1057B00021FA02F10CE002F11402D8BFC2F1200C70
:1057C00001FA02F120FA0CFCDCBF41EA0C01904026
:1057D000E41AA2BF01EB0451294330BD6FEA04046F
:1057E0001F3C1CDA0C340EDC04F11404C4F120025A
:1057F00020FA04F001FA02F340EA030021FA04F36C
:1058000045EA030130BDC4F10C04C4F1200220FAC2
:1058100002F001FA04F340EA0300294630BD21FA00
:1058200004F0294630BD94F0000F83F4801306BFC6
:1058300081F480110134013D4EE77FEA645C18BFBA
:105840007FEA655C29D094EA050F08BF90EA020F51
:1058500005D054EA000C04BF1946104630BD91EA49
:10586000030F1EBF0021002030BD5FEA545C05D14C
:105870004000494128BF41F0004130BD14F580048B
:105880003CBF01F5801130BD01F0004545F0FE41FF
:1058900041F470014FF0000030BD7FEA645C1ABF34
:1058A000194610467FEA655C1CBF0B46024650EA6B
:1058B000013406BF52EA033591EA030F41F4002197
:1058C00030BD00BF90F0000F04BF0021704730B51D
:1058D0004FF4806404F132044FF000054FF00001F2
:1058E00050E700BF90F0000F04BF0021704730B5B3
:1058F0004FF4806404F1320410F0004548BF404288
:105900004FF000013EE700BF42004FEAE2014FEADC
:1059100031014FEA02701FBF12F07F4393F07F4FB7
:1059200081F06051704732F07F4208BF704793F0BA
:105930007F4F04BF41F40021704730B54FF46074CD
:1059400001F0004521F000411CE700BF50EA0102D0
:1059500008BF704730B54FF000050AE050EA010279
:1059600008BF704730B511F0004502D5404261EBE9
:1059700041014FF4806404F132045FEA915C3FF42A
:10598000D8AE4FF003025FEADC0C18BF03325FEAC7
:10599000DC0C18BF033202EBDC02C2F1200300FA78
:1059A00003FC20FA02F001FA03FE40EA0E0021FA9D
:1059B00002F11444BDE600BF70B54FF0FF0C4CF48B
:1059C000E06C1CEA11541DBF1CEA135594EA0C0F3D
:1059D00095EA0C0F00F0DEF82C4481EA030621EA78
:1059E0004C5123EA4C5350EA013518BF52EA0335B3
:1059F00041F4801143F4801338D0A0FB02CE4FF065
:105A00000005E1FB02E506F00042E0FB03E54FF094
:105A10000006E1FB03569CF0000F18BF4EF0010E8C
:105A2000A4F1FF04B6F5007F64F5407404D25FEA88
:105A30004E0E6D4146EB060642EAC62141EA55513B
:105A40004FEAC52040EA5E504FEACE2EB4F1FD0C7D
:105A500088BFBCF5E06F1ED8BEF1004F08BF5FEAFB
:105A6000500E50F1000041EB045170BD06F00046AD
:105A700046EA010140EA020081EA0301B4EB5C045A
:105A8000C2BFD4EB0C0541EA045170BD41F4801152
:105A90004FF0000E013C00F3AB8014F1360FDEBF77
:105AA000002001F0004170BDC4F10004203C35DA53
:105AB0000C341BDC04F11404C4F1200500FA05F3D6
:105AC00020FA04F001FA05F240EA020001F0004277
:105AD00021F0004110EBD37021FA04F642EB0601ED
